{
	"contracts/Crowdfund.sol": {
		"CrowdFunding": {
			"abi": [
				{
					"inputs": [
						{
							"internalType": "uint256",
							"name": "_goal",
							"type": "uint256"
						},
						{
							"internalType": "uint256",
							"name": "_deadline",
							"type": "uint256"
						}
					],
					"stateMutability": "nonpayable",
					"type": "constructor"
				},
				{
					"anonymous": false,
					"inputs": [
						{
							"indexed": false,
							"internalType": "address",
							"name": "_sender",
							"type": "address"
						},
						{
							"indexed": false,
							"internalType": "uint256",
							"name": "_value",
							"type": "uint256"
						}
					],
					"name": "ContributeEvent",
					"type": "event"
				},
				{
					"anonymous": false,
					"inputs": [
						{
							"indexed": false,
							"internalType": "string",
							"name": "_description",
							"type": "string"
						},
						{
							"indexed": false,
							"internalType": "address",
							"name": "_recipient",
							"type": "address"
						},
						{
							"indexed": false,
							"internalType": "uint256",
							"name": "_value",
							"type": "uint256"
						}
					],
					"name": "CreateRequestEvent",
					"type": "event"
				},
				{
					"anonymous": false,
					"inputs": [
						{
							"indexed": false,
							"internalType": "address",
							"name": "_recipient",
							"type": "address"
						},
						{
							"indexed": false,
							"internalType": "uint256",
							"name": "_value",
							"type": "uint256"
						}
					],
					"name": "MakePaymentEvent",
					"type": "event"
				},
				{
					"inputs": [],
					"name": "admin",
					"outputs": [
						{
							"internalType": "address",
							"name": "",
							"type": "address"
						}
					],
					"stateMutability": "view",
					"type": "function"
				},
				{
					"inputs": [],
					"name": "contribute",
					"outputs": [],
					"stateMutability": "payable",
					"type": "function"
				},
				{
					"inputs": [
						{
							"internalType": "address",
							"name": "",
							"type": "address"
						}
					],
					"name": "contributors",
					"outputs": [
						{
							"internalType": "uint256",
							"name": "",
							"type": "uint256"
						}
					],
					"stateMutability": "view",
					"type": "function"
				},
				{
					"inputs": [
						{
							"internalType": "string",
							"name": "_description",
							"type": "string"
						},
						{
							"internalType": "address payable",
							"name": "_recipient",
							"type": "address"
						},
						{
							"internalType": "uint256",
							"name": "_value",
							"type": "uint256"
						}
					],
					"name": "createRequest",
					"outputs": [],
					"stateMutability": "nonpayable",
					"type": "function"
				},
				{
					"inputs": [],
					"name": "deadline",
					"outputs": [
						{
							"internalType": "uint256",
							"name": "",
							"type": "uint256"
						}
					],
					"stateMutability": "view",
					"type": "function"
				},
				{
					"inputs": [],
					"name": "getBalance",
					"outputs": [
						{
							"internalType": "uint256",
							"name": "",
							"type": "uint256"
						}
					],
					"stateMutability": "view",
					"type": "function"
				},
				{
					"inputs": [],
					"name": "getRefund",
					"outputs": [],
					"stateMutability": "nonpayable",
					"type": "function"
				},
				{
					"inputs": [],
					"name": "goal",
					"outputs": [
						{
							"internalType": "uint256",
							"name": "",
							"type": "uint256"
						}
					],
					"stateMutability": "view",
					"type": "function"
				},
				{
					"inputs": [
						{
							"internalType": "uint256",
							"name": "_requestNo",
							"type": "uint256"
						}
					],
					"name": "makePayment",
					"outputs": [],
					"stateMutability": "nonpayable",
					"type": "function"
				},
				{
					"inputs": [],
					"name": "minimumContribution",
					"outputs": [
						{
							"internalType": "uint256",
							"name": "",
							"type": "uint256"
						}
					],
					"stateMutability": "view",
					"type": "function"
				},
				{
					"inputs": [],
					"name": "noOfContributors",
					"outputs": [
						{
							"internalType": "uint256",
							"name": "",
							"type": "uint256"
						}
					],
					"stateMutability": "view",
					"type": "function"
				},
				{
					"inputs": [],
					"name": "numRequests",
					"outputs": [
						{
							"internalType": "uint256",
							"name": "",
							"type": "uint256"
						}
					],
					"stateMutability": "view",
					"type": "function"
				},
				{
					"inputs": [],
					"name": "raisedAmount",
					"outputs": [
						{
							"internalType": "uint256",
							"name": "",
							"type": "uint256"
						}
					],
					"stateMutability": "view",
					"type": "function"
				},
				{
					"inputs": [
						{
							"internalType": "uint256",
							"name": "",
							"type": "uint256"
						}
					],
					"name": "requests",
					"outputs": [
						{
							"internalType": "string",
							"name": "description",
							"type": "string"
						},
						{
							"internalType": "address payable",
							"name": "recipient",
							"type": "address"
						},
						{
							"internalType": "uint256",
							"name": "value",
							"type": "uint256"
						},
						{
							"internalType": "bool",
							"name": "completed",
							"type": "bool"
						},
						{
							"internalType": "uint256",
							"name": "noOfVoters",
							"type": "uint256"
						}
					],
					"stateMutability": "view",
					"type": "function"
				},
				{
					"inputs": [
						{
							"internalType": "uint256",
							"name": "_requestNo",
							"type": "uint256"
						}
					],
					"name": "voteRequest",
					"outputs": [],
					"stateMutability": "nonpayable",
					"type": "function"
				}
			],
			"devdoc": {
				"kind": "dev",
				"methods": {},
				"version": 1
			},
			"evm": {
				"assembly": "    /* \"contracts/Crowdfund.sol\":65:4381  contract CrowdFunding {... */\n  mstore(0x40, 0x80)\n    /* \"contracts/Crowdfund.sol\":1059:1248  constructor(uint _goal, uint _deadline) {... */\n  callvalue\n  dup1\n  iszero\n  tag_1\n  jumpi\n  0x00\n  dup1\n  revert\ntag_1:\n  pop\n  mload(0x40)\n  sub(codesize, bytecodeSize)\n  dup1\n  bytecodeSize\n  dup4\n  codecopy\n  dup2\n  dup2\n  add\n  0x40\n  mstore\n  dup2\n  add\n  swap1\n  tag_2\n  swap2\n  swap1\n  tag_3\n  jump\t// in\ntag_2:\n    /* \"contracts/Crowdfund.sol\":1117:1122  _goal */\n  dup2\n    /* \"contracts/Crowdfund.sol\":1110:1114  goal */\n  0x05\n    /* \"contracts/Crowdfund.sol\":1110:1122  goal = _goal */\n  dup2\n  swap1\n  sstore\n  pop\n    /* \"contracts/Crowdfund.sol\":1162:1171  _deadline */\n  dup1\n    /* \"contracts/Crowdfund.sol\":1144:1159  block.timestamp */\n  timestamp\n    /* \"contracts/Crowdfund.sol\":1144:1171  block.timestamp + _deadline */\n  tag_6\n  swap2\n  swap1\n  tag_7\n  jump\t// in\ntag_6:\n    /* \"contracts/Crowdfund.sol\":1133:1141  deadline */\n  0x04\n    /* \"contracts/Crowdfund.sol\":1133:1171  deadline = block.timestamp + _deadline */\n  dup2\n  swap1\n  sstore\n  pop\n    /* \"contracts/Crowdfund.sol\":1190:1200  msg.sender */\n  caller\n    /* \"contracts/Crowdfund.sol\":1182:1187  admin */\n  0x01\n  0x00\n    /* \"contracts/Crowdfund.sol\":1182:1200  admin = msg.sender */\n  0x0100\n  exp\n  dup2\n  sload\n  dup2\n  0xffffffffffffffffffffffffffffffffffffffff\n  mul\n  not\n  and\n  swap1\n  dup4\n  0xffffffffffffffffffffffffffffffffffffffff\n  and\n  mul\n  or\n  swap1\n  sstore\n  pop\n    /* \"contracts/Crowdfund.sol\":1233:1240  100 wei */\n  0x64\n    /* \"contracts/Crowdfund.sol\":1211:1230  minimumContribution */\n  0x03\n    /* \"contracts/Crowdfund.sol\":1211:1240  minimumContribution = 100 wei */\n  dup2\n  swap1\n  sstore\n  pop\n    /* \"contracts/Crowdfund.sol\":1059:1248  constructor(uint _goal, uint _deadline) {... */\n  pop\n  pop\n    /* \"contracts/Crowdfund.sol\":65:4381  contract CrowdFunding {... */\n  jump(tag_8)\n    /* \"#utility.yul\":88:205   */\ntag_10:\n    /* \"#utility.yul\":197:198   */\n  0x00\n    /* \"#utility.yul\":194:195   */\n  dup1\n    /* \"#utility.yul\":187:199   */\n  revert\n    /* \"#utility.yul\":334:411   */\ntag_12:\n    /* \"#utility.yul\":371:378   */\n  0x00\n    /* \"#utility.yul\":400:405   */\n  dup2\n    /* \"#utility.yul\":389:405   */\n  swap1\n  pop\n    /* \"#utility.yul\":334:411   */\n  swap2\n  swap1\n  pop\n  jump\t// out\n    /* \"#utility.yul\":417:539   */\ntag_13:\n    /* \"#utility.yul\":490:514   */\n  tag_22\n    /* \"#utility.yul\":508:513   */\n  dup2\n    /* \"#utility.yul\":490:514   */\n  tag_12\n  jump\t// in\ntag_22:\n    /* \"#utility.yul\":483:488   */\n  dup2\n    /* \"#utility.yul\":480:515   */\n  eq\n    /* \"#utility.yul\":470:533   */\n  tag_23\n  jumpi\n    /* \"#utility.yul\":529:530   */\n  0x00\n    /* \"#utility.yul\":526:527   */\n  dup1\n    /* \"#utility.yul\":519:531   */\n  revert\n    /* \"#utility.yul\":470:533   */\ntag_23:\n    /* \"#utility.yul\":417:539   */\n  pop\n  jump\t// out\n    /* \"#utility.yul\":545:688   */\ntag_14:\n    /* \"#utility.yul\":602:607   */\n  0x00\n    /* \"#utility.yul\":633:639   */\n  dup2\n    /* \"#utility.yul\":627:640   */\n  mload\n    /* \"#utility.yul\":618:640   */\n  swap1\n  pop\n    /* \"#utility.yul\":649:682   */\n  tag_25\n    /* \"#utility.yul\":676:681   */\n  dup2\n    /* \"#utility.yul\":649:682   */\n  tag_13\n  jump\t// in\ntag_25:\n    /* \"#utility.yul\":545:688   */\n  swap3\n  swap2\n  pop\n  pop\n  jump\t// out\n    /* \"#utility.yul\":694:1201   */\ntag_3:\n    /* \"#utility.yul\":773:779   */\n  0x00\n    /* \"#utility.yul\":781:787   */\n  dup1\n    /* \"#utility.yul\":830:832   */\n  0x40\n    /* \"#utility.yul\":818:827   */\n  dup4\n    /* \"#utility.yul\":809:816   */\n  dup6\n    /* \"#utility.yul\":805:828   */\n  sub\n    /* \"#utility.yul\":801:833   */\n  slt\n    /* \"#utility.yul\":798:917   */\n  iszero\n  tag_27\n  jumpi\n    /* \"#utility.yul\":836:915   */\n  tag_28\n  tag_10\n  jump\t// in\ntag_28:\n    /* \"#utility.yul\":798:917   */\ntag_27:\n    /* \"#utility.yul\":956:957   */\n  0x00\n    /* \"#utility.yul\":981:1045   */\n  tag_29\n    /* \"#utility.yul\":1037:1044   */\n  dup6\n    /* \"#utility.yul\":1028:1034   */\n  dup3\n    /* \"#utility.yul\":1017:1026   */\n  dup7\n    /* \"#utility.yul\":1013:1035   */\n  add\n    /* \"#utility.yul\":981:1045   */\n  tag_14\n  jump\t// in\ntag_29:\n    /* \"#utility.yul\":971:1045   */\n  swap3\n  pop\n    /* \"#utility.yul\":927:1055   */\n  pop\n    /* \"#utility.yul\":1094:1096   */\n  0x20\n    /* \"#utility.yul\":1120:1184   */\n  tag_30\n    /* \"#utility.yul\":1176:1183   */\n  dup6\n    /* \"#utility.yul\":1167:1173   */\n  dup3\n    /* \"#utility.yul\":1156:1165   */\n  dup7\n    /* \"#utility.yul\":1152:1174   */\n  add\n    /* \"#utility.yul\":1120:1184   */\n  tag_14\n  jump\t// in\ntag_30:\n    /* \"#utility.yul\":1110:1184   */\n  swap2\n  pop\n    /* \"#utility.yul\":1065:1194   */\n  pop\n    /* \"#utility.yul\":694:1201   */\n  swap3\n  pop\n  swap3\n  swap1\n  pop\n  jump\t// out\n    /* \"#utility.yul\":1207:1387   */\ntag_15:\n    /* \"#utility.yul\":1255:1332   */\n  0x4e487b7100000000000000000000000000000000000000000000000000000000\n    /* \"#utility.yul\":1252:1253   */\n  0x00\n    /* \"#utility.yul\":1245:1333   */\n  mstore\n    /* \"#utility.yul\":1352:1356   */\n  0x11\n    /* \"#utility.yul\":1349:1350   */\n  0x04\n    /* \"#utility.yul\":1342:1357   */\n  mstore\n    /* \"#utility.yul\":1376:1380   */\n  0x24\n    /* \"#utility.yul\":1373:1374   */\n  0x00\n    /* \"#utility.yul\":1366:1381   */\n  revert\n    /* \"#utility.yul\":1393:1584   */\ntag_7:\n    /* \"#utility.yul\":1433:1436   */\n  0x00\n    /* \"#utility.yul\":1452:1472   */\n  tag_33\n    /* \"#utility.yul\":1470:1471   */\n  dup3\n    /* \"#utility.yul\":1452:1472   */\n  tag_12\n  jump\t// in\ntag_33:\n    /* \"#utility.yul\":1447:1472   */\n  swap2\n  pop\n    /* \"#utility.yul\":1486:1506   */\n  tag_34\n    /* \"#utility.yul\":1504:1505   */\n  dup4\n    /* \"#utility.yul\":1486:1506   */\n  tag_12\n  jump\t// in\ntag_34:\n    /* \"#utility.yul\":1481:1506   */\n  swap3\n  pop\n    /* \"#utility.yul\":1529:1530   */\n  dup3\n    /* \"#utility.yul\":1526:1527   */\n  dup3\n    /* \"#utility.yul\":1522:1531   */\n  add\n    /* \"#utility.yul\":1515:1531   */\n  swap1\n  pop\n    /* \"#utility.yul\":1550:1553   */\n  dup1\n    /* \"#utility.yul\":1547:1548   */\n  dup3\n    /* \"#utility.yul\":1544:1554   */\n  gt\n    /* \"#utility.yul\":1541:1577   */\n  iszero\n  tag_35\n  jumpi\n    /* \"#utility.yul\":1557:1575   */\n  tag_36\n  tag_15\n  jump\t// in\ntag_36:\n    /* \"#utility.yul\":1541:1577   */\ntag_35:\n    /* \"#utility.yul\":1393:1584   */\n  swap3\n  swap2\n  pop\n  pop\n  jump\t// out\n    /* \"contracts/Crowdfund.sol\":65:4381  contract CrowdFunding {... */\ntag_8:\n  dataSize(sub_0)\n  dup1\n  dataOffset(sub_0)\n  0x00\n  codecopy\n  0x00\n  return\nstop\n\nsub_0: assembly {\n        /* \"contracts/Crowdfund.sol\":65:4381  contract CrowdFunding {... */\n      mstore(0x40, 0x80)\n      jumpi(tag_1, lt(calldatasize, 0x04))\n      shr(0xe0, calldataload(0x00))\n      dup1\n      0x5114cb52\n      gt\n      tag_17\n      jumpi\n      dup1\n      0xb2d5ae44\n      gt\n      tag_18\n      jumpi\n      dup1\n      0xb2d5ae44\n      eq\n      tag_13\n      jumpi\n      dup1\n      0xc59ee1dc\n      eq\n      tag_14\n      jumpi\n      dup1\n      0xd7bb99ba\n      eq\n      tag_15\n      jumpi\n      dup1\n      0xf851a440\n      eq\n      tag_16\n      jumpi\n      jump(tag_1)\n    tag_18:\n      dup1\n      0x5114cb52\n      eq\n      tag_9\n      jumpi\n      dup1\n      0x81d12c58\n      eq\n      tag_10\n      jumpi\n      dup1\n      0x937e09b1\n      eq\n      tag_11\n      jumpi\n      dup1\n      0x9fb42b1f\n      eq\n      tag_12\n      jumpi\n      jump(tag_1)\n    tag_17:\n      dup1\n      0x29dcb0cf\n      gt\n      tag_19\n      jumpi\n      dup1\n      0x29dcb0cf\n      eq\n      tag_5\n      jumpi\n      dup1\n      0x40193883\n      eq\n      tag_6\n      jumpi\n      dup1\n      0x4cb6f4a5\n      eq\n      tag_7\n      jumpi\n      dup1\n      0x4e260f6f\n      eq\n      tag_8\n      jumpi\n      jump(tag_1)\n    tag_19:\n      dup1\n      0x12065fe0\n      eq\n      tag_2\n      jumpi\n      dup1\n      0x1b16bb5c\n      eq\n      tag_3\n      jumpi\n      dup1\n      0x1f6d4942\n      eq\n      tag_4\n      jumpi\n    tag_1:\n      0x00\n      dup1\n      revert\n        /* \"contracts/Crowdfund.sol\":1989:2084  function getBalance() public view returns(uint) {... */\n    tag_2:\n      callvalue\n      dup1\n      iszero\n      tag_20\n      jumpi\n      0x00\n      dup1\n      revert\n    tag_20:\n      pop\n      tag_21\n      tag_22\n      jump\t// in\n    tag_21:\n      mload(0x40)\n      tag_23\n      swap2\n      swap1\n      tag_24\n      jump\t// in\n    tag_23:\n      mload(0x40)\n      dup1\n      swap2\n      sub\n      swap1\n      return\n        /* \"contracts/Crowdfund.sol\":2794:3329  function createRequest(string calldata _description, address payable _recipient, uint _value) public onlyAdmin {... */\n    tag_3:\n      callvalue\n      dup1\n      iszero\n      tag_25\n      jumpi\n      0x00\n      dup1\n      revert\n    tag_25:\n      pop\n      tag_26\n      0x04\n      dup1\n      calldatasize\n      sub\n      dup2\n      add\n      swap1\n      tag_27\n      swap2\n      swap1\n      tag_28\n      jump\t// in\n    tag_27:\n      tag_29\n      jump\t// in\n    tag_26:\n      stop\n        /* \"contracts/Crowdfund.sol\":94:138  mapping(address => uint) public contributors */\n    tag_4:\n      callvalue\n      dup1\n      iszero\n      tag_30\n      jumpi\n      0x00\n      dup1\n      revert\n    tag_30:\n      pop\n      tag_31\n      0x04\n      dup1\n      calldatasize\n      sub\n      dup2\n      add\n      swap1\n      tag_32\n      swap2\n      swap1\n      tag_33\n      jump\t// in\n    tag_32:\n      tag_34\n      jump\t// in\n    tag_31:\n      mload(0x40)\n      tag_35\n      swap2\n      swap1\n      tag_24\n      jump\t// in\n    tag_35:\n      mload(0x40)\n      dup1\n      swap2\n      sub\n      swap1\n      return\n        /* \"contracts/Crowdfund.sol\":245:265  uint public deadline */\n    tag_5:\n      callvalue\n      dup1\n      iszero\n      tag_36\n      jumpi\n      0x00\n      dup1\n      revert\n    tag_36:\n      pop\n      tag_37\n      tag_38\n      jump\t// in\n    tag_37:\n      mload(0x40)\n      tag_39\n      swap2\n      swap1\n      tag_24\n      jump\t// in\n    tag_39:\n      mload(0x40)\n      dup1\n      swap2\n      sub\n      swap1\n      return\n        /* \"contracts/Crowdfund.sol\":284:300  uint public goal */\n    tag_6:\n      callvalue\n      dup1\n      iszero\n      tag_40\n      jumpi\n      0x00\n      dup1\n      revert\n    tag_40:\n      pop\n      tag_41\n      tag_42\n      jump\t// in\n    tag_41:\n      mload(0x40)\n      tag_43\n      swap2\n      swap1\n      tag_24\n      jump\t// in\n    tag_43:\n      mload(0x40)\n      dup1\n      swap2\n      sub\n      swap1\n      return\n        /* \"contracts/Crowdfund.sol\":3347:3736  function voteRequest(uint _requestNo) public {... */\n    tag_7:\n      callvalue\n      dup1\n      iszero\n      tag_44\n      jumpi\n      0x00\n      dup1\n      revert\n    tag_44:\n      pop\n      tag_45\n      0x04\n      dup1\n      calldatasize\n      sub\n      dup2\n      add\n      swap1\n      tag_46\n      swap2\n      swap1\n      tag_47\n      jump\t// in\n    tag_46:\n      tag_48\n      jump\t// in\n    tag_45:\n      stop\n        /* \"contracts/Crowdfund.sol\":172:200  uint public noOfContributors */\n    tag_8:\n      callvalue\n      dup1\n      iszero\n      tag_49\n      jumpi\n      0x00\n      dup1\n      revert\n    tag_49:\n      pop\n      tag_50\n      tag_51\n      jump\t// in\n    tag_50:\n      mload(0x40)\n      tag_52\n      swap2\n      swap1\n      tag_24\n      jump\t// in\n    tag_52:\n      mload(0x40)\n      dup1\n      swap2\n      sub\n      swap1\n      return\n        /* \"contracts/Crowdfund.sol\":3754:4372  function makePayment(uint _requestNo) public onlyAdmin {... */\n    tag_9:\n      callvalue\n      dup1\n      iszero\n      tag_53\n      jumpi\n      0x00\n      dup1\n      revert\n    tag_53:\n      pop\n      tag_54\n      0x04\n      dup1\n      calldatasize\n      sub\n      dup2\n      add\n      swap1\n      tag_55\n      swap2\n      swap1\n      tag_47\n      jump\t// in\n    tag_55:\n      tag_56\n      jump\t// in\n    tag_54:\n      stop\n        /* \"contracts/Crowdfund.sol\":736:776  mapping(uint => Request) public requests */\n    tag_10:\n      callvalue\n      dup1\n      iszero\n      tag_57\n      jumpi\n      0x00\n      dup1\n      revert\n    tag_57:\n      pop\n      tag_58\n      0x04\n      dup1\n      calldatasize\n      sub\n      dup2\n      add\n      swap1\n      tag_59\n      swap2\n      swap1\n      tag_47\n      jump\t// in\n    tag_59:\n      tag_60\n      jump\t// in\n    tag_58:\n      mload(0x40)\n      tag_61\n      swap6\n      swap5\n      swap4\n      swap3\n      swap2\n      swap1\n      tag_62\n      jump\t// in\n    tag_61:\n      mload(0x40)\n      dup1\n      swap2\n      sub\n      swap1\n      return\n        /* \"contracts/Crowdfund.sol\":207:238  uint public minimumContribution */\n    tag_11:\n      callvalue\n      dup1\n      iszero\n      tag_63\n      jumpi\n      0x00\n      dup1\n      revert\n    tag_63:\n      pop\n      tag_64\n      tag_65\n      jump\t// in\n    tag_64:\n      mload(0x40)\n      tag_66\n      swap2\n      swap1\n      tag_24\n      jump\t// in\n    tag_66:\n      mload(0x40)\n      dup1\n      swap2\n      sub\n      swap1\n      return\n        /* \"contracts/Crowdfund.sol\":783:806  uint public numRequests */\n    tag_12:\n      callvalue\n      dup1\n      iszero\n      tag_67\n      jumpi\n      0x00\n      dup1\n      revert\n    tag_67:\n      pop\n      tag_68\n      tag_69\n      jump\t// in\n    tag_68:\n      mload(0x40)\n      tag_70\n      swap2\n      swap1\n      tag_24\n      jump\t// in\n    tag_70:\n      mload(0x40)\n      dup1\n      swap2\n      sub\n      swap1\n      return\n        /* \"contracts/Crowdfund.sol\":2179:2776  function getRefund() public {... */\n    tag_13:\n      callvalue\n      dup1\n      iszero\n      tag_71\n      jumpi\n      0x00\n      dup1\n      revert\n    tag_71:\n      pop\n      tag_72\n      tag_73\n      jump\t// in\n    tag_72:\n      stop\n        /* \"contracts/Crowdfund.sol\":307:331  uint public raisedAmount */\n    tag_14:\n      callvalue\n      dup1\n      iszero\n      tag_74\n      jumpi\n      0x00\n      dup1\n      revert\n    tag_74:\n      pop\n      tag_75\n      tag_76\n      jump\t// in\n    tag_75:\n      mload(0x40)\n      tag_77\n      swap2\n      swap1\n      tag_24\n      jump\t// in\n    tag_77:\n      mload(0x40)\n      dup1\n      swap2\n      sub\n      swap1\n      return\n        /* \"contracts/Crowdfund.sol\":1394:1975  function contribute() public payable {... */\n    tag_15:\n      tag_78\n      tag_79\n      jump\t// in\n    tag_78:\n      stop\n        /* \"contracts/Crowdfund.sol\":145:165  address public admin */\n    tag_16:\n      callvalue\n      dup1\n      iszero\n      tag_80\n      jumpi\n      0x00\n      dup1\n      revert\n    tag_80:\n      pop\n      tag_81\n      tag_82\n      jump\t// in\n    tag_81:\n      mload(0x40)\n      tag_83\n      swap2\n      swap1\n      tag_84\n      jump\t// in\n    tag_83:\n      mload(0x40)\n      dup1\n      swap2\n      sub\n      swap1\n      return\n        /* \"contracts/Crowdfund.sol\":1989:2084  function getBalance() public view returns(uint) {... */\n    tag_22:\n        /* \"contracts/Crowdfund.sol\":2031:2035  uint */\n      0x00\n        /* \"contracts/Crowdfund.sol\":2055:2076  address(this).balance */\n      selfbalance\n        /* \"contracts/Crowdfund.sol\":2048:2076  return address(this).balance */\n      swap1\n      pop\n        /* \"contracts/Crowdfund.sol\":1989:2084  function getBalance() public view returns(uint) {... */\n      swap1\n      jump\t// out\n        /* \"contracts/Crowdfund.sol\":2794:3329  function createRequest(string calldata _description, address payable _recipient, uint _value) public onlyAdmin {... */\n    tag_29:\n        /* \"contracts/Crowdfund.sol\":1319:1324  admin */\n      0x01\n      0x00\n      swap1\n      sload\n      swap1\n      0x0100\n      exp\n      swap1\n      div\n      0xffffffffffffffffffffffffffffffffffffffff\n      and\n        /* \"contracts/Crowdfund.sol\":1305:1324  msg.sender == admin */\n      0xffffffffffffffffffffffffffffffffffffffff\n      and\n        /* \"contracts/Crowdfund.sol\":1305:1315  msg.sender */\n      caller\n        /* \"contracts/Crowdfund.sol\":1305:1324  msg.sender == admin */\n      0xffffffffffffffffffffffffffffffffffffffff\n      and\n      eq\n        /* \"contracts/Crowdfund.sol\":1297:1356  require(msg.sender == admin, \"Only admin can execute this\") */\n      tag_87\n      jumpi\n      mload(0x40)\n      0x08c379a000000000000000000000000000000000000000000000000000000000\n      dup2\n      mstore\n      0x04\n      add\n      tag_88\n      swap1\n      tag_89\n      jump\t// in\n    tag_88:\n      mload(0x40)\n      dup1\n      swap2\n      sub\n      swap1\n      revert\n    tag_87:\n        /* \"contracts/Crowdfund.sol\":2956:2982  Request storage newRequest */\n      0x00\n        /* \"contracts/Crowdfund.sol\":2985:2993  requests */\n      0x07\n        /* \"contracts/Crowdfund.sol\":2985:3006  requests[numRequests] */\n      0x00\n        /* \"contracts/Crowdfund.sol\":2994:3005  numRequests */\n      sload(0x08)\n        /* \"contracts/Crowdfund.sol\":2985:3006  requests[numRequests] */\n      dup2\n      mstore\n      0x20\n      add\n      swap1\n      dup2\n      mstore\n      0x20\n      add\n      0x00\n      keccak256\n        /* \"contracts/Crowdfund.sol\":2956:3006  Request storage newRequest = requests[numRequests] */\n      swap1\n      pop\n        /* \"contracts/Crowdfund.sol\":3017:3028  numRequests */\n      0x08\n      0x00\n        /* \"contracts/Crowdfund.sol\":3017:3030  numRequests++ */\n      dup2\n      sload\n      dup1\n      swap3\n      swap2\n      swap1\n      tag_91\n      swap1\n      tag_92\n      jump\t// in\n    tag_91:\n      swap2\n      swap1\n      pop\n      sstore\n      pop\n        /* \"contracts/Crowdfund.sol\":3076:3088  _description */\n      dup5\n      dup5\n        /* \"contracts/Crowdfund.sol\":3051:3061  newRequest */\n      dup3\n        /* \"contracts/Crowdfund.sol\":3051:3073  newRequest.description */\n      0x00\n      add\n        /* \"contracts/Crowdfund.sol\":3051:3088  newRequest.description = _description */\n      swap2\n      dup3\n      tag_93\n      swap3\n      swap2\n      swap1\n      tag_94\n      jump\t// in\n    tag_93:\n      pop\n        /* \"contracts/Crowdfund.sol\":3122:3132  _recipient */\n      dup3\n        /* \"contracts/Crowdfund.sol\":3099:3109  newRequest */\n      dup2\n        /* \"contracts/Crowdfund.sol\":3099:3119  newRequest.recipient */\n      0x01\n      add\n      0x00\n        /* \"contracts/Crowdfund.sol\":3099:3132  newRequest.recipient = _recipient */\n      0x0100\n      exp\n      dup2\n      sload\n      dup2\n      0xffffffffffffffffffffffffffffffffffffffff\n      mul\n      not\n      and\n      swap1\n      dup4\n      0xffffffffffffffffffffffffffffffffffffffff\n      and\n      mul\n      or\n      swap1\n      sstore\n      pop\n        /* \"contracts/Crowdfund.sol\":3162:3168  _value */\n      dup2\n        /* \"contracts/Crowdfund.sol\":3143:3153  newRequest */\n      dup2\n        /* \"contracts/Crowdfund.sol\":3143:3159  newRequest.value */\n      0x02\n      add\n        /* \"contracts/Crowdfund.sol\":3143:3168  newRequest.value = _value */\n      dup2\n      swap1\n      sstore\n      pop\n        /* \"contracts/Crowdfund.sol\":3202:3207  false */\n      0x00\n        /* \"contracts/Crowdfund.sol\":3179:3189  newRequest */\n      dup2\n        /* \"contracts/Crowdfund.sol\":3179:3199  newRequest.completed */\n      0x03\n      add\n      0x00\n        /* \"contracts/Crowdfund.sol\":3179:3207  newRequest.completed = false */\n      0x0100\n      exp\n      dup2\n      sload\n      dup2\n      0xff\n      mul\n      not\n      and\n      swap1\n      dup4\n      iszero\n      iszero\n      mul\n      or\n      swap1\n      sstore\n      pop\n        /* \"contracts/Crowdfund.sol\":3242:3243  0 */\n      0x00\n        /* \"contracts/Crowdfund.sol\":3218:3228  newRequest */\n      dup2\n        /* \"contracts/Crowdfund.sol\":3218:3239  newRequest.noOfVoters */\n      0x04\n      add\n        /* \"contracts/Crowdfund.sol\":3218:3243  newRequest.noOfVoters = 0 */\n      dup2\n      swap1\n      sstore\n      pop\n        /* \"contracts/Crowdfund.sol\":3269:3321  CreateRequestEvent(_description, _recipient, _value) */\n      0x5392bd80651676ccaaedec1afbe841d47e369223df0ba1586110b6426ee87a3a\n        /* \"contracts/Crowdfund.sol\":3288:3300  _description */\n      dup6\n      dup6\n        /* \"contracts/Crowdfund.sol\":3302:3312  _recipient */\n      dup6\n        /* \"contracts/Crowdfund.sol\":3314:3320  _value */\n      dup6\n        /* \"contracts/Crowdfund.sol\":3269:3321  CreateRequestEvent(_description, _recipient, _value) */\n      mload(0x40)\n      tag_95\n      swap5\n      swap4\n      swap3\n      swap2\n      swap1\n      tag_96\n      jump\t// in\n    tag_95:\n      mload(0x40)\n      dup1\n      swap2\n      sub\n      swap1\n      log1\n        /* \"contracts/Crowdfund.sol\":2905:3329  {... */\n      pop\n        /* \"contracts/Crowdfund.sol\":2794:3329  function createRequest(string calldata _description, address payable _recipient, uint _value) public onlyAdmin {... */\n      pop\n      pop\n      pop\n      pop\n      jump\t// out\n        /* \"contracts/Crowdfund.sol\":94:138  mapping(address => uint) public contributors */\n    tag_34:\n      mstore(0x20, 0x00)\n      dup1\n      0x00\n      mstore\n      keccak256(0x00, 0x40)\n      0x00\n      swap2\n      pop\n      swap1\n      pop\n      sload\n      dup2\n      jump\t// out\n        /* \"contracts/Crowdfund.sol\":245:265  uint public deadline */\n    tag_38:\n      sload(0x04)\n      dup2\n      jump\t// out\n        /* \"contracts/Crowdfund.sol\":284:300  uint public goal */\n    tag_42:\n      sload(0x05)\n      dup2\n      jump\t// out\n        /* \"contracts/Crowdfund.sol\":3347:3736  function voteRequest(uint _requestNo) public {... */\n    tag_48:\n        /* \"contracts/Crowdfund.sol\":3438:3439  0 */\n      0x00\n        /* \"contracts/Crowdfund.sol\":3411:3423  contributors */\n      dup1\n        /* \"contracts/Crowdfund.sol\":3411:3435  contributors[msg.sender] */\n      0x00\n        /* \"contracts/Crowdfund.sol\":3424:3434  msg.sender */\n      caller\n        /* \"contracts/Crowdfund.sol\":3411:3435  contributors[msg.sender] */\n      0xffffffffffffffffffffffffffffffffffffffff\n      and\n      0xffffffffffffffffffffffffffffffffffffffff\n      and\n      dup2\n      mstore\n      0x20\n      add\n      swap1\n      dup2\n      mstore\n      0x20\n      add\n      0x00\n      keccak256\n      sload\n        /* \"contracts/Crowdfund.sol\":3411:3439  contributors[msg.sender] > 0 */\n      gt\n        /* \"contracts/Crowdfund.sol\":3403:3478  require(contributors[msg.sender] > 0, \"You must be a contributor to vote!\") */\n      tag_98\n      jumpi\n      mload(0x40)\n      0x08c379a000000000000000000000000000000000000000000000000000000000\n      dup2\n      mstore\n      0x04\n      add\n      tag_99\n      swap1\n      tag_100\n      jump\t// in\n    tag_99:\n      mload(0x40)\n      dup1\n      swap2\n      sub\n      swap1\n      revert\n    tag_98:\n        /* \"contracts/Crowdfund.sol\":3499:3526  Request storage thisRequest */\n      0x00\n        /* \"contracts/Crowdfund.sol\":3529:3537  requests */\n      0x07\n        /* \"contracts/Crowdfund.sol\":3529:3549  requests[_requestNo] */\n      0x00\n        /* \"contracts/Crowdfund.sol\":3538:3548  _requestNo */\n      dup4\n        /* \"contracts/Crowdfund.sol\":3529:3549  requests[_requestNo] */\n      dup2\n      mstore\n      0x20\n      add\n      swap1\n      dup2\n      mstore\n      0x20\n      add\n      0x00\n      keccak256\n        /* \"contracts/Crowdfund.sol\":3499:3549  Request storage thisRequest = requests[_requestNo] */\n      swap1\n      pop\n        /* \"contracts/Crowdfund.sol\":3602:3607  false */\n      0x00\n        /* \"contracts/Crowdfund.sol\":3568:3607  thisRequest.voters[msg.sender] == false */\n      iszero\n      iszero\n        /* \"contracts/Crowdfund.sol\":3568:3579  thisRequest */\n      dup2\n        /* \"contracts/Crowdfund.sol\":3568:3586  thisRequest.voters */\n      0x05\n      add\n        /* \"contracts/Crowdfund.sol\":3568:3598  thisRequest.voters[msg.sender] */\n      0x00\n        /* \"contracts/Crowdfund.sol\":3587:3597  msg.sender */\n      caller\n        /* \"contracts/Crowdfund.sol\":3568:3598  thisRequest.voters[msg.sender] */\n      0xffffffffffffffffffffffffffffffffffffffff\n      and\n      0xffffffffffffffffffffffffffffffffffffffff\n      and\n      dup2\n      mstore\n      0x20\n      add\n      swap1\n      dup2\n      mstore\n      0x20\n      add\n      0x00\n      keccak256\n      0x00\n      swap1\n      sload\n      swap1\n      0x0100\n      exp\n      swap1\n      div\n      0xff\n      and\n        /* \"contracts/Crowdfund.sol\":3568:3607  thisRequest.voters[msg.sender] == false */\n      iszero\n      iszero\n      eq\n        /* \"contracts/Crowdfund.sol\":3560:3635  require(thisRequest.voters[msg.sender] == false, \"You have already voted!\") */\n      tag_101\n      jumpi\n      mload(0x40)\n      0x08c379a000000000000000000000000000000000000000000000000000000000\n      dup2\n      mstore\n      0x04\n      add\n      tag_102\n      swap1\n      tag_103\n      jump\t// in\n    tag_102:\n      mload(0x40)\n      dup1\n      swap2\n      sub\n      swap1\n      revert\n    tag_101:\n        /* \"contracts/Crowdfund.sol\":3689:3693  true */\n      0x01\n        /* \"contracts/Crowdfund.sol\":3656:3667  thisRequest */\n      dup2\n        /* \"contracts/Crowdfund.sol\":3656:3674  thisRequest.voters */\n      0x05\n      add\n        /* \"contracts/Crowdfund.sol\":3656:3686  thisRequest.voters[msg.sender] */\n      0x00\n        /* \"contracts/Crowdfund.sol\":3675:3685  msg.sender */\n      caller\n        /* \"contracts/Crowdfund.sol\":3656:3686  thisRequest.voters[msg.sender] */\n      0xffffffffffffffffffffffffffffffffffffffff\n      and\n      0xffffffffffffffffffffffffffffffffffffffff\n      and\n      dup2\n      mstore\n      0x20\n      add\n      swap1\n      dup2\n      mstore\n      0x20\n      add\n      0x00\n      keccak256\n      0x00\n        /* \"contracts/Crowdfund.sol\":3656:3693  thisRequest.voters[msg.sender] = true */\n      0x0100\n      exp\n      dup2\n      sload\n      dup2\n      0xff\n      mul\n      not\n      and\n      swap1\n      dup4\n      iszero\n      iszero\n      mul\n      or\n      swap1\n      sstore\n      pop\n        /* \"contracts/Crowdfund.sol\":3704:3715  thisRequest */\n      dup1\n        /* \"contracts/Crowdfund.sol\":3704:3726  thisRequest.noOfVoters */\n      0x04\n      add\n      0x00\n        /* \"contracts/Crowdfund.sol\":3704:3728  thisRequest.noOfVoters++ */\n      dup2\n      sload\n      dup1\n      swap3\n      swap2\n      swap1\n      tag_104\n      swap1\n      tag_92\n      jump\t// in\n    tag_104:\n      swap2\n      swap1\n      pop\n      sstore\n      pop\n        /* \"contracts/Crowdfund.sol\":3392:3736  {... */\n      pop\n        /* \"contracts/Crowdfund.sol\":3347:3736  function voteRequest(uint _requestNo) public {... */\n      pop\n      jump\t// out\n        /* \"contracts/Crowdfund.sol\":172:200  uint public noOfContributors */\n    tag_51:\n      sload(0x02)\n      dup2\n      jump\t// out\n        /* \"contracts/Crowdfund.sol\":3754:4372  function makePayment(uint _requestNo) public onlyAdmin {... */\n    tag_56:\n        /* \"contracts/Crowdfund.sol\":1319:1324  admin */\n      0x01\n      0x00\n      swap1\n      sload\n      swap1\n      0x0100\n      exp\n      swap1\n      div\n      0xffffffffffffffffffffffffffffffffffffffff\n      and\n        /* \"contracts/Crowdfund.sol\":1305:1324  msg.sender == admin */\n      0xffffffffffffffffffffffffffffffffffffffff\n      and\n        /* \"contracts/Crowdfund.sol\":1305:1315  msg.sender */\n      caller\n        /* \"contracts/Crowdfund.sol\":1305:1324  msg.sender == admin */\n      0xffffffffffffffffffffffffffffffffffffffff\n      and\n      eq\n        /* \"contracts/Crowdfund.sol\":1297:1356  require(msg.sender == admin, \"Only admin can execute this\") */\n      tag_106\n      jumpi\n      mload(0x40)\n      0x08c379a000000000000000000000000000000000000000000000000000000000\n      dup2\n      mstore\n      0x04\n      add\n      tag_107\n      swap1\n      tag_89\n      jump\t// in\n    tag_107:\n      mload(0x40)\n      dup1\n      swap2\n      sub\n      swap1\n      revert\n    tag_106:\n        /* \"contracts/Crowdfund.sol\":3820:3847  Request storage thisRequest */\n      0x00\n        /* \"contracts/Crowdfund.sol\":3850:3858  requests */\n      0x07\n        /* \"contracts/Crowdfund.sol\":3850:3870  requests[_requestNo] */\n      0x00\n        /* \"contracts/Crowdfund.sol\":3859:3869  _requestNo */\n      dup4\n        /* \"contracts/Crowdfund.sol\":3850:3870  requests[_requestNo] */\n      dup2\n      mstore\n      0x20\n      add\n      swap1\n      dup2\n      mstore\n      0x20\n      add\n      0x00\n      keccak256\n        /* \"contracts/Crowdfund.sol\":3820:3870  Request storage thisRequest = requests[_requestNo] */\n      swap1\n      pop\n        /* \"contracts/Crowdfund.sol\":3914:3919  false */\n      0x00\n        /* \"contracts/Crowdfund.sol\":3889:3919  thisRequest.completed == false */\n      iszero\n      iszero\n        /* \"contracts/Crowdfund.sol\":3889:3900  thisRequest */\n      dup2\n        /* \"contracts/Crowdfund.sol\":3889:3910  thisRequest.completed */\n      0x03\n      add\n      0x00\n      swap1\n      sload\n      swap1\n      0x0100\n      exp\n      swap1\n      div\n      0xff\n      and\n        /* \"contracts/Crowdfund.sol\":3889:3919  thisRequest.completed == false */\n      iszero\n      iszero\n      eq\n        /* \"contracts/Crowdfund.sol\":3881:3963  require(thisRequest.completed == false, \"The request has been already completed!\") */\n      tag_109\n      jumpi\n      mload(0x40)\n      0x08c379a000000000000000000000000000000000000000000000000000000000\n      dup2\n      mstore\n      0x04\n      add\n      tag_110\n      swap1\n      tag_111\n      jump\t// in\n    tag_110:\n      mload(0x40)\n      dup1\n      swap2\n      sub\n      swap1\n      revert\n    tag_109:\n        /* \"contracts/Crowdfund.sol\":4036:4037  2 */\n      0x02\n        /* \"contracts/Crowdfund.sol\":4017:4033  noOfContributors */\n      dup1\n      sload\n        /* \"contracts/Crowdfund.sol\":4017:4037  noOfContributors / 2 */\n      tag_112\n      swap2\n      swap1\n      tag_113\n      jump\t// in\n    tag_112:\n        /* \"contracts/Crowdfund.sol\":3992:4003  thisRequest */\n      dup2\n        /* \"contracts/Crowdfund.sol\":3992:4014  thisRequest.noOfVoters */\n      0x04\n      add\n      sload\n        /* \"contracts/Crowdfund.sol\":3992:4037  thisRequest.noOfVoters > noOfContributors / 2 */\n      gt\n        /* \"contracts/Crowdfund.sol\":3984:4094  require(thisRequest.noOfVoters > noOfContributors / 2, \"The request needs more than 50% of the contributors.\") */\n      tag_114\n      jumpi\n      mload(0x40)\n      0x08c379a000000000000000000000000000000000000000000000000000000000\n      dup2\n      mstore\n      0x04\n      add\n      tag_115\n      swap1\n      tag_116\n      jump\t// in\n    tag_115:\n      mload(0x40)\n      dup1\n      swap2\n      sub\n      swap1\n      revert\n    tag_114:\n        /* \"contracts/Crowdfund.sol\":4216:4220  true */\n      0x01\n        /* \"contracts/Crowdfund.sol\":4192:4203  thisRequest */\n      dup2\n        /* \"contracts/Crowdfund.sol\":4192:4213  thisRequest.completed */\n      0x03\n      add\n      0x00\n        /* \"contracts/Crowdfund.sol\":4192:4220  thisRequest.completed = true */\n      0x0100\n      exp\n      dup2\n      sload\n      dup2\n      0xff\n      mul\n      not\n      and\n      swap1\n      dup4\n      iszero\n      iszero\n      mul\n      or\n      swap1\n      sstore\n      pop\n        /* \"contracts/Crowdfund.sol\":4231:4242  thisRequest */\n      dup1\n        /* \"contracts/Crowdfund.sol\":4231:4252  thisRequest.recipient */\n      0x01\n      add\n      0x00\n      swap1\n      sload\n      swap1\n      0x0100\n      exp\n      swap1\n      div\n      0xffffffffffffffffffffffffffffffffffffffff\n      and\n        /* \"contracts/Crowdfund.sol\":4231:4261  thisRequest.recipient.transfer */\n      0xffffffffffffffffffffffffffffffffffffffff\n      and\n        /* \"contracts/Crowdfund.sol\":4231:4280  thisRequest.recipient.transfer(thisRequest.value) */\n      0x08fc\n        /* \"contracts/Crowdfund.sol\":4262:4273  thisRequest */\n      dup3\n        /* \"contracts/Crowdfund.sol\":4262:4279  thisRequest.value */\n      0x02\n      add\n      sload\n        /* \"contracts/Crowdfund.sol\":4231:4280  thisRequest.recipient.transfer(thisRequest.value) */\n      swap1\n      dup2\n      iszero\n      mul\n      swap1\n      mload(0x40)\n      0x00\n      mload(0x40)\n      dup1\n      dup4\n      sub\n      dup2\n      dup6\n      dup9\n      dup9\n      call\n      swap4\n      pop\n      pop\n      pop\n      pop\n      iszero\n      dup1\n      iszero\n      tag_118\n      jumpi\n      returndatasize\n      0x00\n      dup1\n      returndatacopy\n      revert(0x00, returndatasize)\n    tag_118:\n      pop\n        /* \"contracts/Crowdfund.sol\":4306:4364  MakePaymentEvent(thisRequest.recipient, thisRequest.value) */\n      0x516e1673e5e85c44620165259173329adda2ad25e7bb15020c732be060b5b790\n        /* \"contracts/Crowdfund.sol\":4323:4334  thisRequest */\n      dup2\n        /* \"contracts/Crowdfund.sol\":4323:4344  thisRequest.recipient */\n      0x01\n      add\n      0x00\n      swap1\n      sload\n      swap1\n      0x0100\n      exp\n      swap1\n      div\n      0xffffffffffffffffffffffffffffffffffffffff\n      and\n        /* \"contracts/Crowdfund.sol\":4346:4357  thisRequest */\n      dup3\n        /* \"contracts/Crowdfund.sol\":4346:4363  thisRequest.value */\n      0x02\n      add\n      sload\n        /* \"contracts/Crowdfund.sol\":4306:4364  MakePaymentEvent(thisRequest.recipient, thisRequest.value) */\n      mload(0x40)\n      tag_119\n      swap3\n      swap2\n      swap1\n      tag_120\n      jump\t// in\n    tag_119:\n      mload(0x40)\n      dup1\n      swap2\n      sub\n      swap1\n      log1\n        /* \"contracts/Crowdfund.sol\":3809:4372  {... */\n      pop\n        /* \"contracts/Crowdfund.sol\":3754:4372  function makePayment(uint _requestNo) public onlyAdmin {... */\n      pop\n      jump\t// out\n        /* \"contracts/Crowdfund.sol\":736:776  mapping(uint => Request) public requests */\n    tag_60:\n      mstore(0x20, 0x07)\n      dup1\n      0x00\n      mstore\n      keccak256(0x00, 0x40)\n      0x00\n      swap2\n      pop\n      swap1\n      pop\n      dup1\n      0x00\n      add\n      dup1\n      sload\n      tag_121\n      swap1\n      tag_122\n      jump\t// in\n    tag_121:\n      dup1\n      0x1f\n      add\n      0x20\n      dup1\n      swap2\n      div\n      mul\n      0x20\n      add\n      mload(0x40)\n      swap1\n      dup2\n      add\n      0x40\n      mstore\n      dup1\n      swap3\n      swap2\n      swap1\n      dup2\n      dup2\n      mstore\n      0x20\n      add\n      dup3\n      dup1\n      sload\n      tag_123\n      swap1\n      tag_122\n      jump\t// in\n    tag_123:\n      dup1\n      iszero\n      tag_124\n      jumpi\n      dup1\n      0x1f\n      lt\n      tag_125\n      jumpi\n      0x0100\n      dup1\n      dup4\n      sload\n      div\n      mul\n      dup4\n      mstore\n      swap2\n      0x20\n      add\n      swap2\n      jump(tag_124)\n    tag_125:\n      dup3\n      add\n      swap2\n      swap1\n      0x00\n      mstore\n      keccak256(0x00, 0x20)\n      swap1\n    tag_126:\n      dup2\n      sload\n      dup2\n      mstore\n      swap1\n      0x01\n      add\n      swap1\n      0x20\n      add\n      dup1\n      dup4\n      gt\n      tag_126\n      jumpi\n      dup3\n      swap1\n      sub\n      0x1f\n      and\n      dup3\n      add\n      swap2\n    tag_124:\n      pop\n      pop\n      pop\n      pop\n      pop\n      swap1\n      dup1\n      0x01\n      add\n      0x00\n      swap1\n      sload\n      swap1\n      0x0100\n      exp\n      swap1\n      div\n      0xffffffffffffffffffffffffffffffffffffffff\n      and\n      swap1\n      dup1\n      0x02\n      add\n      sload\n      swap1\n      dup1\n      0x03\n      add\n      0x00\n      swap1\n      sload\n      swap1\n      0x0100\n      exp\n      swap1\n      div\n      0xff\n      and\n      swap1\n      dup1\n      0x04\n      add\n      sload\n      swap1\n      pop\n      dup6\n      jump\t// out\n        /* \"contracts/Crowdfund.sol\":207:238  uint public minimumContribution */\n    tag_65:\n      sload(0x03)\n      dup2\n      jump\t// out\n        /* \"contracts/Crowdfund.sol\":783:806  uint public numRequests */\n    tag_69:\n      sload(0x08)\n      dup2\n      jump\t// out\n        /* \"contracts/Crowdfund.sol\":2179:2776  function getRefund() public {... */\n    tag_73:\n        /* \"contracts/Crowdfund.sol\":2244:2252  deadline */\n      sload(0x04)\n        /* \"contracts/Crowdfund.sol\":2226:2241  block.timestamp */\n      timestamp\n        /* \"contracts/Crowdfund.sol\":2226:2252  block.timestamp > deadline */\n      gt\n        /* \"contracts/Crowdfund.sol\":2218:2281  require(block.timestamp > deadline, \"Deadline has not passed.\") */\n      tag_128\n      jumpi\n      mload(0x40)\n      0x08c379a000000000000000000000000000000000000000000000000000000000\n      dup2\n      mstore\n      0x04\n      add\n      tag_129\n      swap1\n      tag_130\n      jump\t// in\n    tag_129:\n      mload(0x40)\n      dup1\n      swap2\n      sub\n      swap1\n      revert\n    tag_128:\n        /* \"contracts/Crowdfund.sol\":2315:2319  goal */\n      sload(0x05)\n        /* \"contracts/Crowdfund.sol\":2300:2312  raisedAmount */\n      sload(0x06)\n        /* \"contracts/Crowdfund.sol\":2300:2319  raisedAmount < goal */\n      lt\n        /* \"contracts/Crowdfund.sol\":2292:2340  require(raisedAmount < goal, \"The goal was met\") */\n      tag_131\n      jumpi\n      mload(0x40)\n      0x08c379a000000000000000000000000000000000000000000000000000000000\n      dup2\n      mstore\n      0x04\n      add\n      tag_132\n      swap1\n      tag_133\n      jump\t// in\n    tag_132:\n      mload(0x40)\n      dup1\n      swap2\n      sub\n      swap1\n      revert\n    tag_131:\n        /* \"contracts/Crowdfund.sol\":2386:2387  0 */\n      0x00\n        /* \"contracts/Crowdfund.sol\":2359:2371  contributors */\n      dup1\n        /* \"contracts/Crowdfund.sol\":2359:2383  contributors[msg.sender] */\n      0x00\n        /* \"contracts/Crowdfund.sol\":2372:2382  msg.sender */\n      caller\n        /* \"contracts/Crowdfund.sol\":2359:2383  contributors[msg.sender] */\n      0xffffffffffffffffffffffffffffffffffffffff\n      and\n      0xffffffffffffffffffffffffffffffffffffffff\n      and\n      dup2\n      mstore\n      0x20\n      add\n      swap1\n      dup2\n      mstore\n      0x20\n      add\n      0x00\n      keccak256\n      sload\n        /* \"contracts/Crowdfund.sol\":2359:2387  contributors[msg.sender] > 0 */\n      gt\n        /* \"contracts/Crowdfund.sol\":2351:2388  require(contributors[msg.sender] > 0) */\n      tag_134\n      jumpi\n      0x00\n      dup1\n      revert\n    tag_134:\n        /* \"contracts/Crowdfund.sol\":2409:2434  address payable recipient */\n      0x00\n        /* \"contracts/Crowdfund.sol\":2445:2455  msg.sender */\n      caller\n        /* \"contracts/Crowdfund.sol\":2409:2456  address payable recipient = payable(msg.sender) */\n      swap1\n      pop\n        /* \"contracts/Crowdfund.sol\":2467:2477  uint value */\n      0x00\n        /* \"contracts/Crowdfund.sol\":2480:2492  contributors */\n      dup1\n        /* \"contracts/Crowdfund.sol\":2480:2504  contributors[msg.sender] */\n      0x00\n        /* \"contracts/Crowdfund.sol\":2493:2503  msg.sender */\n      caller\n        /* \"contracts/Crowdfund.sol\":2480:2504  contributors[msg.sender] */\n      0xffffffffffffffffffffffffffffffffffffffff\n      and\n      0xffffffffffffffffffffffffffffffffffffffff\n      and\n      dup2\n      mstore\n      0x20\n      add\n      swap1\n      dup2\n      mstore\n      0x20\n      add\n      0x00\n      keccak256\n      sload\n        /* \"contracts/Crowdfund.sol\":2467:2504  uint value = contributors[msg.sender] */\n      swap1\n      pop\n        /* \"contracts/Crowdfund.sol\":2634:2635  0 */\n      0x00\n        /* \"contracts/Crowdfund.sol\":2607:2619  contributors */\n      dup1\n        /* \"contracts/Crowdfund.sol\":2607:2631  contributors[msg.sender] */\n      0x00\n        /* \"contracts/Crowdfund.sol\":2620:2630  msg.sender */\n      caller\n        /* \"contracts/Crowdfund.sol\":2607:2631  contributors[msg.sender] */\n      0xffffffffffffffffffffffffffffffffffffffff\n      and\n      0xffffffffffffffffffffffffffffffffffffffff\n      and\n      dup2\n      mstore\n      0x20\n      add\n      swap1\n      dup2\n      mstore\n      0x20\n      add\n      0x00\n      keccak256\n        /* \"contracts/Crowdfund.sol\":2607:2635  contributors[msg.sender] = 0 */\n      dup2\n      swap1\n      sstore\n      pop\n        /* \"contracts/Crowdfund.sol\":2648:2657  recipient */\n      dup2\n        /* \"contracts/Crowdfund.sol\":2648:2666  recipient.transfer */\n      0xffffffffffffffffffffffffffffffffffffffff\n      and\n        /* \"contracts/Crowdfund.sol\":2648:2673  recipient.transfer(value) */\n      0x08fc\n        /* \"contracts/Crowdfund.sol\":2667:2672  value */\n      dup3\n        /* \"contracts/Crowdfund.sol\":2648:2673  recipient.transfer(value) */\n      swap1\n      dup2\n      iszero\n      mul\n      swap1\n      mload(0x40)\n      0x00\n      mload(0x40)\n      dup1\n      dup4\n      sub\n      dup2\n      dup6\n      dup9\n      dup9\n      call\n      swap4\n      pop\n      pop\n      pop\n      pop\n      iszero\n      dup1\n      iszero\n      tag_136\n      jumpi\n      returndatasize\n      0x00\n      dup1\n      returndatacopy\n      revert(0x00, returndatasize)\n    tag_136:\n      pop\n        /* \"contracts/Crowdfund.sol\":2207:2776  {... */\n      pop\n      pop\n        /* \"contracts/Crowdfund.sol\":2179:2776  function getRefund() public {... */\n      jump\t// out\n        /* \"contracts/Crowdfund.sol\":307:331  uint public raisedAmount */\n    tag_76:\n      sload(0x06)\n      dup2\n      jump\t// out\n        /* \"contracts/Crowdfund.sol\":1394:1975  function contribute() public payable {... */\n    tag_79:\n        /* \"contracts/Crowdfund.sol\":1468:1476  deadline */\n      sload(0x04)\n        /* \"contracts/Crowdfund.sol\":1450:1465  block.timestamp */\n      timestamp\n        /* \"contracts/Crowdfund.sol\":1450:1476  block.timestamp < deadline */\n      lt\n        /* \"contracts/Crowdfund.sol\":1442:1505  require(block.timestamp < deadline, \"The Deadline has passed!\") */\n      tag_138\n      jumpi\n      mload(0x40)\n      0x08c379a000000000000000000000000000000000000000000000000000000000\n      dup2\n      mstore\n      0x04\n      add\n      tag_139\n      swap1\n      tag_140\n      jump\t// in\n    tag_139:\n      mload(0x40)\n      dup1\n      swap2\n      sub\n      swap1\n      revert\n    tag_138:\n        /* \"contracts/Crowdfund.sol\":1537:1556  minimumContribution */\n      sload(0x03)\n        /* \"contracts/Crowdfund.sol\":1524:1533  msg.value */\n      callvalue\n        /* \"contracts/Crowdfund.sol\":1524:1556  msg.value >= minimumContribution */\n      lt\n      iszero\n        /* \"contracts/Crowdfund.sol\":1516:1594  require(msg.value >= minimumContribution, \"The Minimum Contribution not met!\") */\n      tag_141\n      jumpi\n      mload(0x40)\n      0x08c379a000000000000000000000000000000000000000000000000000000000\n      dup2\n      mstore\n      0x04\n      add\n      tag_142\n      swap1\n      tag_143\n      jump\t// in\n    tag_142:\n      mload(0x40)\n      dup1\n      swap2\n      sub\n      swap1\n      revert\n    tag_141:\n        /* \"contracts/Crowdfund.sol\":1762:1763  0 */\n      0x00\n        /* \"contracts/Crowdfund.sol\":1734:1746  contributors */\n      dup1\n        /* \"contracts/Crowdfund.sol\":1734:1758  contributors[msg.sender] */\n      0x00\n        /* \"contracts/Crowdfund.sol\":1747:1757  msg.sender */\n      caller\n        /* \"contracts/Crowdfund.sol\":1734:1758  contributors[msg.sender] */\n      0xffffffffffffffffffffffffffffffffffffffff\n      and\n      0xffffffffffffffffffffffffffffffffffffffff\n      and\n      dup2\n      mstore\n      0x20\n      add\n      swap1\n      dup2\n      mstore\n      0x20\n      add\n      0x00\n      keccak256\n      sload\n        /* \"contracts/Crowdfund.sol\":1734:1763  contributors[msg.sender] == 0 */\n      sub\n        /* \"contracts/Crowdfund.sol\":1731:1810  if(contributors[msg.sender] == 0) {... */\n      tag_144\n      jumpi\n        /* \"contracts/Crowdfund.sol\":1780:1796  noOfContributors */\n      0x02\n      0x00\n        /* \"contracts/Crowdfund.sol\":1780:1798  noOfContributors++ */\n      dup2\n      sload\n      dup1\n      swap3\n      swap2\n      swap1\n      tag_145\n      swap1\n      tag_92\n      jump\t// in\n    tag_145:\n      swap2\n      swap1\n      pop\n      sstore\n      pop\n        /* \"contracts/Crowdfund.sol\":1731:1810  if(contributors[msg.sender] == 0) {... */\n    tag_144:\n        /* \"contracts/Crowdfund.sol\":1858:1867  msg.value */\n      callvalue\n        /* \"contracts/Crowdfund.sol\":1830:1842  contributors */\n      0x00\n        /* \"contracts/Crowdfund.sol\":1830:1854  contributors[msg.sender] */\n      dup1\n        /* \"contracts/Crowdfund.sol\":1843:1853  msg.sender */\n      caller\n        /* \"contracts/Crowdfund.sol\":1830:1854  contributors[msg.sender] */\n      0xffffffffffffffffffffffffffffffffffffffff\n      and\n      0xffffffffffffffffffffffffffffffffffffffff\n      and\n      dup2\n      mstore\n      0x20\n      add\n      swap1\n      dup2\n      mstore\n      0x20\n      add\n      0x00\n      keccak256\n      0x00\n        /* \"contracts/Crowdfund.sol\":1830:1867  contributors[msg.sender] += msg.value */\n      dup3\n      dup3\n      sload\n      tag_146\n      swap2\n      swap1\n      tag_147\n      jump\t// in\n    tag_146:\n      swap3\n      pop\n      pop\n      dup2\n      swap1\n      sstore\n      pop\n        /* \"contracts/Crowdfund.sol\":1894:1903  msg.value */\n      callvalue\n        /* \"contracts/Crowdfund.sol\":1878:1890  raisedAmount */\n      0x06\n      0x00\n        /* \"contracts/Crowdfund.sol\":1878:1903  raisedAmount += msg.value */\n      dup3\n      dup3\n      sload\n      tag_148\n      swap2\n      swap1\n      tag_147\n      jump\t// in\n    tag_148:\n      swap3\n      pop\n      pop\n      dup2\n      swap1\n      sstore\n      pop\n        /* \"contracts/Crowdfund.sol\":1929:1967  ContributeEvent(msg.sender, msg.value) */\n      0x2daf61dec57a2c194e9e87958b1a40a5c236b5e8c6041655d664ddbd16c29320\n        /* \"contracts/Crowdfund.sol\":1945:1955  msg.sender */\n      caller\n        /* \"contracts/Crowdfund.sol\":1957:1966  msg.value */\n      callvalue\n        /* \"contracts/Crowdfund.sol\":1929:1967  ContributeEvent(msg.sender, msg.value) */\n      mload(0x40)\n      tag_149\n      swap3\n      swap2\n      swap1\n      tag_150\n      jump\t// in\n    tag_149:\n      mload(0x40)\n      dup1\n      swap2\n      sub\n      swap1\n      log1\n        /* \"contracts/Crowdfund.sol\":1394:1975  function contribute() public payable {... */\n      jump\t// out\n        /* \"contracts/Crowdfund.sol\":145:165  address public admin */\n    tag_82:\n      0x01\n      0x00\n      swap1\n      sload\n      swap1\n      0x0100\n      exp\n      swap1\n      div\n      0xffffffffffffffffffffffffffffffffffffffff\n      and\n      dup2\n      jump\t// out\n        /* \"#utility.yul\":7:84   */\n    tag_151:\n        /* \"#utility.yul\":44:51   */\n      0x00\n        /* \"#utility.yul\":73:78   */\n      dup2\n        /* \"#utility.yul\":62:78   */\n      swap1\n      pop\n        /* \"#utility.yul\":7:84   */\n      swap2\n      swap1\n      pop\n      jump\t// out\n        /* \"#utility.yul\":90:208   */\n    tag_152:\n        /* \"#utility.yul\":177:201   */\n      tag_225\n        /* \"#utility.yul\":195:200   */\n      dup2\n        /* \"#utility.yul\":177:201   */\n      tag_151\n      jump\t// in\n    tag_225:\n        /* \"#utility.yul\":172:175   */\n      dup3\n        /* \"#utility.yul\":165:202   */\n      mstore\n        /* \"#utility.yul\":90:208   */\n      pop\n      pop\n      jump\t// out\n        /* \"#utility.yul\":214:436   */\n    tag_24:\n        /* \"#utility.yul\":307:311   */\n      0x00\n        /* \"#utility.yul\":345:347   */\n      0x20\n        /* \"#utility.yul\":334:343   */\n      dup3\n        /* \"#utility.yul\":330:348   */\n      add\n        /* \"#utility.yul\":322:348   */\n      swap1\n      pop\n        /* \"#utility.yul\":358:429   */\n      tag_227\n        /* \"#utility.yul\":426:427   */\n      0x00\n        /* \"#utility.yul\":415:424   */\n      dup4\n        /* \"#utility.yul\":411:428   */\n      add\n        /* \"#utility.yul\":402:408   */\n      dup5\n        /* \"#utility.yul\":358:429   */\n      tag_152\n      jump\t// in\n    tag_227:\n        /* \"#utility.yul\":214:436   */\n      swap3\n      swap2\n      pop\n      pop\n      jump\t// out\n        /* \"#utility.yul\":523:640   */\n    tag_154:\n        /* \"#utility.yul\":632:633   */\n      0x00\n        /* \"#utility.yul\":629:630   */\n      dup1\n        /* \"#utility.yul\":622:634   */\n      revert\n        /* \"#utility.yul\":646:763   */\n    tag_155:\n        /* \"#utility.yul\":755:756   */\n      0x00\n        /* \"#utility.yul\":752:753   */\n      dup1\n        /* \"#utility.yul\":745:757   */\n      revert\n        /* \"#utility.yul\":769:886   */\n    tag_156:\n        /* \"#utility.yul\":878:879   */\n      0x00\n        /* \"#utility.yul\":875:876   */\n      dup1\n        /* \"#utility.yul\":868:880   */\n      revert\n        /* \"#utility.yul\":892:1009   */\n    tag_157:\n        /* \"#utility.yul\":1001:1002   */\n      0x00\n        /* \"#utility.yul\":998:999   */\n      dup1\n        /* \"#utility.yul\":991:1003   */\n      revert\n        /* \"#utility.yul\":1015:1132   */\n    tag_158:\n        /* \"#utility.yul\":1124:1125   */\n      0x00\n        /* \"#utility.yul\":1121:1122   */\n      dup1\n        /* \"#utility.yul\":1114:1126   */\n      revert\n        /* \"#utility.yul\":1152:1705   */\n    tag_159:\n        /* \"#utility.yul\":1210:1218   */\n      0x00\n        /* \"#utility.yul\":1220:1226   */\n      dup1\n        /* \"#utility.yul\":1270:1273   */\n      dup4\n        /* \"#utility.yul\":1263:1267   */\n      0x1f\n        /* \"#utility.yul\":1255:1261   */\n      dup5\n        /* \"#utility.yul\":1251:1268   */\n      add\n        /* \"#utility.yul\":1247:1274   */\n      slt\n        /* \"#utility.yul\":1237:1359   */\n      tag_235\n      jumpi\n        /* \"#utility.yul\":1278:1357   */\n      tag_236\n      tag_156\n      jump\t// in\n    tag_236:\n        /* \"#utility.yul\":1237:1359   */\n    tag_235:\n        /* \"#utility.yul\":1391:1397   */\n      dup3\n        /* \"#utility.yul\":1378:1398   */\n      calldataload\n        /* \"#utility.yul\":1368:1398   */\n      swap1\n      pop\n        /* \"#utility.yul\":1421:1439   */\n      0xffffffffffffffff\n        /* \"#utility.yul\":1413:1419   */\n      dup2\n        /* \"#utility.yul\":1410:1440   */\n      gt\n        /* \"#utility.yul\":1407:1524   */\n      iszero\n      tag_237\n      jumpi\n        /* \"#utility.yul\":1443:1522   */\n      tag_238\n      tag_157\n      jump\t// in\n    tag_238:\n        /* \"#utility.yul\":1407:1524   */\n    tag_237:\n        /* \"#utility.yul\":1557:1561   */\n      0x20\n        /* \"#utility.yul\":1549:1555   */\n      dup4\n        /* \"#utility.yul\":1545:1562   */\n      add\n        /* \"#utility.yul\":1533:1562   */\n      swap2\n      pop\n        /* \"#utility.yul\":1611:1614   */\n      dup4\n        /* \"#utility.yul\":1603:1607   */\n      0x01\n        /* \"#utility.yul\":1595:1601   */\n      dup3\n        /* \"#utility.yul\":1591:1608   */\n      mul\n        /* \"#utility.yul\":1581:1589   */\n      dup4\n        /* \"#utility.yul\":1577:1609   */\n      add\n        /* \"#utility.yul\":1574:1615   */\n      gt\n        /* \"#utility.yul\":1571:1699   */\n      iszero\n      tag_239\n      jumpi\n        /* \"#utility.yul\":1618:1697   */\n      tag_240\n      tag_158\n      jump\t// in\n    tag_240:\n        /* \"#utility.yul\":1571:1699   */\n    tag_239:\n        /* \"#utility.yul\":1152:1705   */\n      swap3\n      pop\n      swap3\n      swap1\n      pop\n      jump\t// out\n        /* \"#utility.yul\":1711:1837   */\n    tag_160:\n        /* \"#utility.yul\":1748:1755   */\n      0x00\n        /* \"#utility.yul\":1788:1830   */\n      0xffffffffffffffffffffffffffffffffffffffff\n        /* \"#utility.yul\":1781:1786   */\n      dup3\n        /* \"#utility.yul\":1777:1831   */\n      and\n        /* \"#utility.yul\":1766:1831   */\n      swap1\n      pop\n        /* \"#utility.yul\":1711:1837   */\n      swap2\n      swap1\n      pop\n      jump\t// out\n        /* \"#utility.yul\":1843:1947   */\n    tag_161:\n        /* \"#utility.yul\":1888:1895   */\n      0x00\n        /* \"#utility.yul\":1917:1941   */\n      tag_243\n        /* \"#utility.yul\":1935:1940   */\n      dup3\n        /* \"#utility.yul\":1917:1941   */\n      tag_160\n      jump\t// in\n    tag_243:\n        /* \"#utility.yul\":1906:1941   */\n      swap1\n      pop\n        /* \"#utility.yul\":1843:1947   */\n      swap2\n      swap1\n      pop\n      jump\t// out\n        /* \"#utility.yul\":1953:2091   */\n    tag_162:\n        /* \"#utility.yul\":2034:2066   */\n      tag_245\n        /* \"#utility.yul\":2060:2065   */\n      dup2\n        /* \"#utility.yul\":2034:2066   */\n      tag_161\n      jump\t// in\n    tag_245:\n        /* \"#utility.yul\":2027:2032   */\n      dup2\n        /* \"#utility.yul\":2024:2067   */\n      eq\n        /* \"#utility.yul\":2014:2085   */\n      tag_246\n      jumpi\n        /* \"#utility.yul\":2081:2082   */\n      0x00\n        /* \"#utility.yul\":2078:2079   */\n      dup1\n        /* \"#utility.yul\":2071:2083   */\n      revert\n        /* \"#utility.yul\":2014:2085   */\n    tag_246:\n        /* \"#utility.yul\":1953:2091   */\n      pop\n      jump\t// out\n        /* \"#utility.yul\":2097:2252   */\n    tag_163:\n        /* \"#utility.yul\":2151:2156   */\n      0x00\n        /* \"#utility.yul\":2189:2195   */\n      dup2\n        /* \"#utility.yul\":2176:2196   */\n      calldataload\n        /* \"#utility.yul\":2167:2196   */\n      swap1\n      pop\n        /* \"#utility.yul\":2205:2246   */\n      tag_248\n        /* \"#utility.yul\":2240:2245   */\n      dup2\n        /* \"#utility.yul\":2205:2246   */\n      tag_162\n      jump\t// in\n    tag_248:\n        /* \"#utility.yul\":2097:2252   */\n      swap3\n      swap2\n      pop\n      pop\n      jump\t// out\n        /* \"#utility.yul\":2258:2380   */\n    tag_164:\n        /* \"#utility.yul\":2331:2355   */\n      tag_250\n        /* \"#utility.yul\":2349:2354   */\n      dup2\n        /* \"#utility.yul\":2331:2355   */\n      tag_151\n      jump\t// in\n    tag_250:\n        /* \"#utility.yul\":2324:2329   */\n      dup2\n        /* \"#utility.yul\":2321:2356   */\n      eq\n        /* \"#utility.yul\":2311:2374   */\n      tag_251\n      jumpi\n        /* \"#utility.yul\":2370:2371   */\n      0x00\n        /* \"#utility.yul\":2367:2368   */\n      dup1\n        /* \"#utility.yul\":2360:2372   */\n      revert\n        /* \"#utility.yul\":2311:2374   */\n    tag_251:\n        /* \"#utility.yul\":2258:2380   */\n      pop\n      jump\t// out\n        /* \"#utility.yul\":2386:2525   */\n    tag_165:\n        /* \"#utility.yul\":2432:2437   */\n      0x00\n        /* \"#utility.yul\":2470:2476   */\n      dup2\n        /* \"#utility.yul\":2457:2477   */\n      calldataload\n        /* \"#utility.yul\":2448:2477   */\n      swap1\n      pop\n        /* \"#utility.yul\":2486:2519   */\n      tag_253\n        /* \"#utility.yul\":2513:2518   */\n      dup2\n        /* \"#utility.yul\":2486:2519   */\n      tag_164\n      jump\t// in\n    tag_253:\n        /* \"#utility.yul\":2386:2525   */\n      swap3\n      swap2\n      pop\n      pop\n      jump\t// out\n        /* \"#utility.yul\":2531:3366   */\n    tag_28:\n        /* \"#utility.yul\":2628:2634   */\n      0x00\n        /* \"#utility.yul\":2636:2642   */\n      dup1\n        /* \"#utility.yul\":2644:2650   */\n      0x00\n        /* \"#utility.yul\":2652:2658   */\n      dup1\n        /* \"#utility.yul\":2701:2703   */\n      0x60\n        /* \"#utility.yul\":2689:2698   */\n      dup6\n        /* \"#utility.yul\":2680:2687   */\n      dup8\n        /* \"#utility.yul\":2676:2699   */\n      sub\n        /* \"#utility.yul\":2672:2704   */\n      slt\n        /* \"#utility.yul\":2669:2788   */\n      iszero\n      tag_255\n      jumpi\n        /* \"#utility.yul\":2707:2786   */\n      tag_256\n      tag_154\n      jump\t// in\n    tag_256:\n        /* \"#utility.yul\":2669:2788   */\n    tag_255:\n        /* \"#utility.yul\":2855:2856   */\n      0x00\n        /* \"#utility.yul\":2844:2853   */\n      dup6\n        /* \"#utility.yul\":2840:2857   */\n      add\n        /* \"#utility.yul\":2827:2858   */\n      calldataload\n        /* \"#utility.yul\":2885:2903   */\n      0xffffffffffffffff\n        /* \"#utility.yul\":2877:2883   */\n      dup2\n        /* \"#utility.yul\":2874:2904   */\n      gt\n        /* \"#utility.yul\":2871:2988   */\n      iszero\n      tag_257\n      jumpi\n        /* \"#utility.yul\":2907:2986   */\n      tag_258\n      tag_155\n      jump\t// in\n    tag_258:\n        /* \"#utility.yul\":2871:2988   */\n    tag_257:\n        /* \"#utility.yul\":3020:3085   */\n      tag_259\n        /* \"#utility.yul\":3077:3084   */\n      dup8\n        /* \"#utility.yul\":3068:3074   */\n      dup3\n        /* \"#utility.yul\":3057:3066   */\n      dup9\n        /* \"#utility.yul\":3053:3075   */\n      add\n        /* \"#utility.yul\":3020:3085   */\n      tag_159\n      jump\t// in\n    tag_259:\n        /* \"#utility.yul\":3002:3085   */\n      swap5\n      pop\n      swap5\n      pop\n        /* \"#utility.yul\":2798:3095   */\n      pop\n        /* \"#utility.yul\":3134:3136   */\n      0x20\n        /* \"#utility.yul\":3160:3221   */\n      tag_260\n        /* \"#utility.yul\":3213:3220   */\n      dup8\n        /* \"#utility.yul\":3204:3210   */\n      dup3\n        /* \"#utility.yul\":3193:3202   */\n      dup9\n        /* \"#utility.yul\":3189:3211   */\n      add\n        /* \"#utility.yul\":3160:3221   */\n      tag_163\n      jump\t// in\n    tag_260:\n        /* \"#utility.yul\":3150:3221   */\n      swap3\n      pop\n        /* \"#utility.yul\":3105:3231   */\n      pop\n        /* \"#utility.yul\":3270:3272   */\n      0x40\n        /* \"#utility.yul\":3296:3349   */\n      tag_261\n        /* \"#utility.yul\":3341:3348   */\n      dup8\n        /* \"#utility.yul\":3332:3338   */\n      dup3\n        /* \"#utility.yul\":3321:3330   */\n      dup9\n        /* \"#utility.yul\":3317:3339   */\n      add\n        /* \"#utility.yul\":3296:3349   */\n      tag_165\n      jump\t// in\n    tag_261:\n        /* \"#utility.yul\":3286:3349   */\n      swap2\n      pop\n        /* \"#utility.yul\":3241:3359   */\n      pop\n        /* \"#utility.yul\":2531:3366   */\n      swap3\n      swap6\n      swap2\n      swap5\n      pop\n      swap3\n      pop\n      jump\t// out\n        /* \"#utility.yul\":3372:3468   */\n    tag_166:\n        /* \"#utility.yul\":3409:3416   */\n      0x00\n        /* \"#utility.yul\":3438:3462   */\n      tag_263\n        /* \"#utility.yul\":3456:3461   */\n      dup3\n        /* \"#utility.yul\":3438:3462   */\n      tag_160\n      jump\t// in\n    tag_263:\n        /* \"#utility.yul\":3427:3462   */\n      swap1\n      pop\n        /* \"#utility.yul\":3372:3468   */\n      swap2\n      swap1\n      pop\n      jump\t// out\n        /* \"#utility.yul\":3474:3596   */\n    tag_167:\n        /* \"#utility.yul\":3547:3571   */\n      tag_265\n        /* \"#utility.yul\":3565:3570   */\n      dup2\n        /* \"#utility.yul\":3547:3571   */\n      tag_166\n      jump\t// in\n    tag_265:\n        /* \"#utility.yul\":3540:3545   */\n      dup2\n        /* \"#utility.yul\":3537:3572   */\n      eq\n        /* \"#utility.yul\":3527:3590   */\n      tag_266\n      jumpi\n        /* \"#utility.yul\":3586:3587   */\n      0x00\n        /* \"#utility.yul\":3583:3584   */\n      dup1\n        /* \"#utility.yul\":3576:3588   */\n      revert\n        /* \"#utility.yul\":3527:3590   */\n    tag_266:\n        /* \"#utility.yul\":3474:3596   */\n      pop\n      jump\t// out\n        /* \"#utility.yul\":3602:3741   */\n    tag_168:\n        /* \"#utility.yul\":3648:3653   */\n      0x00\n        /* \"#utility.yul\":3686:3692   */\n      dup2\n        /* \"#utility.yul\":3673:3693   */\n      calldataload\n        /* \"#utility.yul\":3664:3693   */\n      swap1\n      pop\n        /* \"#utility.yul\":3702:3735   */\n      tag_268\n        /* \"#utility.yul\":3729:3734   */\n      dup2\n        /* \"#utility.yul\":3702:3735   */\n      tag_167\n      jump\t// in\n    tag_268:\n        /* \"#utility.yul\":3602:3741   */\n      swap3\n      swap2\n      pop\n      pop\n      jump\t// out\n        /* \"#utility.yul\":3747:4076   */\n    tag_33:\n        /* \"#utility.yul\":3806:3812   */\n      0x00\n        /* \"#utility.yul\":3855:3857   */\n      0x20\n        /* \"#utility.yul\":3843:3852   */\n      dup3\n        /* \"#utility.yul\":3834:3841   */\n      dup5\n        /* \"#utility.yul\":3830:3853   */\n      sub\n        /* \"#utility.yul\":3826:3858   */\n      slt\n        /* \"#utility.yul\":3823:3942   */\n      iszero\n      tag_270\n      jumpi\n        /* \"#utility.yul\":3861:3940   */\n      tag_271\n      tag_154\n      jump\t// in\n    tag_271:\n        /* \"#utility.yul\":3823:3942   */\n    tag_270:\n        /* \"#utility.yul\":3981:3982   */\n      0x00\n        /* \"#utility.yul\":4006:4059   */\n      tag_272\n        /* \"#utility.yul\":4051:4058   */\n      dup5\n        /* \"#utility.yul\":4042:4048   */\n      dup3\n        /* \"#utility.yul\":4031:4040   */\n      dup6\n        /* \"#utility.yul\":4027:4049   */\n      add\n        /* \"#utility.yul\":4006:4059   */\n      tag_168\n      jump\t// in\n    tag_272:\n        /* \"#utility.yul\":3996:4059   */\n      swap2\n      pop\n        /* \"#utility.yul\":3952:4069   */\n      pop\n        /* \"#utility.yul\":3747:4076   */\n      swap3\n      swap2\n      pop\n      pop\n      jump\t// out\n        /* \"#utility.yul\":4082:4411   */\n    tag_47:\n        /* \"#utility.yul\":4141:4147   */\n      0x00\n        /* \"#utility.yul\":4190:4192   */\n      0x20\n        /* \"#utility.yul\":4178:4187   */\n      dup3\n        /* \"#utility.yul\":4169:4176   */\n      dup5\n        /* \"#utility.yul\":4165:4188   */\n      sub\n        /* \"#utility.yul\":4161:4193   */\n      slt\n        /* \"#utility.yul\":4158:4277   */\n      iszero\n      tag_274\n      jumpi\n        /* \"#utility.yul\":4196:4275   */\n      tag_275\n      tag_154\n      jump\t// in\n    tag_275:\n        /* \"#utility.yul\":4158:4277   */\n    tag_274:\n        /* \"#utility.yul\":4316:4317   */\n      0x00\n        /* \"#utility.yul\":4341:4394   */\n      tag_276\n        /* \"#utility.yul\":4386:4393   */\n      dup5\n        /* \"#utility.yul\":4377:4383   */\n      dup3\n        /* \"#utility.yul\":4366:4375   */\n      dup6\n        /* \"#utility.yul\":4362:4384   */\n      add\n        /* \"#utility.yul\":4341:4394   */\n      tag_165\n      jump\t// in\n    tag_276:\n        /* \"#utility.yul\":4331:4394   */\n      swap2\n      pop\n        /* \"#utility.yul\":4287:4404   */\n      pop\n        /* \"#utility.yul\":4082:4411   */\n      swap3\n      swap2\n      pop\n      pop\n      jump\t// out\n        /* \"#utility.yul\":4417:4516   */\n    tag_169:\n        /* \"#utility.yul\":4469:4475   */\n      0x00\n        /* \"#utility.yul\":4503:4508   */\n      dup2\n        /* \"#utility.yul\":4497:4509   */\n      mload\n        /* \"#utility.yul\":4487:4509   */\n      swap1\n      pop\n        /* \"#utility.yul\":4417:4516   */\n      swap2\n      swap1\n      pop\n      jump\t// out\n        /* \"#utility.yul\":4522:4691   */\n    tag_170:\n        /* \"#utility.yul\":4606:4617   */\n      0x00\n        /* \"#utility.yul\":4640:4646   */\n      dup3\n        /* \"#utility.yul\":4635:4638   */\n      dup3\n        /* \"#utility.yul\":4628:4647   */\n      mstore\n        /* \"#utility.yul\":4680:4684   */\n      0x20\n        /* \"#utility.yul\":4675:4678   */\n      dup3\n        /* \"#utility.yul\":4671:4685   */\n      add\n        /* \"#utility.yul\":4656:4685   */\n      swap1\n      pop\n        /* \"#utility.yul\":4522:4691   */\n      swap3\n      swap2\n      pop\n      pop\n      jump\t// out\n        /* \"#utility.yul\":4697:4943   */\n    tag_171:\n        /* \"#utility.yul\":4778:4779   */\n      0x00\n        /* \"#utility.yul\":4788:4901   */\n    tag_280:\n        /* \"#utility.yul\":4802:4808   */\n      dup4\n        /* \"#utility.yul\":4799:4800   */\n      dup2\n        /* \"#utility.yul\":4796:4809   */\n      lt\n        /* \"#utility.yul\":4788:4901   */\n      iszero\n      tag_282\n      jumpi\n        /* \"#utility.yul\":4887:4888   */\n      dup1\n        /* \"#utility.yul\":4882:4885   */\n      dup3\n        /* \"#utility.yul\":4878:4889   */\n      add\n        /* \"#utility.yul\":4872:4890   */\n      mload\n        /* \"#utility.yul\":4868:4869   */\n      dup2\n        /* \"#utility.yul\":4863:4866   */\n      dup5\n        /* \"#utility.yul\":4859:4870   */\n      add\n        /* \"#utility.yul\":4852:4891   */\n      mstore\n        /* \"#utility.yul\":4824:4826   */\n      0x20\n        /* \"#utility.yul\":4821:4822   */\n      dup2\n        /* \"#utility.yul\":4817:4827   */\n      add\n        /* \"#utility.yul\":4812:4827   */\n      swap1\n      pop\n        /* \"#utility.yul\":4788:4901   */\n      jump(tag_280)\n    tag_282:\n        /* \"#utility.yul\":4935:4936   */\n      0x00\n        /* \"#utility.yul\":4926:4932   */\n      dup5\n        /* \"#utility.yul\":4921:4924   */\n      dup5\n        /* \"#utility.yul\":4917:4933   */\n      add\n        /* \"#utility.yul\":4910:4937   */\n      mstore\n        /* \"#utility.yul\":4759:4943   */\n      pop\n        /* \"#utility.yul\":4697:4943   */\n      pop\n      pop\n      pop\n      jump\t// out\n        /* \"#utility.yul\":4949:5051   */\n    tag_172:\n        /* \"#utility.yul\":4990:4996   */\n      0x00\n        /* \"#utility.yul\":5041:5043   */\n      0x1f\n        /* \"#utility.yul\":5037:5044   */\n      not\n        /* \"#utility.yul\":5032:5034   */\n      0x1f\n        /* \"#utility.yul\":5025:5030   */\n      dup4\n        /* \"#utility.yul\":5021:5035   */\n      add\n        /* \"#utility.yul\":5017:5045   */\n      and\n        /* \"#utility.yul\":5007:5045   */\n      swap1\n      pop\n        /* \"#utility.yul\":4949:5051   */\n      swap2\n      swap1\n      pop\n      jump\t// out\n        /* \"#utility.yul\":5057:5434   */\n    tag_173:\n        /* \"#utility.yul\":5145:5148   */\n      0x00\n        /* \"#utility.yul\":5173:5212   */\n      tag_285\n        /* \"#utility.yul\":5206:5211   */\n      dup3\n        /* \"#utility.yul\":5173:5212   */\n      tag_169\n      jump\t// in\n    tag_285:\n        /* \"#utility.yul\":5228:5299   */\n      tag_286\n        /* \"#utility.yul\":5292:5298   */\n      dup2\n        /* \"#utility.yul\":5287:5290   */\n      dup6\n        /* \"#utility.yul\":5228:5299   */\n      tag_170\n      jump\t// in\n    tag_286:\n        /* \"#utility.yul\":5221:5299   */\n      swap4\n      pop\n        /* \"#utility.yul\":5308:5373   */\n      tag_287\n        /* \"#utility.yul\":5366:5372   */\n      dup2\n        /* \"#utility.yul\":5361:5364   */\n      dup6\n        /* \"#utility.yul\":5354:5358   */\n      0x20\n        /* \"#utility.yul\":5347:5352   */\n      dup7\n        /* \"#utility.yul\":5343:5359   */\n      add\n        /* \"#utility.yul\":5308:5373   */\n      tag_171\n      jump\t// in\n    tag_287:\n        /* \"#utility.yul\":5398:5427   */\n      tag_288\n        /* \"#utility.yul\":5420:5426   */\n      dup2\n        /* \"#utility.yul\":5398:5427   */\n      tag_172\n      jump\t// in\n    tag_288:\n        /* \"#utility.yul\":5393:5396   */\n      dup5\n        /* \"#utility.yul\":5389:5428   */\n      add\n        /* \"#utility.yul\":5382:5428   */\n      swap2\n      pop\n        /* \"#utility.yul\":5149:5434   */\n      pop\n        /* \"#utility.yul\":5057:5434   */\n      swap3\n      swap2\n      pop\n      pop\n      jump\t// out\n        /* \"#utility.yul\":5440:5582   */\n    tag_174:\n        /* \"#utility.yul\":5543:5575   */\n      tag_290\n        /* \"#utility.yul\":5569:5574   */\n      dup2\n        /* \"#utility.yul\":5543:5575   */\n      tag_161\n      jump\t// in\n    tag_290:\n        /* \"#utility.yul\":5538:5541   */\n      dup3\n        /* \"#utility.yul\":5531:5576   */\n      mstore\n        /* \"#utility.yul\":5440:5582   */\n      pop\n      pop\n      jump\t// out\n        /* \"#utility.yul\":5588:5678   */\n    tag_175:\n        /* \"#utility.yul\":5622:5629   */\n      0x00\n        /* \"#utility.yul\":5665:5670   */\n      dup2\n        /* \"#utility.yul\":5658:5671   */\n      iszero\n        /* \"#utility.yul\":5651:5672   */\n      iszero\n        /* \"#utility.yul\":5640:5672   */\n      swap1\n      pop\n        /* \"#utility.yul\":5588:5678   */\n      swap2\n      swap1\n      pop\n      jump\t// out\n        /* \"#utility.yul\":5684:5793   */\n    tag_176:\n        /* \"#utility.yul\":5765:5786   */\n      tag_293\n        /* \"#utility.yul\":5780:5785   */\n      dup2\n        /* \"#utility.yul\":5765:5786   */\n      tag_175\n      jump\t// in\n    tag_293:\n        /* \"#utility.yul\":5760:5763   */\n      dup3\n        /* \"#utility.yul\":5753:5787   */\n      mstore\n        /* \"#utility.yul\":5684:5793   */\n      pop\n      pop\n      jump\t// out\n        /* \"#utility.yul\":5799:6574   */\n    tag_62:\n        /* \"#utility.yul\":6034:6038   */\n      0x00\n        /* \"#utility.yul\":6072:6075   */\n      0xa0\n        /* \"#utility.yul\":6061:6070   */\n      dup3\n        /* \"#utility.yul\":6057:6076   */\n      add\n        /* \"#utility.yul\":6049:6076   */\n      swap1\n      pop\n        /* \"#utility.yul\":6122:6131   */\n      dup2\n        /* \"#utility.yul\":6116:6120   */\n      dup2\n        /* \"#utility.yul\":6112:6132   */\n      sub\n        /* \"#utility.yul\":6108:6109   */\n      0x00\n        /* \"#utility.yul\":6097:6106   */\n      dup4\n        /* \"#utility.yul\":6093:6110   */\n      add\n        /* \"#utility.yul\":6086:6133   */\n      mstore\n        /* \"#utility.yul\":6150:6228   */\n      tag_295\n        /* \"#utility.yul\":6223:6227   */\n      dup2\n        /* \"#utility.yul\":6214:6220   */\n      dup9\n        /* \"#utility.yul\":6150:6228   */\n      tag_173\n      jump\t// in\n    tag_295:\n        /* \"#utility.yul\":6142:6228   */\n      swap1\n      pop\n        /* \"#utility.yul\":6238:6326   */\n      tag_296\n        /* \"#utility.yul\":6322:6324   */\n      0x20\n        /* \"#utility.yul\":6311:6320   */\n      dup4\n        /* \"#utility.yul\":6307:6325   */\n      add\n        /* \"#utility.yul\":6298:6304   */\n      dup8\n        /* \"#utility.yul\":6238:6326   */\n      tag_174\n      jump\t// in\n    tag_296:\n        /* \"#utility.yul\":6336:6408   */\n      tag_297\n        /* \"#utility.yul\":6404:6406   */\n      0x40\n        /* \"#utility.yul\":6393:6402   */\n      dup4\n        /* \"#utility.yul\":6389:6407   */\n      add\n        /* \"#utility.yul\":6380:6386   */\n      dup7\n        /* \"#utility.yul\":6336:6408   */\n      tag_152\n      jump\t// in\n    tag_297:\n        /* \"#utility.yul\":6418:6484   */\n      tag_298\n        /* \"#utility.yul\":6480:6482   */\n      0x60\n        /* \"#utility.yul\":6469:6478   */\n      dup4\n        /* \"#utility.yul\":6465:6483   */\n      add\n        /* \"#utility.yul\":6456:6462   */\n      dup6\n        /* \"#utility.yul\":6418:6484   */\n      tag_176\n      jump\t// in\n    tag_298:\n        /* \"#utility.yul\":6494:6567   */\n      tag_299\n        /* \"#utility.yul\":6562:6565   */\n      0x80\n        /* \"#utility.yul\":6551:6560   */\n      dup4\n        /* \"#utility.yul\":6547:6566   */\n      add\n        /* \"#utility.yul\":6538:6544   */\n      dup5\n        /* \"#utility.yul\":6494:6567   */\n      tag_152\n      jump\t// in\n    tag_299:\n        /* \"#utility.yul\":5799:6574   */\n      swap7\n      swap6\n      pop\n      pop\n      pop\n      pop\n      pop\n      pop\n      jump\t// out\n        /* \"#utility.yul\":6580:6698   */\n    tag_177:\n        /* \"#utility.yul\":6667:6691   */\n      tag_301\n        /* \"#utility.yul\":6685:6690   */\n      dup2\n        /* \"#utility.yul\":6667:6691   */\n      tag_166\n      jump\t// in\n    tag_301:\n        /* \"#utility.yul\":6662:6665   */\n      dup3\n        /* \"#utility.yul\":6655:6692   */\n      mstore\n        /* \"#utility.yul\":6580:6698   */\n      pop\n      pop\n      jump\t// out\n        /* \"#utility.yul\":6704:6926   */\n    tag_84:\n        /* \"#utility.yul\":6797:6801   */\n      0x00\n        /* \"#utility.yul\":6835:6837   */\n      0x20\n        /* \"#utility.yul\":6824:6833   */\n      dup3\n        /* \"#utility.yul\":6820:6838   */\n      add\n        /* \"#utility.yul\":6812:6838   */\n      swap1\n      pop\n        /* \"#utility.yul\":6848:6919   */\n      tag_303\n        /* \"#utility.yul\":6916:6917   */\n      0x00\n        /* \"#utility.yul\":6905:6914   */\n      dup4\n        /* \"#utility.yul\":6901:6918   */\n      add\n        /* \"#utility.yul\":6892:6898   */\n      dup5\n        /* \"#utility.yul\":6848:6919   */\n      tag_177\n      jump\t// in\n    tag_303:\n        /* \"#utility.yul\":6704:6926   */\n      swap3\n      swap2\n      pop\n      pop\n      jump\t// out\n        /* \"#utility.yul\":6932:7109   */\n    tag_178:\n        /* \"#utility.yul\":7072:7101   */\n      0x4f6e6c792061646d696e2063616e206578656375746520746869730000000000\n        /* \"#utility.yul\":7068:7069   */\n      0x00\n        /* \"#utility.yul\":7060:7066   */\n      dup3\n        /* \"#utility.yul\":7056:7070   */\n      add\n        /* \"#utility.yul\":7049:7102   */\n      mstore\n        /* \"#utility.yul\":6932:7109   */\n      pop\n      jump\t// out\n        /* \"#utility.yul\":7115:7481   */\n    tag_179:\n        /* \"#utility.yul\":7257:7260   */\n      0x00\n        /* \"#utility.yul\":7278:7345   */\n      tag_306\n        /* \"#utility.yul\":7342:7344   */\n      0x1b\n        /* \"#utility.yul\":7337:7340   */\n      dup4\n        /* \"#utility.yul\":7278:7345   */\n      tag_170\n      jump\t// in\n    tag_306:\n        /* \"#utility.yul\":7271:7345   */\n      swap2\n      pop\n        /* \"#utility.yul\":7354:7447   */\n      tag_307\n        /* \"#utility.yul\":7443:7446   */\n      dup3\n        /* \"#utility.yul\":7354:7447   */\n      tag_178\n      jump\t// in\n    tag_307:\n        /* \"#utility.yul\":7472:7474   */\n      0x20\n        /* \"#utility.yul\":7467:7470   */\n      dup3\n        /* \"#utility.yul\":7463:7475   */\n      add\n        /* \"#utility.yul\":7456:7475   */\n      swap1\n      pop\n        /* \"#utility.yul\":7115:7481   */\n      swap2\n      swap1\n      pop\n      jump\t// out\n        /* \"#utility.yul\":7487:7906   */\n    tag_89:\n        /* \"#utility.yul\":7653:7657   */\n      0x00\n        /* \"#utility.yul\":7691:7693   */\n      0x20\n        /* \"#utility.yul\":7680:7689   */\n      dup3\n        /* \"#utility.yul\":7676:7694   */\n      add\n        /* \"#utility.yul\":7668:7694   */\n      swap1\n      pop\n        /* \"#utility.yul\":7740:7749   */\n      dup2\n        /* \"#utility.yul\":7734:7738   */\n      dup2\n        /* \"#utility.yul\":7730:7750   */\n      sub\n        /* \"#utility.yul\":7726:7727   */\n      0x00\n        /* \"#utility.yul\":7715:7724   */\n      dup4\n        /* \"#utility.yul\":7711:7728   */\n      add\n        /* \"#utility.yul\":7704:7751   */\n      mstore\n        /* \"#utility.yul\":7768:7899   */\n      tag_309\n        /* \"#utility.yul\":7894:7898   */\n      dup2\n        /* \"#utility.yul\":7768:7899   */\n      tag_179\n      jump\t// in\n    tag_309:\n        /* \"#utility.yul\":7760:7899   */\n      swap1\n      pop\n        /* \"#utility.yul\":7487:7906   */\n      swap2\n      swap1\n      pop\n      jump\t// out\n        /* \"#utility.yul\":7912:8092   */\n    tag_180:\n        /* \"#utility.yul\":7960:8037   */\n      0x4e487b7100000000000000000000000000000000000000000000000000000000\n        /* \"#utility.yul\":7957:7958   */\n      0x00\n        /* \"#utility.yul\":7950:8038   */\n      mstore\n        /* \"#utility.yul\":8057:8061   */\n      0x11\n        /* \"#utility.yul\":8054:8055   */\n      0x04\n        /* \"#utility.yul\":8047:8062   */\n      mstore\n        /* \"#utility.yul\":8081:8085   */\n      0x24\n        /* \"#utility.yul\":8078:8079   */\n      0x00\n        /* \"#utility.yul\":8071:8086   */\n      revert\n        /* \"#utility.yul\":8098:8331   */\n    tag_92:\n        /* \"#utility.yul\":8137:8140   */\n      0x00\n        /* \"#utility.yul\":8160:8184   */\n      tag_312\n        /* \"#utility.yul\":8178:8183   */\n      dup3\n        /* \"#utility.yul\":8160:8184   */\n      tag_151\n      jump\t// in\n    tag_312:\n        /* \"#utility.yul\":8151:8184   */\n      swap2\n      pop\n        /* \"#utility.yul\":8206:8272   */\n      0xffffffffffffffffffffffffffffffffffffffffffffffffffffffffffffffff\n        /* \"#utility.yul\":8199:8204   */\n      dup3\n        /* \"#utility.yul\":8196:8273   */\n      sub\n        /* \"#utility.yul\":8193:8296   */\n      tag_313\n      jumpi\n        /* \"#utility.yul\":8276:8294   */\n      tag_314\n      tag_180\n      jump\t// in\n    tag_314:\n        /* \"#utility.yul\":8193:8296   */\n    tag_313:\n        /* \"#utility.yul\":8323:8324   */\n      0x01\n        /* \"#utility.yul\":8316:8321   */\n      dup3\n        /* \"#utility.yul\":8312:8325   */\n      add\n        /* \"#utility.yul\":8305:8325   */\n      swap1\n      pop\n        /* \"#utility.yul\":8098:8331   */\n      swap2\n      swap1\n      pop\n      jump\t// out\n        /* \"#utility.yul\":8337:8434   */\n    tag_181:\n        /* \"#utility.yul\":8396:8402   */\n      0x00\n        /* \"#utility.yul\":8424:8427   */\n      dup3\n        /* \"#utility.yul\":8414:8427   */\n      swap1\n      pop\n        /* \"#utility.yul\":8337:8434   */\n      swap3\n      swap2\n      pop\n      pop\n      jump\t// out\n        /* \"#utility.yul\":8440:8620   */\n    tag_182:\n        /* \"#utility.yul\":8488:8565   */\n      0x4e487b7100000000000000000000000000000000000000000000000000000000\n        /* \"#utility.yul\":8485:8486   */\n      0x00\n        /* \"#utility.yul\":8478:8566   */\n      mstore\n        /* \"#utility.yul\":8585:8589   */\n      0x41\n        /* \"#utility.yul\":8582:8583   */\n      0x04\n        /* \"#utility.yul\":8575:8590   */\n      mstore\n        /* \"#utility.yul\":8609:8613   */\n      0x24\n        /* \"#utility.yul\":8606:8607   */\n      0x00\n        /* \"#utility.yul\":8599:8614   */\n      revert\n        /* \"#utility.yul\":8626:8806   */\n    tag_183:\n        /* \"#utility.yul\":8674:8751   */\n      0x4e487b7100000000000000000000000000000000000000000000000000000000\n        /* \"#utility.yul\":8671:8672   */\n      0x00\n        /* \"#utility.yul\":8664:8752   */\n      mstore\n        /* \"#utility.yul\":8771:8775   */\n      0x22\n        /* \"#utility.yul\":8768:8769   */\n      0x04\n        /* \"#utility.yul\":8761:8776   */\n      mstore\n        /* \"#utility.yul\":8795:8799   */\n      0x24\n        /* \"#utility.yul\":8792:8793   */\n      0x00\n        /* \"#utility.yul\":8785:8800   */\n      revert\n        /* \"#utility.yul\":8812:9132   */\n    tag_122:\n        /* \"#utility.yul\":8856:8862   */\n      0x00\n        /* \"#utility.yul\":8893:8894   */\n      0x02\n        /* \"#utility.yul\":8887:8891   */\n      dup3\n        /* \"#utility.yul\":8883:8895   */\n      div\n        /* \"#utility.yul\":8873:8895   */\n      swap1\n      pop\n        /* \"#utility.yul\":8940:8941   */\n      0x01\n        /* \"#utility.yul\":8934:8938   */\n      dup3\n        /* \"#utility.yul\":8930:8942   */\n      and\n        /* \"#utility.yul\":8961:8979   */\n      dup1\n        /* \"#utility.yul\":8951:9032   */\n      tag_319\n      jumpi\n        /* \"#utility.yul\":9017:9021   */\n      0x7f\n        /* \"#utility.yul\":9009:9015   */\n      dup3\n        /* \"#utility.yul\":9005:9022   */\n      and\n        /* \"#utility.yul\":8995:9022   */\n      swap2\n      pop\n        /* \"#utility.yul\":8951:9032   */\n    tag_319:\n        /* \"#utility.yul\":9079:9081   */\n      0x20\n        /* \"#utility.yul\":9071:9077   */\n      dup3\n        /* \"#utility.yul\":9068:9082   */\n      lt\n        /* \"#utility.yul\":9048:9066   */\n      dup2\n        /* \"#utility.yul\":9045:9083   */\n      sub\n        /* \"#utility.yul\":9042:9126   */\n      tag_320\n      jumpi\n        /* \"#utility.yul\":9098:9116   */\n      tag_321\n      tag_183\n      jump\t// in\n    tag_321:\n        /* \"#utility.yul\":9042:9126   */\n    tag_320:\n        /* \"#utility.yul\":8863:9132   */\n      pop\n        /* \"#utility.yul\":8812:9132   */\n      swap2\n      swap1\n      pop\n      jump\t// out\n        /* \"#utility.yul\":9138:9279   */\n    tag_184:\n        /* \"#utility.yul\":9187:9191   */\n      0x00\n        /* \"#utility.yul\":9210:9213   */\n      dup2\n        /* \"#utility.yul\":9202:9213   */\n      swap1\n      pop\n        /* \"#utility.yul\":9233:9236   */\n      dup2\n        /* \"#utility.yul\":9230:9231   */\n      0x00\n        /* \"#utility.yul\":9223:9237   */\n      mstore\n        /* \"#utility.yul\":9267:9271   */\n      0x20\n        /* \"#utility.yul\":9264:9265   */\n      0x00\n        /* \"#utility.yul\":9254:9272   */\n      keccak256\n        /* \"#utility.yul\":9246:9272   */\n      swap1\n      pop\n        /* \"#utility.yul\":9138:9279   */\n      swap2\n      swap1\n      pop\n      jump\t// out\n        /* \"#utility.yul\":9285:9378   */\n    tag_185:\n        /* \"#utility.yul\":9322:9328   */\n      0x00\n        /* \"#utility.yul\":9369:9371   */\n      0x20\n        /* \"#utility.yul\":9364:9366   */\n      0x1f\n        /* \"#utility.yul\":9357:9362   */\n      dup4\n        /* \"#utility.yul\":9353:9367   */\n      add\n        /* \"#utility.yul\":9349:9372   */\n      div\n        /* \"#utility.yul\":9339:9372   */\n      swap1\n      pop\n        /* \"#utility.yul\":9285:9378   */\n      swap2\n      swap1\n      pop\n      jump\t// out\n        /* \"#utility.yul\":9384:9491   */\n    tag_186:\n        /* \"#utility.yul\":9428:9436   */\n      0x00\n        /* \"#utility.yul\":9478:9483   */\n      dup3\n        /* \"#utility.yul\":9472:9476   */\n      dup3\n        /* \"#utility.yul\":9468:9484   */\n      shl\n        /* \"#utility.yul\":9447:9484   */\n      swap1\n      pop\n        /* \"#utility.yul\":9384:9491   */\n      swap3\n      swap2\n      pop\n      pop\n      jump\t// out\n        /* \"#utility.yul\":9497:9890   */\n    tag_187:\n        /* \"#utility.yul\":9566:9572   */\n      0x00\n        /* \"#utility.yul\":9616:9617   */\n      0x08\n        /* \"#utility.yul\":9604:9614   */\n      dup4\n        /* \"#utility.yul\":9600:9618   */\n      mul\n        /* \"#utility.yul\":9639:9736   */\n      tag_326\n        /* \"#utility.yul\":9669:9735   */\n      0xffffffffffffffffffffffffffffffffffffffffffffffffffffffffffffffff\n        /* \"#utility.yul\":9658:9667   */\n      dup3\n        /* \"#utility.yul\":9639:9736   */\n      tag_186\n      jump\t// in\n    tag_326:\n        /* \"#utility.yul\":9757:9796   */\n      tag_327\n        /* \"#utility.yul\":9787:9795   */\n      dup7\n        /* \"#utility.yul\":9776:9785   */\n      dup4\n        /* \"#utility.yul\":9757:9796   */\n      tag_186\n      jump\t// in\n    tag_327:\n        /* \"#utility.yul\":9745:9796   */\n      swap6\n      pop\n        /* \"#utility.yul\":9829:9833   */\n      dup1\n        /* \"#utility.yul\":9825:9834   */\n      not\n        /* \"#utility.yul\":9818:9823   */\n      dup5\n        /* \"#utility.yul\":9814:9835   */\n      and\n        /* \"#utility.yul\":9805:9835   */\n      swap4\n      pop\n        /* \"#utility.yul\":9878:9882   */\n      dup1\n        /* \"#utility.yul\":9868:9876   */\n      dup7\n        /* \"#utility.yul\":9864:9883   */\n      and\n        /* \"#utility.yul\":9857:9862   */\n      dup5\n        /* \"#utility.yul\":9854:9884   */\n      or\n        /* \"#utility.yul\":9844:9884   */\n      swap3\n      pop\n        /* \"#utility.yul\":9573:9890   */\n      pop\n      pop\n        /* \"#utility.yul\":9497:9890   */\n      swap4\n      swap3\n      pop\n      pop\n      pop\n      jump\t// out\n        /* \"#utility.yul\":9896:9956   */\n    tag_188:\n        /* \"#utility.yul\":9924:9927   */\n      0x00\n        /* \"#utility.yul\":9945:9950   */\n      dup2\n        /* \"#utility.yul\":9938:9950   */\n      swap1\n      pop\n        /* \"#utility.yul\":9896:9956   */\n      swap2\n      swap1\n      pop\n      jump\t// out\n        /* \"#utility.yul\":9962:10104   */\n    tag_189:\n        /* \"#utility.yul\":10012:10021   */\n      0x00\n        /* \"#utility.yul\":10045:10098   */\n      tag_330\n        /* \"#utility.yul\":10063:10097   */\n      tag_331\n        /* \"#utility.yul\":10072:10096   */\n      tag_332\n        /* \"#utility.yul\":10090:10095   */\n      dup5\n        /* \"#utility.yul\":10072:10096   */\n      tag_151\n      jump\t// in\n    tag_332:\n        /* \"#utility.yul\":10063:10097   */\n      tag_188\n      jump\t// in\n    tag_331:\n        /* \"#utility.yul\":10045:10098   */\n      tag_151\n      jump\t// in\n    tag_330:\n        /* \"#utility.yul\":10032:10098   */\n      swap1\n      pop\n        /* \"#utility.yul\":9962:10104   */\n      swap2\n      swap1\n      pop\n      jump\t// out\n        /* \"#utility.yul\":10110:10185   */\n    tag_190:\n        /* \"#utility.yul\":10153:10156   */\n      0x00\n        /* \"#utility.yul\":10174:10179   */\n      dup2\n        /* \"#utility.yul\":10167:10179   */\n      swap1\n      pop\n        /* \"#utility.yul\":10110:10185   */\n      swap2\n      swap1\n      pop\n      jump\t// out\n        /* \"#utility.yul\":10191:10460   */\n    tag_191:\n        /* \"#utility.yul\":10301:10340   */\n      tag_335\n        /* \"#utility.yul\":10332:10339   */\n      dup4\n        /* \"#utility.yul\":10301:10340   */\n      tag_189\n      jump\t// in\n    tag_335:\n        /* \"#utility.yul\":10362:10453   */\n      tag_336\n        /* \"#utility.yul\":10411:10452   */\n      tag_337\n        /* \"#utility.yul\":10435:10451   */\n      dup3\n        /* \"#utility.yul\":10411:10452   */\n      tag_190\n      jump\t// in\n    tag_337:\n        /* \"#utility.yul\":10403:10409   */\n      dup5\n        /* \"#utility.yul\":10396:10400   */\n      dup5\n        /* \"#utility.yul\":10390:10401   */\n      sload\n        /* \"#utility.yul\":10362:10453   */\n      tag_187\n      jump\t// in\n    tag_336:\n        /* \"#utility.yul\":10356:10360   */\n      dup3\n        /* \"#utility.yul\":10349:10454   */\n      sstore\n        /* \"#utility.yul\":10267:10460   */\n      pop\n        /* \"#utility.yul\":10191:10460   */\n      pop\n      pop\n      pop\n      jump\t// out\n        /* \"#utility.yul\":10466:10539   */\n    tag_192:\n        /* \"#utility.yul\":10511:10514   */\n      0x00\n        /* \"#utility.yul\":10466:10539   */\n      swap1\n      jump\t// out\n        /* \"#utility.yul\":10545:10734   */\n    tag_193:\n        /* \"#utility.yul\":10622:10654   */\n      tag_340\n      tag_192\n      jump\t// in\n    tag_340:\n        /* \"#utility.yul\":10663:10728   */\n      tag_341\n        /* \"#utility.yul\":10721:10727   */\n      dup2\n        /* \"#utility.yul\":10713:10719   */\n      dup5\n        /* \"#utility.yul\":10707:10711   */\n      dup5\n        /* \"#utility.yul\":10663:10728   */\n      tag_191\n      jump\t// in\n    tag_341:\n        /* \"#utility.yul\":10598:10734   */\n      pop\n        /* \"#utility.yul\":10545:10734   */\n      pop\n      pop\n      jump\t// out\n        /* \"#utility.yul\":10740:10926   */\n    tag_194:\n        /* \"#utility.yul\":10800:10920   */\n    tag_343:\n        /* \"#utility.yul\":10817:10820   */\n      dup2\n        /* \"#utility.yul\":10810:10815   */\n      dup2\n        /* \"#utility.yul\":10807:10821   */\n      lt\n        /* \"#utility.yul\":10800:10920   */\n      iszero\n      tag_345\n      jumpi\n        /* \"#utility.yul\":10871:10910   */\n      tag_346\n        /* \"#utility.yul\":10908:10909   */\n      0x00\n        /* \"#utility.yul\":10901:10906   */\n      dup3\n        /* \"#utility.yul\":10871:10910   */\n      tag_193\n      jump\t// in\n    tag_346:\n        /* \"#utility.yul\":10844:10845   */\n      0x01\n        /* \"#utility.yul\":10837:10842   */\n      dup2\n        /* \"#utility.yul\":10833:10846   */\n      add\n        /* \"#utility.yul\":10824:10846   */\n      swap1\n      pop\n        /* \"#utility.yul\":10800:10920   */\n      jump(tag_343)\n    tag_345:\n        /* \"#utility.yul\":10740:10926   */\n      pop\n      pop\n      jump\t// out\n        /* \"#utility.yul\":10932:11475   */\n    tag_195:\n        /* \"#utility.yul\":11033:11035   */\n      0x1f\n        /* \"#utility.yul\":11028:11031   */\n      dup3\n        /* \"#utility.yul\":11025:11036   */\n      gt\n        /* \"#utility.yul\":11022:11468   */\n      iszero\n      tag_348\n      jumpi\n        /* \"#utility.yul\":11067:11105   */\n      tag_349\n        /* \"#utility.yul\":11099:11104   */\n      dup2\n        /* \"#utility.yul\":11067:11105   */\n      tag_184\n      jump\t// in\n    tag_349:\n        /* \"#utility.yul\":11151:11180   */\n      tag_350\n        /* \"#utility.yul\":11169:11179   */\n      dup5\n        /* \"#utility.yul\":11151:11180   */\n      tag_185\n      jump\t// in\n    tag_350:\n        /* \"#utility.yul\":11141:11149   */\n      dup2\n        /* \"#utility.yul\":11137:11181   */\n      add\n        /* \"#utility.yul\":11334:11336   */\n      0x20\n        /* \"#utility.yul\":11322:11332   */\n      dup6\n        /* \"#utility.yul\":11319:11337   */\n      lt\n        /* \"#utility.yul\":11316:11365   */\n      iszero\n      tag_351\n      jumpi\n        /* \"#utility.yul\":11355:11363   */\n      dup2\n        /* \"#utility.yul\":11340:11363   */\n      swap1\n      pop\n        /* \"#utility.yul\":11316:11365   */\n    tag_351:\n        /* \"#utility.yul\":11378:11458   */\n      tag_352\n        /* \"#utility.yul\":11434:11456   */\n      tag_353\n        /* \"#utility.yul\":11452:11455   */\n      dup6\n        /* \"#utility.yul\":11434:11456   */\n      tag_185\n      jump\t// in\n    tag_353:\n        /* \"#utility.yul\":11424:11432   */\n      dup4\n        /* \"#utility.yul\":11420:11457   */\n      add\n        /* \"#utility.yul\":11407:11418   */\n      dup3\n        /* \"#utility.yul\":11378:11458   */\n      tag_194\n      jump\t// in\n    tag_352:\n        /* \"#utility.yul\":11037:11468   */\n      pop\n      pop\n        /* \"#utility.yul\":11022:11468   */\n    tag_348:\n        /* \"#utility.yul\":10932:11475   */\n      pop\n      pop\n      pop\n      jump\t// out\n        /* \"#utility.yul\":11481:11598   */\n    tag_196:\n        /* \"#utility.yul\":11535:11543   */\n      0x00\n        /* \"#utility.yul\":11585:11590   */\n      dup3\n        /* \"#utility.yul\":11579:11583   */\n      dup3\n        /* \"#utility.yul\":11575:11591   */\n      shr\n        /* \"#utility.yul\":11554:11591   */\n      swap1\n      pop\n        /* \"#utility.yul\":11481:11598   */\n      swap3\n      swap2\n      pop\n      pop\n      jump\t// out\n        /* \"#utility.yul\":11604:11773   */\n    tag_197:\n        /* \"#utility.yul\":11648:11654   */\n      0x00\n        /* \"#utility.yul\":11681:11732   */\n      tag_356\n        /* \"#utility.yul\":11729:11730   */\n      0x00\n        /* \"#utility.yul\":11725:11731   */\n      not\n        /* \"#utility.yul\":11717:11722   */\n      dup5\n        /* \"#utility.yul\":11714:11715   */\n      0x08\n        /* \"#utility.yul\":11710:11723   */\n      mul\n        /* \"#utility.yul\":11681:11732   */\n      tag_196\n      jump\t// in\n    tag_356:\n        /* \"#utility.yul\":11677:11733   */\n      not\n        /* \"#utility.yul\":11762:11766   */\n      dup1\n        /* \"#utility.yul\":11756:11760   */\n      dup4\n        /* \"#utility.yul\":11752:11767   */\n      and\n        /* \"#utility.yul\":11742:11767   */\n      swap2\n      pop\n        /* \"#utility.yul\":11655:11773   */\n      pop\n        /* \"#utility.yul\":11604:11773   */\n      swap3\n      swap2\n      pop\n      pop\n      jump\t// out\n        /* \"#utility.yul\":11778:12073   */\n    tag_198:\n        /* \"#utility.yul\":11854:11858   */\n      0x00\n        /* \"#utility.yul\":12000:12029   */\n      tag_358\n        /* \"#utility.yul\":12025:12028   */\n      dup4\n        /* \"#utility.yul\":12019:12023   */\n      dup4\n        /* \"#utility.yul\":12000:12029   */\n      tag_197\n      jump\t// in\n    tag_358:\n        /* \"#utility.yul\":11992:12029   */\n      swap2\n      pop\n        /* \"#utility.yul\":12062:12065   */\n      dup3\n        /* \"#utility.yul\":12059:12060   */\n      0x02\n        /* \"#utility.yul\":12055:12066   */\n      mul\n        /* \"#utility.yul\":12049:12053   */\n      dup3\n        /* \"#utility.yul\":12046:12067   */\n      or\n        /* \"#utility.yul\":12038:12067   */\n      swap1\n      pop\n        /* \"#utility.yul\":11778:12073   */\n      swap3\n      swap2\n      pop\n      pop\n      jump\t// out\n        /* \"#utility.yul\":12078:13481   */\n    tag_94:\n        /* \"#utility.yul\":12202:12246   */\n      tag_360\n        /* \"#utility.yul\":12242:12245   */\n      dup4\n        /* \"#utility.yul\":12237:12240   */\n      dup4\n        /* \"#utility.yul\":12202:12246   */\n      tag_181\n      jump\t// in\n    tag_360:\n        /* \"#utility.yul\":12311:12329   */\n      0xffffffffffffffff\n        /* \"#utility.yul\":12303:12309   */\n      dup2\n        /* \"#utility.yul\":12300:12330   */\n      gt\n        /* \"#utility.yul\":12297:12353   */\n      iszero\n      tag_361\n      jumpi\n        /* \"#utility.yul\":12333:12351   */\n      tag_362\n      tag_182\n      jump\t// in\n    tag_362:\n        /* \"#utility.yul\":12297:12353   */\n    tag_361:\n        /* \"#utility.yul\":12377:12415   */\n      tag_363\n        /* \"#utility.yul\":12409:12413   */\n      dup3\n        /* \"#utility.yul\":12403:12414   */\n      sload\n        /* \"#utility.yul\":12377:12415   */\n      tag_122\n      jump\t// in\n    tag_363:\n        /* \"#utility.yul\":12462:12529   */\n      tag_364\n        /* \"#utility.yul\":12522:12528   */\n      dup3\n        /* \"#utility.yul\":12514:12520   */\n      dup3\n        /* \"#utility.yul\":12508:12512   */\n      dup6\n        /* \"#utility.yul\":12462:12529   */\n      tag_195\n      jump\t// in\n    tag_364:\n        /* \"#utility.yul\":12556:12557   */\n      0x00\n        /* \"#utility.yul\":12585:12587   */\n      0x1f\n        /* \"#utility.yul\":12577:12583   */\n      dup4\n        /* \"#utility.yul\":12574:12588   */\n      gt\n        /* \"#utility.yul\":12602:12603   */\n      0x01\n        /* \"#utility.yul\":12597:13229   */\n      dup2\n      eq\n      tag_366\n      jumpi\n        /* \"#utility.yul\":13273:13274   */\n      0x00\n        /* \"#utility.yul\":13290:13296   */\n      dup5\n        /* \"#utility.yul\":13287:13371   */\n      iszero\n      tag_367\n      jumpi\n        /* \"#utility.yul\":13346:13355   */\n      dup3\n        /* \"#utility.yul\":13341:13344   */\n      dup8\n        /* \"#utility.yul\":13337:13356   */\n      add\n        /* \"#utility.yul\":13324:13357   */\n      calldataload\n        /* \"#utility.yul\":13315:13357   */\n      swap1\n      pop\n        /* \"#utility.yul\":13287:13371   */\n    tag_367:\n        /* \"#utility.yul\":13397:13464   */\n      tag_368\n        /* \"#utility.yul\":13457:13463   */\n      dup6\n        /* \"#utility.yul\":13450:13455   */\n      dup3\n        /* \"#utility.yul\":13397:13464   */\n      tag_198\n      jump\t// in\n    tag_368:\n        /* \"#utility.yul\":13391:13395   */\n      dup7\n        /* \"#utility.yul\":13384:13465   */\n      sstore\n        /* \"#utility.yul\":13246:13475   */\n      pop\n        /* \"#utility.yul\":12567:13475   */\n      jump(tag_365)\n        /* \"#utility.yul\":12597:13229   */\n    tag_366:\n        /* \"#utility.yul\":12649:12653   */\n      0x1f\n        /* \"#utility.yul\":12645:12654   */\n      not\n        /* \"#utility.yul\":12637:12643   */\n      dup5\n        /* \"#utility.yul\":12633:12655   */\n      and\n        /* \"#utility.yul\":12683:12720   */\n      tag_369\n        /* \"#utility.yul\":12715:12719   */\n      dup7\n        /* \"#utility.yul\":12683:12720   */\n      tag_184\n      jump\t// in\n    tag_369:\n        /* \"#utility.yul\":12742:12743   */\n      0x00\n        /* \"#utility.yul\":12756:12971   */\n    tag_370:\n        /* \"#utility.yul\":12770:12777   */\n      dup3\n        /* \"#utility.yul\":12767:12768   */\n      dup2\n        /* \"#utility.yul\":12764:12778   */\n      lt\n        /* \"#utility.yul\":12756:12971   */\n      iszero\n      tag_372\n      jumpi\n        /* \"#utility.yul\":12856:12865   */\n      dup5\n        /* \"#utility.yul\":12851:12854   */\n      dup10\n        /* \"#utility.yul\":12847:12866   */\n      add\n        /* \"#utility.yul\":12834:12867   */\n      calldataload\n        /* \"#utility.yul\":12826:12832   */\n      dup3\n        /* \"#utility.yul\":12819:12868   */\n      sstore\n        /* \"#utility.yul\":12907:12908   */\n      0x01\n        /* \"#utility.yul\":12899:12905   */\n      dup3\n        /* \"#utility.yul\":12895:12909   */\n      add\n        /* \"#utility.yul\":12885:12909   */\n      swap2\n      pop\n        /* \"#utility.yul\":12954:12956   */\n      0x20\n        /* \"#utility.yul\":12943:12952   */\n      dup6\n        /* \"#utility.yul\":12939:12957   */\n      add\n        /* \"#utility.yul\":12926:12957   */\n      swap5\n      pop\n        /* \"#utility.yul\":12793:12797   */\n      0x20\n        /* \"#utility.yul\":12790:12791   */\n      dup2\n        /* \"#utility.yul\":12786:12798   */\n      add\n        /* \"#utility.yul\":12781:12798   */\n      swap1\n      pop\n        /* \"#utility.yul\":12756:12971   */\n      jump(tag_370)\n    tag_372:\n        /* \"#utility.yul\":12999:13005   */\n      dup7\n        /* \"#utility.yul\":12990:12997   */\n      dup4\n        /* \"#utility.yul\":12987:13006   */\n      lt\n        /* \"#utility.yul\":12984:13170   */\n      iszero\n      tag_373\n      jumpi\n        /* \"#utility.yul\":13064:13073   */\n      dup5\n        /* \"#utility.yul\":13059:13062   */\n      dup10\n        /* \"#utility.yul\":13055:13074   */\n      add\n        /* \"#utility.yul\":13042:13075   */\n      calldataload\n        /* \"#utility.yul\":13107:13155   */\n      tag_374\n        /* \"#utility.yul\":13149:13153   */\n      0x1f\n        /* \"#utility.yul\":13141:13147   */\n      dup10\n        /* \"#utility.yul\":13137:13154   */\n      and\n        /* \"#utility.yul\":13126:13135   */\n      dup3\n        /* \"#utility.yul\":13107:13155   */\n      tag_197\n      jump\t// in\n    tag_374:\n        /* \"#utility.yul\":13099:13105   */\n      dup4\n        /* \"#utility.yul\":13092:13156   */\n      sstore\n        /* \"#utility.yul\":13007:13170   */\n      pop\n        /* \"#utility.yul\":12984:13170   */\n    tag_373:\n        /* \"#utility.yul\":13216:13217   */\n      0x01\n        /* \"#utility.yul\":13212:13213   */\n      0x02\n        /* \"#utility.yul\":13204:13210   */\n      dup9\n        /* \"#utility.yul\":13200:13214   */\n      mul\n        /* \"#utility.yul\":13196:13218   */\n      add\n        /* \"#utility.yul\":13190:13194   */\n      dup9\n        /* \"#utility.yul\":13183:13219   */\n      sstore\n        /* \"#utility.yul\":12604:13229   */\n      pop\n      pop\n      pop\n        /* \"#utility.yul\":12567:13475   */\n    tag_365:\n      pop\n        /* \"#utility.yul\":12177:13481   */\n      pop\n      pop\n      pop\n        /* \"#utility.yul\":12078:13481   */\n      pop\n      pop\n      pop\n      jump\t// out\n        /* \"#utility.yul\":13487:13633   */\n    tag_199:\n        /* \"#utility.yul\":13584:13590   */\n      dup3\n        /* \"#utility.yul\":13579:13582   */\n      dup2\n        /* \"#utility.yul\":13574:13577   */\n      dup4\n        /* \"#utility.yul\":13561:13591   */\n      calldatacopy\n        /* \"#utility.yul\":13625:13626   */\n      0x00\n        /* \"#utility.yul\":13616:13622   */\n      dup4\n        /* \"#utility.yul\":13611:13614   */\n      dup4\n        /* \"#utility.yul\":13607:13623   */\n      add\n        /* \"#utility.yul\":13600:13627   */\n      mstore\n        /* \"#utility.yul\":13487:13633   */\n      pop\n      pop\n      pop\n      jump\t// out\n        /* \"#utility.yul\":13663:13980   */\n    tag_200:\n        /* \"#utility.yul\":13761:13764   */\n      0x00\n        /* \"#utility.yul\":13782:13853   */\n      tag_377\n        /* \"#utility.yul\":13846:13852   */\n      dup4\n        /* \"#utility.yul\":13841:13844   */\n      dup6\n        /* \"#utility.yul\":13782:13853   */\n      tag_170\n      jump\t// in\n    tag_377:\n        /* \"#utility.yul\":13775:13853   */\n      swap4\n      pop\n        /* \"#utility.yul\":13863:13919   */\n      tag_378\n        /* \"#utility.yul\":13912:13918   */\n      dup4\n        /* \"#utility.yul\":13907:13910   */\n      dup6\n        /* \"#utility.yul\":13900:13905   */\n      dup5\n        /* \"#utility.yul\":13863:13919   */\n      tag_199\n      jump\t// in\n    tag_378:\n        /* \"#utility.yul\":13944:13973   */\n      tag_379\n        /* \"#utility.yul\":13966:13972   */\n      dup4\n        /* \"#utility.yul\":13944:13973   */\n      tag_172\n      jump\t// in\n    tag_379:\n        /* \"#utility.yul\":13939:13942   */\n      dup5\n        /* \"#utility.yul\":13935:13974   */\n      add\n        /* \"#utility.yul\":13928:13974   */\n      swap1\n      pop\n        /* \"#utility.yul\":13663:13980   */\n      swap4\n      swap3\n      pop\n      pop\n      pop\n      jump\t// out\n        /* \"#utility.yul\":13986:14128   */\n    tag_201:\n        /* \"#utility.yul\":14036:14045   */\n      0x00\n        /* \"#utility.yul\":14069:14122   */\n      tag_381\n        /* \"#utility.yul\":14087:14121   */\n      tag_382\n        /* \"#utility.yul\":14096:14120   */\n      tag_383\n        /* \"#utility.yul\":14114:14119   */\n      dup5\n        /* \"#utility.yul\":14096:14120   */\n      tag_160\n      jump\t// in\n    tag_383:\n        /* \"#utility.yul\":14087:14121   */\n      tag_188\n      jump\t// in\n    tag_382:\n        /* \"#utility.yul\":14069:14122   */\n      tag_160\n      jump\t// in\n    tag_381:\n        /* \"#utility.yul\":14056:14122   */\n      swap1\n      pop\n        /* \"#utility.yul\":13986:14128   */\n      swap2\n      swap1\n      pop\n      jump\t// out\n        /* \"#utility.yul\":14134:14260   */\n    tag_202:\n        /* \"#utility.yul\":14184:14193   */\n      0x00\n        /* \"#utility.yul\":14217:14254   */\n      tag_385\n        /* \"#utility.yul\":14248:14253   */\n      dup3\n        /* \"#utility.yul\":14217:14254   */\n      tag_201\n      jump\t// in\n    tag_385:\n        /* \"#utility.yul\":14204:14254   */\n      swap1\n      pop\n        /* \"#utility.yul\":14134:14260   */\n      swap2\n      swap1\n      pop\n      jump\t// out\n        /* \"#utility.yul\":14266:14400   */\n    tag_203:\n        /* \"#utility.yul\":14324:14333   */\n      0x00\n        /* \"#utility.yul\":14357:14394   */\n      tag_387\n        /* \"#utility.yul\":14388:14393   */\n      dup3\n        /* \"#utility.yul\":14357:14394   */\n      tag_202\n      jump\t// in\n    tag_387:\n        /* \"#utility.yul\":14344:14394   */\n      swap1\n      pop\n        /* \"#utility.yul\":14266:14400   */\n      swap2\n      swap1\n      pop\n      jump\t// out\n        /* \"#utility.yul\":14406:14553   */\n    tag_204:\n        /* \"#utility.yul\":14501:14546   */\n      tag_389\n        /* \"#utility.yul\":14540:14545   */\n      dup2\n        /* \"#utility.yul\":14501:14546   */\n      tag_203\n      jump\t// in\n    tag_389:\n        /* \"#utility.yul\":14496:14499   */\n      dup3\n        /* \"#utility.yul\":14489:14547   */\n      mstore\n        /* \"#utility.yul\":14406:14553   */\n      pop\n      pop\n      jump\t// out\n        /* \"#utility.yul\":14559:15128   */\n    tag_96:\n        /* \"#utility.yul\":14746:14750   */\n      0x00\n        /* \"#utility.yul\":14784:14786   */\n      0x60\n        /* \"#utility.yul\":14773:14782   */\n      dup3\n        /* \"#utility.yul\":14769:14787   */\n      add\n        /* \"#utility.yul\":14761:14787   */\n      swap1\n      pop\n        /* \"#utility.yul\":14833:14842   */\n      dup2\n        /* \"#utility.yul\":14827:14831   */\n      dup2\n        /* \"#utility.yul\":14823:14843   */\n      sub\n        /* \"#utility.yul\":14819:14820   */\n      0x00\n        /* \"#utility.yul\":14808:14817   */\n      dup4\n        /* \"#utility.yul\":14804:14821   */\n      add\n        /* \"#utility.yul\":14797:14844   */\n      mstore\n        /* \"#utility.yul\":14861:14949   */\n      tag_391\n        /* \"#utility.yul\":14944:14948   */\n      dup2\n        /* \"#utility.yul\":14935:14941   */\n      dup7\n        /* \"#utility.yul\":14927:14933   */\n      dup9\n        /* \"#utility.yul\":14861:14949   */\n      tag_200\n      jump\t// in\n    tag_391:\n        /* \"#utility.yul\":14853:14949   */\n      swap1\n      pop\n        /* \"#utility.yul\":14959:15039   */\n      tag_392\n        /* \"#utility.yul\":15035:15037   */\n      0x20\n        /* \"#utility.yul\":15024:15033   */\n      dup4\n        /* \"#utility.yul\":15020:15038   */\n      add\n        /* \"#utility.yul\":15011:15017   */\n      dup6\n        /* \"#utility.yul\":14959:15039   */\n      tag_204\n      jump\t// in\n    tag_392:\n        /* \"#utility.yul\":15049:15121   */\n      tag_393\n        /* \"#utility.yul\":15117:15119   */\n      0x40\n        /* \"#utility.yul\":15106:15115   */\n      dup4\n        /* \"#utility.yul\":15102:15120   */\n      add\n        /* \"#utility.yul\":15093:15099   */\n      dup5\n        /* \"#utility.yul\":15049:15121   */\n      tag_152\n      jump\t// in\n    tag_393:\n        /* \"#utility.yul\":14559:15128   */\n      swap6\n      swap5\n      pop\n      pop\n      pop\n      pop\n      pop\n      jump\t// out\n        /* \"#utility.yul\":15134:15355   */\n    tag_205:\n        /* \"#utility.yul\":15274:15308   */\n      0x596f75206d757374206265206120636f6e7472696275746f7220746f20766f74\n        /* \"#utility.yul\":15270:15271   */\n      0x00\n        /* \"#utility.yul\":15262:15268   */\n      dup3\n        /* \"#utility.yul\":15258:15272   */\n      add\n        /* \"#utility.yul\":15251:15309   */\n      mstore\n        /* \"#utility.yul\":15343:15347   */\n      0x6521000000000000000000000000000000000000000000000000000000000000\n        /* \"#utility.yul\":15338:15340   */\n      0x20\n        /* \"#utility.yul\":15330:15336   */\n      dup3\n        /* \"#utility.yul\":15326:15341   */\n      add\n        /* \"#utility.yul\":15319:15348   */\n      mstore\n        /* \"#utility.yul\":15134:15355   */\n      pop\n      jump\t// out\n        /* \"#utility.yul\":15361:15727   */\n    tag_206:\n        /* \"#utility.yul\":15503:15506   */\n      0x00\n        /* \"#utility.yul\":15524:15591   */\n      tag_396\n        /* \"#utility.yul\":15588:15590   */\n      0x22\n        /* \"#utility.yul\":15583:15586   */\n      dup4\n        /* \"#utility.yul\":15524:15591   */\n      tag_170\n      jump\t// in\n    tag_396:\n        /* \"#utility.yul\":15517:15591   */\n      swap2\n      pop\n        /* \"#utility.yul\":15600:15693   */\n      tag_397\n        /* \"#utility.yul\":15689:15692   */\n      dup3\n        /* \"#utility.yul\":15600:15693   */\n      tag_205\n      jump\t// in\n    tag_397:\n        /* \"#utility.yul\":15718:15720   */\n      0x40\n        /* \"#utility.yul\":15713:15716   */\n      dup3\n        /* \"#utility.yul\":15709:15721   */\n      add\n        /* \"#utility.yul\":15702:15721   */\n      swap1\n      pop\n        /* \"#utility.yul\":15361:15727   */\n      swap2\n      swap1\n      pop\n      jump\t// out\n        /* \"#utility.yul\":15733:16152   */\n    tag_100:\n        /* \"#utility.yul\":15899:15903   */\n      0x00\n        /* \"#utility.yul\":15937:15939   */\n      0x20\n        /* \"#utility.yul\":15926:15935   */\n      dup3\n        /* \"#utility.yul\":15922:15940   */\n      add\n        /* \"#utility.yul\":15914:15940   */\n      swap1\n      pop\n        /* \"#utility.yul\":15986:15995   */\n      dup2\n        /* \"#utility.yul\":15980:15984   */\n      dup2\n        /* \"#utility.yul\":15976:15996   */\n      sub\n        /* \"#utility.yul\":15972:15973   */\n      0x00\n        /* \"#utility.yul\":15961:15970   */\n      dup4\n        /* \"#utility.yul\":15957:15974   */\n      add\n        /* \"#utility.yul\":15950:15997   */\n      mstore\n        /* \"#utility.yul\":16014:16145   */\n      tag_399\n        /* \"#utility.yul\":16140:16144   */\n      dup2\n        /* \"#utility.yul\":16014:16145   */\n      tag_206\n      jump\t// in\n    tag_399:\n        /* \"#utility.yul\":16006:16145   */\n      swap1\n      pop\n        /* \"#utility.yul\":15733:16152   */\n      swap2\n      swap1\n      pop\n      jump\t// out\n        /* \"#utility.yul\":16158:16331   */\n    tag_207:\n        /* \"#utility.yul\":16298:16323   */\n      0x596f75206861766520616c726561647920766f74656421000000000000000000\n        /* \"#utility.yul\":16294:16295   */\n      0x00\n        /* \"#utility.yul\":16286:16292   */\n      dup3\n        /* \"#utility.yul\":16282:16296   */\n      add\n        /* \"#utility.yul\":16275:16324   */\n      mstore\n        /* \"#utility.yul\":16158:16331   */\n      pop\n      jump\t// out\n        /* \"#utility.yul\":16337:16703   */\n    tag_208:\n        /* \"#utility.yul\":16479:16482   */\n      0x00\n        /* \"#utility.yul\":16500:16567   */\n      tag_402\n        /* \"#utility.yul\":16564:16566   */\n      0x17\n        /* \"#utility.yul\":16559:16562   */\n      dup4\n        /* \"#utility.yul\":16500:16567   */\n      tag_170\n      jump\t// in\n    tag_402:\n        /* \"#utility.yul\":16493:16567   */\n      swap2\n      pop\n        /* \"#utility.yul\":16576:16669   */\n      tag_403\n        /* \"#utility.yul\":16665:16668   */\n      dup3\n        /* \"#utility.yul\":16576:16669   */\n      tag_207\n      jump\t// in\n    tag_403:\n        /* \"#utility.yul\":16694:16696   */\n      0x20\n        /* \"#utility.yul\":16689:16692   */\n      dup3\n        /* \"#utility.yul\":16685:16697   */\n      add\n        /* \"#utility.yul\":16678:16697   */\n      swap1\n      pop\n        /* \"#utility.yul\":16337:16703   */\n      swap2\n      swap1\n      pop\n      jump\t// out\n        /* \"#utility.yul\":16709:17128   */\n    tag_103:\n        /* \"#utility.yul\":16875:16879   */\n      0x00\n        /* \"#utility.yul\":16913:16915   */\n      0x20\n        /* \"#utility.yul\":16902:16911   */\n      dup3\n        /* \"#utility.yul\":16898:16916   */\n      add\n        /* \"#utility.yul\":16890:16916   */\n      swap1\n      pop\n        /* \"#utility.yul\":16962:16971   */\n      dup2\n        /* \"#utility.yul\":16956:16960   */\n      dup2\n        /* \"#utility.yul\":16952:16972   */\n      sub\n        /* \"#utility.yul\":16948:16949   */\n      0x00\n        /* \"#utility.yul\":16937:16946   */\n      dup4\n        /* \"#utility.yul\":16933:16950   */\n      add\n        /* \"#utility.yul\":16926:16973   */\n      mstore\n        /* \"#utility.yul\":16990:17121   */\n      tag_405\n        /* \"#utility.yul\":17116:17120   */\n      dup2\n        /* \"#utility.yul\":16990:17121   */\n      tag_208\n      jump\t// in\n    tag_405:\n        /* \"#utility.yul\":16982:17121   */\n      swap1\n      pop\n        /* \"#utility.yul\":16709:17128   */\n      swap2\n      swap1\n      pop\n      jump\t// out\n        /* \"#utility.yul\":17134:17360   */\n    tag_209:\n        /* \"#utility.yul\":17274:17308   */\n      0x546865207265717565737420686173206265656e20616c726561647920636f6d\n        /* \"#utility.yul\":17270:17271   */\n      0x00\n        /* \"#utility.yul\":17262:17268   */\n      dup3\n        /* \"#utility.yul\":17258:17272   */\n      add\n        /* \"#utility.yul\":17251:17309   */\n      mstore\n        /* \"#utility.yul\":17343:17352   */\n      0x706c657465642100000000000000000000000000000000000000000000000000\n        /* \"#utility.yul\":17338:17340   */\n      0x20\n        /* \"#utility.yul\":17330:17336   */\n      dup3\n        /* \"#utility.yul\":17326:17341   */\n      add\n        /* \"#utility.yul\":17319:17353   */\n      mstore\n        /* \"#utility.yul\":17134:17360   */\n      pop\n      jump\t// out\n        /* \"#utility.yul\":17366:17732   */\n    tag_210:\n        /* \"#utility.yul\":17508:17511   */\n      0x00\n        /* \"#utility.yul\":17529:17596   */\n      tag_408\n        /* \"#utility.yul\":17593:17595   */\n      0x27\n        /* \"#utility.yul\":17588:17591   */\n      dup4\n        /* \"#utility.yul\":17529:17596   */\n      tag_170\n      jump\t// in\n    tag_408:\n        /* \"#utility.yul\":17522:17596   */\n      swap2\n      pop\n        /* \"#utility.yul\":17605:17698   */\n      tag_409\n        /* \"#utility.yul\":17694:17697   */\n      dup3\n        /* \"#utility.yul\":17605:17698   */\n      tag_209\n      jump\t// in\n    tag_409:\n        /* \"#utility.yul\":17723:17725   */\n      0x40\n        /* \"#utility.yul\":17718:17721   */\n      dup3\n        /* \"#utility.yul\":17714:17726   */\n      add\n        /* \"#utility.yul\":17707:17726   */\n      swap1\n      pop\n        /* \"#utility.yul\":17366:17732   */\n      swap2\n      swap1\n      pop\n      jump\t// out\n        /* \"#utility.yul\":17738:18157   */\n    tag_111:\n        /* \"#utility.yul\":17904:17908   */\n      0x00\n        /* \"#utility.yul\":17942:17944   */\n      0x20\n        /* \"#utility.yul\":17931:17940   */\n      dup3\n        /* \"#utility.yul\":17927:17945   */\n      add\n        /* \"#utility.yul\":17919:17945   */\n      swap1\n      pop\n        /* \"#utility.yul\":17991:18000   */\n      dup2\n        /* \"#utility.yul\":17985:17989   */\n      dup2\n        /* \"#utility.yul\":17981:18001   */\n      sub\n        /* \"#utility.yul\":17977:17978   */\n      0x00\n        /* \"#utility.yul\":17966:17975   */\n      dup4\n        /* \"#utility.yul\":17962:17979   */\n      add\n        /* \"#utility.yul\":17955:18002   */\n      mstore\n        /* \"#utility.yul\":18019:18150   */\n      tag_411\n        /* \"#utility.yul\":18145:18149   */\n      dup2\n        /* \"#utility.yul\":18019:18150   */\n      tag_210\n      jump\t// in\n    tag_411:\n        /* \"#utility.yul\":18011:18150   */\n      swap1\n      pop\n        /* \"#utility.yul\":17738:18157   */\n      swap2\n      swap1\n      pop\n      jump\t// out\n        /* \"#utility.yul\":18163:18343   */\n    tag_211:\n        /* \"#utility.yul\":18211:18288   */\n      0x4e487b7100000000000000000000000000000000000000000000000000000000\n        /* \"#utility.yul\":18208:18209   */\n      0x00\n        /* \"#utility.yul\":18201:18289   */\n      mstore\n        /* \"#utility.yul\":18308:18312   */\n      0x12\n        /* \"#utility.yul\":18305:18306   */\n      0x04\n        /* \"#utility.yul\":18298:18313   */\n      mstore\n        /* \"#utility.yul\":18332:18336   */\n      0x24\n        /* \"#utility.yul\":18329:18330   */\n      0x00\n        /* \"#utility.yul\":18322:18337   */\n      revert\n        /* \"#utility.yul\":18349:18534   */\n    tag_113:\n        /* \"#utility.yul\":18389:18390   */\n      0x00\n        /* \"#utility.yul\":18406:18426   */\n      tag_414\n        /* \"#utility.yul\":18424:18425   */\n      dup3\n        /* \"#utility.yul\":18406:18426   */\n      tag_151\n      jump\t// in\n    tag_414:\n        /* \"#utility.yul\":18401:18426   */\n      swap2\n      pop\n        /* \"#utility.yul\":18440:18460   */\n      tag_415\n        /* \"#utility.yul\":18458:18459   */\n      dup4\n        /* \"#utility.yul\":18440:18460   */\n      tag_151\n      jump\t// in\n    tag_415:\n        /* \"#utility.yul\":18435:18460   */\n      swap3\n      pop\n        /* \"#utility.yul\":18479:18480   */\n      dup3\n        /* \"#utility.yul\":18469:18504   */\n      tag_416\n      jumpi\n        /* \"#utility.yul\":18484:18502   */\n      tag_417\n      tag_211\n      jump\t// in\n    tag_417:\n        /* \"#utility.yul\":18469:18504   */\n    tag_416:\n        /* \"#utility.yul\":18526:18527   */\n      dup3\n        /* \"#utility.yul\":18523:18524   */\n      dup3\n        /* \"#utility.yul\":18519:18528   */\n      div\n        /* \"#utility.yul\":18514:18528   */\n      swap1\n      pop\n        /* \"#utility.yul\":18349:18534   */\n      swap3\n      swap2\n      pop\n      pop\n      jump\t// out\n        /* \"#utility.yul\":18540:18779   */\n    tag_212:\n        /* \"#utility.yul\":18680:18714   */\n      0x5468652072657175657374206e65656473206d6f7265207468616e2035302520\n        /* \"#utility.yul\":18676:18677   */\n      0x00\n        /* \"#utility.yul\":18668:18674   */\n      dup3\n        /* \"#utility.yul\":18664:18678   */\n      add\n        /* \"#utility.yul\":18657:18715   */\n      mstore\n        /* \"#utility.yul\":18749:18771   */\n      0x6f662074686520636f6e7472696275746f72732e000000000000000000000000\n        /* \"#utility.yul\":18744:18746   */\n      0x20\n        /* \"#utility.yul\":18736:18742   */\n      dup3\n        /* \"#utility.yul\":18732:18747   */\n      add\n        /* \"#utility.yul\":18725:18772   */\n      mstore\n        /* \"#utility.yul\":18540:18779   */\n      pop\n      jump\t// out\n        /* \"#utility.yul\":18785:19151   */\n    tag_213:\n        /* \"#utility.yul\":18927:18930   */\n      0x00\n        /* \"#utility.yul\":18948:19015   */\n      tag_420\n        /* \"#utility.yul\":19012:19014   */\n      0x34\n        /* \"#utility.yul\":19007:19010   */\n      dup4\n        /* \"#utility.yul\":18948:19015   */\n      tag_170\n      jump\t// in\n    tag_420:\n        /* \"#utility.yul\":18941:19015   */\n      swap2\n      pop\n        /* \"#utility.yul\":19024:19117   */\n      tag_421\n        /* \"#utility.yul\":19113:19116   */\n      dup3\n        /* \"#utility.yul\":19024:19117   */\n      tag_212\n      jump\t// in\n    tag_421:\n        /* \"#utility.yul\":19142:19144   */\n      0x40\n        /* \"#utility.yul\":19137:19140   */\n      dup3\n        /* \"#utility.yul\":19133:19145   */\n      add\n        /* \"#utility.yul\":19126:19145   */\n      swap1\n      pop\n        /* \"#utility.yul\":18785:19151   */\n      swap2\n      swap1\n      pop\n      jump\t// out\n        /* \"#utility.yul\":19157:19576   */\n    tag_116:\n        /* \"#utility.yul\":19323:19327   */\n      0x00\n        /* \"#utility.yul\":19361:19363   */\n      0x20\n        /* \"#utility.yul\":19350:19359   */\n      dup3\n        /* \"#utility.yul\":19346:19364   */\n      add\n        /* \"#utility.yul\":19338:19364   */\n      swap1\n      pop\n        /* \"#utility.yul\":19410:19419   */\n      dup2\n        /* \"#utility.yul\":19404:19408   */\n      dup2\n        /* \"#utility.yul\":19400:19420   */\n      sub\n        /* \"#utility.yul\":19396:19397   */\n      0x00\n        /* \"#utility.yul\":19385:19394   */\n      dup4\n        /* \"#utility.yul\":19381:19398   */\n      add\n        /* \"#utility.yul\":19374:19421   */\n      mstore\n        /* \"#utility.yul\":19438:19569   */\n      tag_423\n        /* \"#utility.yul\":19564:19568   */\n      dup2\n        /* \"#utility.yul\":19438:19569   */\n      tag_213\n      jump\t// in\n    tag_423:\n        /* \"#utility.yul\":19430:19569   */\n      swap1\n      pop\n        /* \"#utility.yul\":19157:19576   */\n      swap2\n      swap1\n      pop\n      jump\t// out\n        /* \"#utility.yul\":19582:19930   */\n    tag_120:\n        /* \"#utility.yul\":19711:19715   */\n      0x00\n        /* \"#utility.yul\":19749:19751   */\n      0x40\n        /* \"#utility.yul\":19738:19747   */\n      dup3\n        /* \"#utility.yul\":19734:19752   */\n      add\n        /* \"#utility.yul\":19726:19752   */\n      swap1\n      pop\n        /* \"#utility.yul\":19762:19841   */\n      tag_425\n        /* \"#utility.yul\":19838:19839   */\n      0x00\n        /* \"#utility.yul\":19827:19836   */\n      dup4\n        /* \"#utility.yul\":19823:19840   */\n      add\n        /* \"#utility.yul\":19814:19820   */\n      dup6\n        /* \"#utility.yul\":19762:19841   */\n      tag_204\n      jump\t// in\n    tag_425:\n        /* \"#utility.yul\":19851:19923   */\n      tag_426\n        /* \"#utility.yul\":19919:19921   */\n      0x20\n        /* \"#utility.yul\":19908:19917   */\n      dup4\n        /* \"#utility.yul\":19904:19922   */\n      add\n        /* \"#utility.yul\":19895:19901   */\n      dup5\n        /* \"#utility.yul\":19851:19923   */\n      tag_152\n      jump\t// in\n    tag_426:\n        /* \"#utility.yul\":19582:19930   */\n      swap4\n      swap3\n      pop\n      pop\n      pop\n      jump\t// out\n        /* \"#utility.yul\":19936:20110   */\n    tag_214:\n        /* \"#utility.yul\":20076:20102   */\n      0x446561646c696e6520686173206e6f74207061737365642e0000000000000000\n        /* \"#utility.yul\":20072:20073   */\n      0x00\n        /* \"#utility.yul\":20064:20070   */\n      dup3\n        /* \"#utility.yul\":20060:20074   */\n      add\n        /* \"#utility.yul\":20053:20103   */\n      mstore\n        /* \"#utility.yul\":19936:20110   */\n      pop\n      jump\t// out\n        /* \"#utility.yul\":20116:20482   */\n    tag_215:\n        /* \"#utility.yul\":20258:20261   */\n      0x00\n        /* \"#utility.yul\":20279:20346   */\n      tag_429\n        /* \"#utility.yul\":20343:20345   */\n      0x18\n        /* \"#utility.yul\":20338:20341   */\n      dup4\n        /* \"#utility.yul\":20279:20346   */\n      tag_170\n      jump\t// in\n    tag_429:\n        /* \"#utility.yul\":20272:20346   */\n      swap2\n      pop\n        /* \"#utility.yul\":20355:20448   */\n      tag_430\n        /* \"#utility.yul\":20444:20447   */\n      dup3\n        /* \"#utility.yul\":20355:20448   */\n      tag_214\n      jump\t// in\n    tag_430:\n        /* \"#utility.yul\":20473:20475   */\n      0x20\n        /* \"#utility.yul\":20468:20471   */\n      dup3\n        /* \"#utility.yul\":20464:20476   */\n      add\n        /* \"#utility.yul\":20457:20476   */\n      swap1\n      pop\n        /* \"#utility.yul\":20116:20482   */\n      swap2\n      swap1\n      pop\n      jump\t// out\n        /* \"#utility.yul\":20488:20907   */\n    tag_130:\n        /* \"#utility.yul\":20654:20658   */\n      0x00\n        /* \"#utility.yul\":20692:20694   */\n      0x20\n        /* \"#utility.yul\":20681:20690   */\n      dup3\n        /* \"#utility.yul\":20677:20695   */\n      add\n        /* \"#utility.yul\":20669:20695   */\n      swap1\n      pop\n        /* \"#utility.yul\":20741:20750   */\n      dup2\n        /* \"#utility.yul\":20735:20739   */\n      dup2\n        /* \"#utility.yul\":20731:20751   */\n      sub\n        /* \"#utility.yul\":20727:20728   */\n      0x00\n        /* \"#utility.yul\":20716:20725   */\n      dup4\n        /* \"#utility.yul\":20712:20729   */\n      add\n        /* \"#utility.yul\":20705:20752   */\n      mstore\n        /* \"#utility.yul\":20769:20900   */\n      tag_432\n        /* \"#utility.yul\":20895:20899   */\n      dup2\n        /* \"#utility.yul\":20769:20900   */\n      tag_215\n      jump\t// in\n    tag_432:\n        /* \"#utility.yul\":20761:20900   */\n      swap1\n      pop\n        /* \"#utility.yul\":20488:20907   */\n      swap2\n      swap1\n      pop\n      jump\t// out\n        /* \"#utility.yul\":20913:21079   */\n    tag_216:\n        /* \"#utility.yul\":21053:21071   */\n      0x54686520676f616c20776173206d657400000000000000000000000000000000\n        /* \"#utility.yul\":21049:21050   */\n      0x00\n        /* \"#utility.yul\":21041:21047   */\n      dup3\n        /* \"#utility.yul\":21037:21051   */\n      add\n        /* \"#utility.yul\":21030:21072   */\n      mstore\n        /* \"#utility.yul\":20913:21079   */\n      pop\n      jump\t// out\n        /* \"#utility.yul\":21085:21451   */\n    tag_217:\n        /* \"#utility.yul\":21227:21230   */\n      0x00\n        /* \"#utility.yul\":21248:21315   */\n      tag_435\n        /* \"#utility.yul\":21312:21314   */\n      0x10\n        /* \"#utility.yul\":21307:21310   */\n      dup4\n        /* \"#utility.yul\":21248:21315   */\n      tag_170\n      jump\t// in\n    tag_435:\n        /* \"#utility.yul\":21241:21315   */\n      swap2\n      pop\n        /* \"#utility.yul\":21324:21417   */\n      tag_436\n        /* \"#utility.yul\":21413:21416   */\n      dup3\n        /* \"#utility.yul\":21324:21417   */\n      tag_216\n      jump\t// in\n    tag_436:\n        /* \"#utility.yul\":21442:21444   */\n      0x20\n        /* \"#utility.yul\":21437:21440   */\n      dup3\n        /* \"#utility.yul\":21433:21445   */\n      add\n        /* \"#utility.yul\":21426:21445   */\n      swap1\n      pop\n        /* \"#utility.yul\":21085:21451   */\n      swap2\n      swap1\n      pop\n      jump\t// out\n        /* \"#utility.yul\":21457:21876   */\n    tag_133:\n        /* \"#utility.yul\":21623:21627   */\n      0x00\n        /* \"#utility.yul\":21661:21663   */\n      0x20\n        /* \"#utility.yul\":21650:21659   */\n      dup3\n        /* \"#utility.yul\":21646:21664   */\n      add\n        /* \"#utility.yul\":21638:21664   */\n      swap1\n      pop\n        /* \"#utility.yul\":21710:21719   */\n      dup2\n        /* \"#utility.yul\":21704:21708   */\n      dup2\n        /* \"#utility.yul\":21700:21720   */\n      sub\n        /* \"#utility.yul\":21696:21697   */\n      0x00\n        /* \"#utility.yul\":21685:21694   */\n      dup4\n        /* \"#utility.yul\":21681:21698   */\n      add\n        /* \"#utility.yul\":21674:21721   */\n      mstore\n        /* \"#utility.yul\":21738:21869   */\n      tag_438\n        /* \"#utility.yul\":21864:21868   */\n      dup2\n        /* \"#utility.yul\":21738:21869   */\n      tag_217\n      jump\t// in\n    tag_438:\n        /* \"#utility.yul\":21730:21869   */\n      swap1\n      pop\n        /* \"#utility.yul\":21457:21876   */\n      swap2\n      swap1\n      pop\n      jump\t// out\n        /* \"#utility.yul\":21882:22056   */\n    tag_218:\n        /* \"#utility.yul\":22022:22048   */\n      0x54686520446561646c696e652068617320706173736564210000000000000000\n        /* \"#utility.yul\":22018:22019   */\n      0x00\n        /* \"#utility.yul\":22010:22016   */\n      dup3\n        /* \"#utility.yul\":22006:22020   */\n      add\n        /* \"#utility.yul\":21999:22049   */\n      mstore\n        /* \"#utility.yul\":21882:22056   */\n      pop\n      jump\t// out\n        /* \"#utility.yul\":22062:22428   */\n    tag_219:\n        /* \"#utility.yul\":22204:22207   */\n      0x00\n        /* \"#utility.yul\":22225:22292   */\n      tag_441\n        /* \"#utility.yul\":22289:22291   */\n      0x18\n        /* \"#utility.yul\":22284:22287   */\n      dup4\n        /* \"#utility.yul\":22225:22292   */\n      tag_170\n      jump\t// in\n    tag_441:\n        /* \"#utility.yul\":22218:22292   */\n      swap2\n      pop\n        /* \"#utility.yul\":22301:22394   */\n      tag_442\n        /* \"#utility.yul\":22390:22393   */\n      dup3\n        /* \"#utility.yul\":22301:22394   */\n      tag_218\n      jump\t// in\n    tag_442:\n        /* \"#utility.yul\":22419:22421   */\n      0x20\n        /* \"#utility.yul\":22414:22417   */\n      dup3\n        /* \"#utility.yul\":22410:22422   */\n      add\n        /* \"#utility.yul\":22403:22422   */\n      swap1\n      pop\n        /* \"#utility.yul\":22062:22428   */\n      swap2\n      swap1\n      pop\n      jump\t// out\n        /* \"#utility.yul\":22434:22853   */\n    tag_140:\n        /* \"#utility.yul\":22600:22604   */\n      0x00\n        /* \"#utility.yul\":22638:22640   */\n      0x20\n        /* \"#utility.yul\":22627:22636   */\n      dup3\n        /* \"#utility.yul\":22623:22641   */\n      add\n        /* \"#utility.yul\":22615:22641   */\n      swap1\n      pop\n        /* \"#utility.yul\":22687:22696   */\n      dup2\n        /* \"#utility.yul\":22681:22685   */\n      dup2\n        /* \"#utility.yul\":22677:22697   */\n      sub\n        /* \"#utility.yul\":22673:22674   */\n      0x00\n        /* \"#utility.yul\":22662:22671   */\n      dup4\n        /* \"#utility.yul\":22658:22675   */\n      add\n        /* \"#utility.yul\":22651:22698   */\n      mstore\n        /* \"#utility.yul\":22715:22846   */\n      tag_444\n        /* \"#utility.yul\":22841:22845   */\n      dup2\n        /* \"#utility.yul\":22715:22846   */\n      tag_219\n      jump\t// in\n    tag_444:\n        /* \"#utility.yul\":22707:22846   */\n      swap1\n      pop\n        /* \"#utility.yul\":22434:22853   */\n      swap2\n      swap1\n      pop\n      jump\t// out\n        /* \"#utility.yul\":22859:23079   */\n    tag_220:\n        /* \"#utility.yul\":22999:23033   */\n      0x546865204d696e696d756d20436f6e747269627574696f6e206e6f74206d6574\n        /* \"#utility.yul\":22995:22996   */\n      0x00\n        /* \"#utility.yul\":22987:22993   */\n      dup3\n        /* \"#utility.yul\":22983:22997   */\n      add\n        /* \"#utility.yul\":22976:23034   */\n      mstore\n        /* \"#utility.yul\":23068:23071   */\n      0x2100000000000000000000000000000000000000000000000000000000000000\n        /* \"#utility.yul\":23063:23065   */\n      0x20\n        /* \"#utility.yul\":23055:23061   */\n      dup3\n        /* \"#utility.yul\":23051:23066   */\n      add\n        /* \"#utility.yul\":23044:23072   */\n      mstore\n        /* \"#utility.yul\":22859:23079   */\n      pop\n      jump\t// out\n        /* \"#utility.yul\":23085:23451   */\n    tag_221:\n        /* \"#utility.yul\":23227:23230   */\n      0x00\n        /* \"#utility.yul\":23248:23315   */\n      tag_447\n        /* \"#utility.yul\":23312:23314   */\n      0x21\n        /* \"#utility.yul\":23307:23310   */\n      dup4\n        /* \"#utility.yul\":23248:23315   */\n      tag_170\n      jump\t// in\n    tag_447:\n        /* \"#utility.yul\":23241:23315   */\n      swap2\n      pop\n        /* \"#utility.yul\":23324:23417   */\n      tag_448\n        /* \"#utility.yul\":23413:23416   */\n      dup3\n        /* \"#utility.yul\":23324:23417   */\n      tag_220\n      jump\t// in\n    tag_448:\n        /* \"#utility.yul\":23442:23444   */\n      0x40\n        /* \"#utility.yul\":23437:23440   */\n      dup3\n        /* \"#utility.yul\":23433:23445   */\n      add\n        /* \"#utility.yul\":23426:23445   */\n      swap1\n      pop\n        /* \"#utility.yul\":23085:23451   */\n      swap2\n      swap1\n      pop\n      jump\t// out\n        /* \"#utility.yul\":23457:23876   */\n    tag_143:\n        /* \"#utility.yul\":23623:23627   */\n      0x00\n        /* \"#utility.yul\":23661:23663   */\n      0x20\n        /* \"#utility.yul\":23650:23659   */\n      dup3\n        /* \"#utility.yul\":23646:23664   */\n      add\n        /* \"#utility.yul\":23638:23664   */\n      swap1\n      pop\n        /* \"#utility.yul\":23710:23719   */\n      dup2\n        /* \"#utility.yul\":23704:23708   */\n      dup2\n        /* \"#utility.yul\":23700:23720   */\n      sub\n        /* \"#utility.yul\":23696:23697   */\n      0x00\n        /* \"#utility.yul\":23685:23694   */\n      dup4\n        /* \"#utility.yul\":23681:23698   */\n      add\n        /* \"#utility.yul\":23674:23721   */\n      mstore\n        /* \"#utility.yul\":23738:23869   */\n      tag_450\n        /* \"#utility.yul\":23864:23868   */\n      dup2\n        /* \"#utility.yul\":23738:23869   */\n      tag_221\n      jump\t// in\n    tag_450:\n        /* \"#utility.yul\":23730:23869   */\n      swap1\n      pop\n        /* \"#utility.yul\":23457:23876   */\n      swap2\n      swap1\n      pop\n      jump\t// out\n        /* \"#utility.yul\":23882:24073   */\n    tag_147:\n        /* \"#utility.yul\":23922:23925   */\n      0x00\n        /* \"#utility.yul\":23941:23961   */\n      tag_452\n        /* \"#utility.yul\":23959:23960   */\n      dup3\n        /* \"#utility.yul\":23941:23961   */\n      tag_151\n      jump\t// in\n    tag_452:\n        /* \"#utility.yul\":23936:23961   */\n      swap2\n      pop\n        /* \"#utility.yul\":23975:23995   */\n      tag_453\n        /* \"#utility.yul\":23993:23994   */\n      dup4\n        /* \"#utility.yul\":23975:23995   */\n      tag_151\n      jump\t// in\n    tag_453:\n        /* \"#utility.yul\":23970:23995   */\n      swap3\n      pop\n        /* \"#utility.yul\":24018:24019   */\n      dup3\n        /* \"#utility.yul\":24015:24016   */\n      dup3\n        /* \"#utility.yul\":24011:24020   */\n      add\n        /* \"#utility.yul\":24004:24020   */\n      swap1\n      pop\n        /* \"#utility.yul\":24039:24042   */\n      dup1\n        /* \"#utility.yul\":24036:24037   */\n      dup3\n        /* \"#utility.yul\":24033:24043   */\n      gt\n        /* \"#utility.yul\":24030:24066   */\n      iszero\n      tag_454\n      jumpi\n        /* \"#utility.yul\":24046:24064   */\n      tag_455\n      tag_180\n      jump\t// in\n    tag_455:\n        /* \"#utility.yul\":24030:24066   */\n    tag_454:\n        /* \"#utility.yul\":23882:24073   */\n      swap3\n      swap2\n      pop\n      pop\n      jump\t// out\n        /* \"#utility.yul\":24079:24411   */\n    tag_150:\n        /* \"#utility.yul\":24200:24204   */\n      0x00\n        /* \"#utility.yul\":24238:24240   */\n      0x40\n        /* \"#utility.yul\":24227:24236   */\n      dup3\n        /* \"#utility.yul\":24223:24241   */\n      add\n        /* \"#utility.yul\":24215:24241   */\n      swap1\n      pop\n        /* \"#utility.yul\":24251:24322   */\n      tag_457\n        /* \"#utility.yul\":24319:24320   */\n      0x00\n        /* \"#utility.yul\":24308:24317   */\n      dup4\n        /* \"#utility.yul\":24304:24321   */\n      add\n        /* \"#utility.yul\":24295:24301   */\n      dup6\n        /* \"#utility.yul\":24251:24322   */\n      tag_177\n      jump\t// in\n    tag_457:\n        /* \"#utility.yul\":24332:24404   */\n      tag_458\n        /* \"#utility.yul\":24400:24402   */\n      0x20\n        /* \"#utility.yul\":24389:24398   */\n      dup4\n        /* \"#utility.yul\":24385:24403   */\n      add\n        /* \"#utility.yul\":24376:24382   */\n      dup5\n        /* \"#utility.yul\":24332:24404   */\n      tag_152\n      jump\t// in\n    tag_458:\n        /* \"#utility.yul\":24079:24411   */\n      swap4\n      swap3\n      pop\n      pop\n      pop\n      jump\t// out\n\n    auxdata: 0xa26469706673582212200ca5d2e96189518c39756ca5535b0c895b067541fe7fc76901defd07f864d3a264736f6c63430008120033\n}\n",
				"bytecode": {
					"linkReferences": {},
					"object": "60806040523480156200001157600080fd5b5060405162001c5e38038062001c5e8339818101604052810190620000379190620000e3565b8160058190555080426200004c919062000159565b60048190555033600160006101000a81548173ffffffffffffffffffffffffffffffffffffffff021916908373ffffffffffffffffffffffffffffffffffffffff1602179055506064600381905550505062000194565b600080fd5b6000819050919050565b620000bd81620000a8565b8114620000c957600080fd5b50565b600081519050620000dd81620000b2565b92915050565b60008060408385031215620000fd57620000fc620000a3565b5b60006200010d85828601620000cc565b92505060206200012085828601620000cc565b9150509250929050565b7f4e487b7100000000000000000000000000000000000000000000000000000000600052601160045260246000fd5b60006200016682620000a8565b91506200017383620000a8565b92508282019050808211156200018e576200018d6200012a565b5b92915050565b611aba80620001a46000396000f3fe6080604052600436106100e85760003560e01c80635114cb521161008a578063b2d5ae4411610059578063b2d5ae44146102e8578063c59ee1dc146102ff578063d7bb99ba1461032a578063f851a44014610334576100e8565b80635114cb521461022857806381d12c5814610251578063937e09b1146102925780639fb42b1f146102bd576100e8565b806329dcb0cf116100c657806329dcb0cf1461017e57806340193883146101a95780634cb6f4a5146101d45780634e260f6f146101fd576100e8565b806312065fe0146100ed5780631b16bb5c146101185780631f6d494214610141575b600080fd5b3480156100f957600080fd5b5061010261035f565b60405161010f9190610d7e565b60405180910390f35b34801561012457600080fd5b5061013f600480360381019061013a9190610e92565b610367565b005b34801561014d57600080fd5b5061016860048036038101906101639190610f44565b6104f3565b6040516101759190610d7e565b60405180910390f35b34801561018a57600080fd5b5061019361050b565b6040516101a09190610d7e565b60405180910390f35b3480156101b557600080fd5b506101be610511565b6040516101cb9190610d7e565b60405180910390f35b3480156101e057600080fd5b506101fb60048036038101906101f69190610f71565b610517565b005b34801561020957600080fd5b506102126106bc565b60405161021f9190610d7e565b60405180910390f35b34801561023457600080fd5b5061024f600480360381019061024a9190610f71565b6106c2565b005b34801561025d57600080fd5b5061027860048036038101906102739190610f71565b610905565b604051610289959493929190611058565b60405180910390f35b34801561029e57600080fd5b506102a76109f0565b6040516102b49190610d7e565b60405180910390f35b3480156102c957600080fd5b506102d26109f6565b6040516102df9190610d7e565b60405180910390f35b3480156102f457600080fd5b506102fd6109fc565b005b34801561030b57600080fd5b50610314610ba8565b6040516103219190610d7e565b60405180910390f35b610332610bae565b005b34801561034057600080fd5b50610349610d3f565b60405161035691906110c1565b60405180910390f35b600047905090565b600160009054906101000a900473ffffffffffffffffffffffffffffffffffffffff1673ffffffffffffffffffffffffffffffffffffffff163373ffffffffffffffffffffffffffffffffffffffff16146103f7576040517f08c379a00000000000000000000000000000000000000000000000000000000081526004016103ee90611128565b60405180910390fd5b600060076000600854815260200190815260200160002090506008600081548092919061042390611177565b9190505550848482600001918261043b929190611405565b50828160010160006101000a81548173ffffffffffffffffffffffffffffffffffffffff021916908373ffffffffffffffffffffffffffffffffffffffff16021790555081816002018190555060008160030160006101000a81548160ff021916908315150217905550600081600401819055507f5392bd80651676ccaaedec1afbe841d47e369223df0ba1586110b6426ee87a3a858585856040516104e49493929190611566565b60405180910390a15050505050565b60006020528060005260406000206000915090505481565b60045481565b60055481565b60008060003373ffffffffffffffffffffffffffffffffffffffff1673ffffffffffffffffffffffffffffffffffffffff1681526020019081526020016000205411610598576040517f08c379a000000000000000000000000000000000000000000000000000000000815260040161058f90611618565b60405180910390fd5b6000600760008381526020019081526020016000209050600015158160050160003373ffffffffffffffffffffffffffffffffffffffff1673ffffffffffffffffffffffffffffffffffffffff16815260200190815260200160002060009054906101000a900460ff16151514610644576040517f08c379a000000000000000000000000000000000000000000000000000000000815260040161063b90611684565b60405180910390fd5b60018160050160003373ffffffffffffffffffffffffffffffffffffffff1673ffffffffffffffffffffffffffffffffffffffff16815260200190815260200160002060006101000a81548160ff0219169083151502179055508060040160008154809291906106b390611177565b91905055505050565b60025481565b600160009054906101000a900473ffffffffffffffffffffffffffffffffffffffff1673ffffffffffffffffffffffffffffffffffffffff163373ffffffffffffffffffffffffffffffffffffffff1614610752576040517f08c379a000000000000000000000000000000000000000000000000000000000815260040161074990611128565b60405180910390fd5b6000600760008381526020019081526020016000209050600015158160030160009054906101000a900460ff161515146107c1576040517f08c379a00000000000000000000000000000000000000000000000000000000081526004016107b890611716565b60405180910390fd5b600280546107cf9190611765565b816004015411610814576040517f08c379a000000000000000000000000000000000000000000000000000000000815260040161080b90611808565b60405180910390fd5b60018160030160006101000a81548160ff0219169083151502179055508060010160009054906101000a900473ffffffffffffffffffffffffffffffffffffffff1673ffffffffffffffffffffffffffffffffffffffff166108fc82600201549081150290604051600060405180830381858888f1935050505015801561089f573d6000803e3d6000fd5b507f516e1673e5e85c44620165259173329adda2ad25e7bb15020c732be060b5b7908160010160009054906101000a900473ffffffffffffffffffffffffffffffffffffffff1682600201546040516108f9929190611828565b60405180910390a15050565b600760205280600052604060002060009150905080600001805461092890611228565b80601f016020809104026020016040519081016040528092919081815260200182805461095490611228565b80156109a15780601f10610976576101008083540402835291602001916109a1565b820191906000526020600020905b81548152906001019060200180831161098457829003601f168201915b5050505050908060010160009054906101000a900473ffffffffffffffffffffffffffffffffffffffff16908060020154908060030160009054906101000a900460ff16908060040154905085565b60035481565b60085481565b6004544211610a40576040517f08c379a0000000000000000000000000000000000000000000000000000000008152600401610a379061189d565b60405180910390fd5b60055460065410610a86576040517f08c379a0000000000000000000000000000000000000000000000000000000008152600401610a7d90611909565b60405180910390fd5b60008060003373ffffffffffffffffffffffffffffffffffffffff1673ffffffffffffffffffffffffffffffffffffffff1681526020019081526020016000205411610ad157600080fd5b600033905060008060003373ffffffffffffffffffffffffffffffffffffffff1673ffffffffffffffffffffffffffffffffffffffff16815260200190815260200160002054905060008060003373ffffffffffffffffffffffffffffffffffffffff1673ffffffffffffffffffffffffffffffffffffffff168152602001908152602001600020819055508173ffffffffffffffffffffffffffffffffffffffff166108fc829081150290604051600060405180830381858888f19350505050158015610ba3573d6000803e3d6000fd5b505050565b60065481565b6004544210610bf2576040517f08c379a0000000000000000000000000000000000000000000000000000000008152600401610be990611975565b60405180910390fd5b600354341015610c37576040517f08c379a0000000000000000000000000000000000000000000000000000000008152600401610c2e90611a07565b60405180910390fd5b60008060003373ffffffffffffffffffffffffffffffffffffffff1673ffffffffffffffffffffffffffffffffffffffff1681526020019081526020016000205403610c965760026000815480929190610c9090611177565b91905055505b346000803373ffffffffffffffffffffffffffffffffffffffff1673ffffffffffffffffffffffffffffffffffffffff1681526020019081526020016000206000828254610ce49190611a27565b925050819055503460066000828254610cfd9190611a27565b925050819055507f2daf61dec57a2c194e9e87958b1a40a5c236b5e8c6041655d664ddbd16c293203334604051610d35929190611a5b565b60405180910390a1565b600160009054906101000a900473ffffffffffffffffffffffffffffffffffffffff1681565b6000819050919050565b610d7881610d65565b82525050565b6000602082019050610d936000830184610d6f565b92915050565b600080fd5b600080fd5b600080fd5b600080fd5b600080fd5b60008083601f840112610dc857610dc7610da3565b5b8235905067ffffffffffffffff811115610de557610de4610da8565b5b602083019150836001820283011115610e0157610e00610dad565b5b9250929050565b600073ffffffffffffffffffffffffffffffffffffffff82169050919050565b6000610e3382610e08565b9050919050565b610e4381610e28565b8114610e4e57600080fd5b50565b600081359050610e6081610e3a565b92915050565b610e6f81610d65565b8114610e7a57600080fd5b50565b600081359050610e8c81610e66565b92915050565b60008060008060608587031215610eac57610eab610d99565b5b600085013567ffffffffffffffff811115610eca57610ec9610d9e565b5b610ed687828801610db2565b94509450506020610ee987828801610e51565b9250506040610efa87828801610e7d565b91505092959194509250565b6000610f1182610e08565b9050919050565b610f2181610f06565b8114610f2c57600080fd5b50565b600081359050610f3e81610f18565b92915050565b600060208284031215610f5a57610f59610d99565b5b6000610f6884828501610f2f565b91505092915050565b600060208284031215610f8757610f86610d99565b5b6000610f9584828501610e7d565b91505092915050565b600081519050919050565b600082825260208201905092915050565b60005b83811015610fd8578082015181840152602081019050610fbd565b60008484015250505050565b6000601f19601f8301169050919050565b600061100082610f9e565b61100a8185610fa9565b935061101a818560208601610fba565b61102381610fe4565b840191505092915050565b61103781610e28565b82525050565b60008115159050919050565b6110528161103d565b82525050565b600060a08201905081810360008301526110728188610ff5565b9050611081602083018761102e565b61108e6040830186610d6f565b61109b6060830185611049565b6110a86080830184610d6f565b9695505050505050565b6110bb81610f06565b82525050565b60006020820190506110d660008301846110b2565b92915050565b7f4f6e6c792061646d696e2063616e206578656375746520746869730000000000600082015250565b6000611112601b83610fa9565b915061111d826110dc565b602082019050919050565b6000602082019050818103600083015261114181611105565b9050919050565b7f4e487b7100000000000000000000000000000000000000000000000000000000600052601160045260246000fd5b600061118282610d65565b91507fffffffffffffffffffffffffffffffffffffffffffffffffffffffffffffffff82036111b4576111b3611148565b5b600182019050919050565b600082905092915050565b7f4e487b7100000000000000000000000000000000000000000000000000000000600052604160045260246000fd5b7f4e487b7100000000000000000000000000000000000000000000000000000000600052602260045260246000fd5b6000600282049050600182168061124057607f821691505b602082108103611253576112526111f9565b5b50919050565b60008190508160005260206000209050919050565b60006020601f8301049050919050565b600082821b905092915050565b6000600883026112bb7fffffffffffffffffffffffffffffffffffffffffffffffffffffffffffffffff8261127e565b6112c5868361127e565b95508019841693508086168417925050509392505050565b6000819050919050565b60006113026112fd6112f884610d65565b6112dd565b610d65565b9050919050565b6000819050919050565b61131c836112e7565b61133061132882611309565b84845461128b565b825550505050565b600090565b611345611338565b611350818484611313565b505050565b5b818110156113745761136960008261133d565b600181019050611356565b5050565b601f8211156113b95761138a81611259565b6113938461126e565b810160208510156113a2578190505b6113b66113ae8561126e565b830182611355565b50505b505050565b600082821c905092915050565b60006113dc600019846008026113be565b1980831691505092915050565b60006113f583836113cb565b9150826002028217905092915050565b61140f83836111bf565b67ffffffffffffffff811115611428576114276111ca565b5b6114328254611228565b61143d828285611378565b6000601f83116001811461146c576000841561145a578287013590505b61146485826113e9565b8655506114cc565b601f19841661147a86611259565b60005b828110156114a25784890135825560018201915060208501945060208101905061147d565b868310156114bf57848901356114bb601f8916826113cb565b8355505b6001600288020188555050505b50505050505050565b82818337600083830152505050565b60006114f08385610fa9565b93506114fd8385846114d5565b61150683610fe4565b840190509392505050565b600061152c61152761152284610e08565b6112dd565b610e08565b9050919050565b600061153e82611511565b9050919050565b600061155082611533565b9050919050565b61156081611545565b82525050565b600060608201905081810360008301526115818186886114e4565b90506115906020830185611557565b61159d6040830184610d6f565b95945050505050565b7f596f75206d757374206265206120636f6e7472696275746f7220746f20766f7460008201527f6521000000000000000000000000000000000000000000000000000000000000602082015250565b6000611602602283610fa9565b915061160d826115a6565b604082019050919050565b60006020820190508181036000830152611631816115f5565b9050919050565b7f596f75206861766520616c726561647920766f74656421000000000000000000600082015250565b600061166e601783610fa9565b915061167982611638565b602082019050919050565b6000602082019050818103600083015261169d81611661565b9050919050565b7f546865207265717565737420686173206265656e20616c726561647920636f6d60008201527f706c657465642100000000000000000000000000000000000000000000000000602082015250565b6000611700602783610fa9565b915061170b826116a4565b604082019050919050565b6000602082019050818103600083015261172f816116f3565b9050919050565b7f4e487b7100000000000000000000000000000000000000000000000000000000600052601260045260246000fd5b600061177082610d65565b915061177b83610d65565b92508261178b5761178a611736565b5b828204905092915050565b7f5468652072657175657374206e65656473206d6f7265207468616e203530252060008201527f6f662074686520636f6e7472696275746f72732e000000000000000000000000602082015250565b60006117f2603483610fa9565b91506117fd82611796565b604082019050919050565b60006020820190508181036000830152611821816117e5565b9050919050565b600060408201905061183d6000830185611557565b61184a6020830184610d6f565b9392505050565b7f446561646c696e6520686173206e6f74207061737365642e0000000000000000600082015250565b6000611887601883610fa9565b915061189282611851565b602082019050919050565b600060208201905081810360008301526118b68161187a565b9050919050565b7f54686520676f616c20776173206d657400000000000000000000000000000000600082015250565b60006118f3601083610fa9565b91506118fe826118bd565b602082019050919050565b60006020820190508181036000830152611922816118e6565b9050919050565b7f54686520446561646c696e652068617320706173736564210000000000000000600082015250565b600061195f601883610fa9565b915061196a82611929565b602082019050919050565b6000602082019050818103600083015261198e81611952565b9050919050565b7f546865204d696e696d756d20436f6e747269627574696f6e206e6f74206d657460008201527f2100000000000000000000000000000000000000000000000000000000000000602082015250565b60006119f1602183610fa9565b91506119fc82611995565b604082019050919050565b60006020820190508181036000830152611a20816119e4565b9050919050565b6000611a3282610d65565b9150611a3d83610d65565b9250828201905080821115611a5557611a54611148565b5b92915050565b6000604082019050611a7060008301856110b2565b611a7d6020830184610d6f565b939250505056fea26469706673582212200ca5d2e96189518c39756ca5535b0c895b067541fe7fc76901defd07f864d3a264736f6c63430008120033",
					"opcodes": "PUSH1 0x80 PUSH1 0x40 MSTORE CALLVALUE DUP1 ISZERO PUSH3 0x11 JUMPI PUSH1 0x0 DUP1 REVERT JUMPDEST POP PUSH1 0x40 MLOAD PUSH3 0x1C5E CODESIZE SUB DUP1 PUSH3 0x1C5E DUP4 CODECOPY DUP2 DUP2 ADD PUSH1 0x40 MSTORE DUP2 ADD SWAP1 PUSH3 0x37 SWAP2 SWAP1 PUSH3 0xE3 JUMP JUMPDEST DUP2 PUSH1 0x5 DUP2 SWAP1 SSTORE POP DUP1 TIMESTAMP PUSH3 0x4C SWAP2 SWAP1 PUSH3 0x159 JUMP JUMPDEST PUSH1 0x4 DUP2 SWAP1 SSTORE POP CALLER PUSH1 0x1 PUSH1 0x0 PUSH2 0x100 EXP DUP2 SLOAD DUP2 PUSH20 0xFFFFFFFFFFFFFFFFFFFFFFFFFFFFFFFFFFFFFFFF MUL NOT AND SWAP1 DUP4 PUSH20 0xFFFFFFFFFFFFFFFFFFFFFFFFFFFFFFFFFFFFFFFF AND MUL OR SWAP1 SSTORE POP PUSH1 0x64 PUSH1 0x3 DUP2 SWAP1 SSTORE POP POP POP PUSH3 0x194 JUMP JUMPDEST PUSH1 0x0 DUP1 REVERT JUMPDEST PUSH1 0x0 DUP2 SWAP1 POP SWAP2 SWAP1 POP JUMP JUMPDEST PUSH3 0xBD DUP2 PUSH3 0xA8 JUMP JUMPDEST DUP2 EQ PUSH3 0xC9 JUMPI PUSH1 0x0 DUP1 REVERT JUMPDEST POP JUMP JUMPDEST PUSH1 0x0 DUP2 MLOAD SWAP1 POP PUSH3 0xDD DUP2 PUSH3 0xB2 JUMP JUMPDEST SWAP3 SWAP2 POP POP JUMP JUMPDEST PUSH1 0x0 DUP1 PUSH1 0x40 DUP4 DUP6 SUB SLT ISZERO PUSH3 0xFD JUMPI PUSH3 0xFC PUSH3 0xA3 JUMP JUMPDEST JUMPDEST PUSH1 0x0 PUSH3 0x10D DUP6 DUP3 DUP7 ADD PUSH3 0xCC JUMP JUMPDEST SWAP3 POP POP PUSH1 0x20 PUSH3 0x120 DUP6 DUP3 DUP7 ADD PUSH3 0xCC JUMP JUMPDEST SWAP2 POP POP SWAP3 POP SWAP3 SWAP1 POP JUMP JUMPDEST PUSH32 0x4E487B7100000000000000000000000000000000000000000000000000000000 PUSH1 0x0 MSTORE PUSH1 0x11 PUSH1 0x4 MSTORE PUSH1 0x24 PUSH1 0x0 REVERT JUMPDEST PUSH1 0x0 PUSH3 0x166 DUP3 PUSH3 0xA8 JUMP JUMPDEST SWAP2 POP PUSH3 0x173 DUP4 PUSH3 0xA8 JUMP JUMPDEST SWAP3 POP DUP3 DUP3 ADD SWAP1 POP DUP1 DUP3 GT ISZERO PUSH3 0x18E JUMPI PUSH3 0x18D PUSH3 0x12A JUMP JUMPDEST JUMPDEST SWAP3 SWAP2 POP POP JUMP JUMPDEST PUSH2 0x1ABA DUP1 PUSH3 0x1A4 PUSH1 0x0 CODECOPY PUSH1 0x0 RETURN INVALID PUSH1 0x80 PUSH1 0x40 MSTORE PUSH1 0x4 CALLDATASIZE LT PUSH2 0xE8 JUMPI PUSH1 0x0 CALLDATALOAD PUSH1 0xE0 SHR DUP1 PUSH4 0x5114CB52 GT PUSH2 0x8A JUMPI DUP1 PUSH4 0xB2D5AE44 GT PUSH2 0x59 JUMPI DUP1 PUSH4 0xB2D5AE44 EQ PUSH2 0x2E8 JUMPI DUP1 PUSH4 0xC59EE1DC EQ PUSH2 0x2FF JUMPI DUP1 PUSH4 0xD7BB99BA EQ PUSH2 0x32A JUMPI DUP1 PUSH4 0xF851A440 EQ PUSH2 0x334 JUMPI PUSH2 0xE8 JUMP JUMPDEST DUP1 PUSH4 0x5114CB52 EQ PUSH2 0x228 JUMPI DUP1 PUSH4 0x81D12C58 EQ PUSH2 0x251 JUMPI DUP1 PUSH4 0x937E09B1 EQ PUSH2 0x292 JUMPI DUP1 PUSH4 0x9FB42B1F EQ PUSH2 0x2BD JUMPI PUSH2 0xE8 JUMP JUMPDEST DUP1 PUSH4 0x29DCB0CF GT PUSH2 0xC6 JUMPI DUP1 PUSH4 0x29DCB0CF EQ PUSH2 0x17E JUMPI DUP1 PUSH4 0x40193883 EQ PUSH2 0x1A9 JUMPI DUP1 PUSH4 0x4CB6F4A5 EQ PUSH2 0x1D4 JUMPI DUP1 PUSH4 0x4E260F6F EQ PUSH2 0x1FD JUMPI PUSH2 0xE8 JUMP JUMPDEST DUP1 PUSH4 0x12065FE0 EQ PUSH2 0xED JUMPI DUP1 PUSH4 0x1B16BB5C EQ PUSH2 0x118 JUMPI DUP1 PUSH4 0x1F6D4942 EQ PUSH2 0x141 JUMPI JUMPDEST PUSH1 0x0 DUP1 REVERT JUMPDEST CALLVALUE DUP1 ISZERO PUSH2 0xF9 JUMPI PUSH1 0x0 DUP1 REVERT JUMPDEST POP PUSH2 0x102 PUSH2 0x35F JUMP JUMPDEST PUSH1 0x40 MLOAD PUSH2 0x10F SWAP2 SWAP1 PUSH2 0xD7E JUMP JUMPDEST PUSH1 0x40 MLOAD DUP1 SWAP2 SUB SWAP1 RETURN JUMPDEST CALLVALUE DUP1 ISZERO PUSH2 0x124 JUMPI PUSH1 0x0 DUP1 REVERT JUMPDEST POP PUSH2 0x13F PUSH1 0x4 DUP1 CALLDATASIZE SUB DUP2 ADD SWAP1 PUSH2 0x13A SWAP2 SWAP1 PUSH2 0xE92 JUMP JUMPDEST PUSH2 0x367 JUMP JUMPDEST STOP JUMPDEST CALLVALUE DUP1 ISZERO PUSH2 0x14D JUMPI PUSH1 0x0 DUP1 REVERT JUMPDEST POP PUSH2 0x168 PUSH1 0x4 DUP1 CALLDATASIZE SUB DUP2 ADD SWAP1 PUSH2 0x163 SWAP2 SWAP1 PUSH2 0xF44 JUMP JUMPDEST PUSH2 0x4F3 JUMP JUMPDEST PUSH1 0x40 MLOAD PUSH2 0x175 SWAP2 SWAP1 PUSH2 0xD7E JUMP JUMPDEST PUSH1 0x40 MLOAD DUP1 SWAP2 SUB SWAP1 RETURN JUMPDEST CALLVALUE DUP1 ISZERO PUSH2 0x18A JUMPI PUSH1 0x0 DUP1 REVERT JUMPDEST POP PUSH2 0x193 PUSH2 0x50B JUMP JUMPDEST PUSH1 0x40 MLOAD PUSH2 0x1A0 SWAP2 SWAP1 PUSH2 0xD7E JUMP JUMPDEST PUSH1 0x40 MLOAD DUP1 SWAP2 SUB SWAP1 RETURN JUMPDEST CALLVALUE DUP1 ISZERO PUSH2 0x1B5 JUMPI PUSH1 0x0 DUP1 REVERT JUMPDEST POP PUSH2 0x1BE PUSH2 0x511 JUMP JUMPDEST PUSH1 0x40 MLOAD PUSH2 0x1CB SWAP2 SWAP1 PUSH2 0xD7E JUMP JUMPDEST PUSH1 0x40 MLOAD DUP1 SWAP2 SUB SWAP1 RETURN JUMPDEST CALLVALUE DUP1 ISZERO PUSH2 0x1E0 JUMPI PUSH1 0x0 DUP1 REVERT JUMPDEST POP PUSH2 0x1FB PUSH1 0x4 DUP1 CALLDATASIZE SUB DUP2 ADD SWAP1 PUSH2 0x1F6 SWAP2 SWAP1 PUSH2 0xF71 JUMP JUMPDEST PUSH2 0x517 JUMP JUMPDEST STOP JUMPDEST CALLVALUE DUP1 ISZERO PUSH2 0x209 JUMPI PUSH1 0x0 DUP1 REVERT JUMPDEST POP PUSH2 0x212 PUSH2 0x6BC JUMP JUMPDEST PUSH1 0x40 MLOAD PUSH2 0x21F SWAP2 SWAP1 PUSH2 0xD7E JUMP JUMPDEST PUSH1 0x40 MLOAD DUP1 SWAP2 SUB SWAP1 RETURN JUMPDEST CALLVALUE DUP1 ISZERO PUSH2 0x234 JUMPI PUSH1 0x0 DUP1 REVERT JUMPDEST POP PUSH2 0x24F PUSH1 0x4 DUP1 CALLDATASIZE SUB DUP2 ADD SWAP1 PUSH2 0x24A SWAP2 SWAP1 PUSH2 0xF71 JUMP JUMPDEST PUSH2 0x6C2 JUMP JUMPDEST STOP JUMPDEST CALLVALUE DUP1 ISZERO PUSH2 0x25D JUMPI PUSH1 0x0 DUP1 REVERT JUMPDEST POP PUSH2 0x278 PUSH1 0x4 DUP1 CALLDATASIZE SUB DUP2 ADD SWAP1 PUSH2 0x273 SWAP2 SWAP1 PUSH2 0xF71 JUMP JUMPDEST PUSH2 0x905 JUMP JUMPDEST PUSH1 0x40 MLOAD PUSH2 0x289 SWAP6 SWAP5 SWAP4 SWAP3 SWAP2 SWAP1 PUSH2 0x1058 JUMP JUMPDEST PUSH1 0x40 MLOAD DUP1 SWAP2 SUB SWAP1 RETURN JUMPDEST CALLVALUE DUP1 ISZERO PUSH2 0x29E JUMPI PUSH1 0x0 DUP1 REVERT JUMPDEST POP PUSH2 0x2A7 PUSH2 0x9F0 JUMP JUMPDEST PUSH1 0x40 MLOAD PUSH2 0x2B4 SWAP2 SWAP1 PUSH2 0xD7E JUMP JUMPDEST PUSH1 0x40 MLOAD DUP1 SWAP2 SUB SWAP1 RETURN JUMPDEST CALLVALUE DUP1 ISZERO PUSH2 0x2C9 JUMPI PUSH1 0x0 DUP1 REVERT JUMPDEST POP PUSH2 0x2D2 PUSH2 0x9F6 JUMP JUMPDEST PUSH1 0x40 MLOAD PUSH2 0x2DF SWAP2 SWAP1 PUSH2 0xD7E JUMP JUMPDEST PUSH1 0x40 MLOAD DUP1 SWAP2 SUB SWAP1 RETURN JUMPDEST CALLVALUE DUP1 ISZERO PUSH2 0x2F4 JUMPI PUSH1 0x0 DUP1 REVERT JUMPDEST POP PUSH2 0x2FD PUSH2 0x9FC JUMP JUMPDEST STOP JUMPDEST CALLVALUE DUP1 ISZERO PUSH2 0x30B JUMPI PUSH1 0x0 DUP1 REVERT JUMPDEST POP PUSH2 0x314 PUSH2 0xBA8 JUMP JUMPDEST PUSH1 0x40 MLOAD PUSH2 0x321 SWAP2 SWAP1 PUSH2 0xD7E JUMP JUMPDEST PUSH1 0x40 MLOAD DUP1 SWAP2 SUB SWAP1 RETURN JUMPDEST PUSH2 0x332 PUSH2 0xBAE JUMP JUMPDEST STOP JUMPDEST CALLVALUE DUP1 ISZERO PUSH2 0x340 JUMPI PUSH1 0x0 DUP1 REVERT JUMPDEST POP PUSH2 0x349 PUSH2 0xD3F JUMP JUMPDEST PUSH1 0x40 MLOAD PUSH2 0x356 SWAP2 SWAP1 PUSH2 0x10C1 JUMP JUMPDEST PUSH1 0x40 MLOAD DUP1 SWAP2 SUB SWAP1 RETURN JUMPDEST PUSH1 0x0 SELFBALANCE SWAP1 POP SWAP1 JUMP JUMPDEST PUSH1 0x1 PUSH1 0x0 SWAP1 SLOAD SWAP1 PUSH2 0x100 EXP SWAP1 DIV PUSH20 0xFFFFFFFFFFFFFFFFFFFFFFFFFFFFFFFFFFFFFFFF AND PUSH20 0xFFFFFFFFFFFFFFFFFFFFFFFFFFFFFFFFFFFFFFFF AND CALLER PUSH20 0xFFFFFFFFFFFFFFFFFFFFFFFFFFFFFFFFFFFFFFFF AND EQ PUSH2 0x3F7 JUMPI PUSH1 0x40 MLOAD PUSH32 0x8C379A000000000000000000000000000000000000000000000000000000000 DUP2 MSTORE PUSH1 0x4 ADD PUSH2 0x3EE SWAP1 PUSH2 0x1128 JUMP JUMPDEST PUSH1 0x40 MLOAD DUP1 SWAP2 SUB SWAP1 REVERT JUMPDEST PUSH1 0x0 PUSH1 0x7 PUSH1 0x0 PUSH1 0x8 SLOAD DUP2 MSTORE PUSH1 0x20 ADD SWAP1 DUP2 MSTORE PUSH1 0x20 ADD PUSH1 0x0 KECCAK256 SWAP1 POP PUSH1 0x8 PUSH1 0x0 DUP2 SLOAD DUP1 SWAP3 SWAP2 SWAP1 PUSH2 0x423 SWAP1 PUSH2 0x1177 JUMP JUMPDEST SWAP2 SWAP1 POP SSTORE POP DUP5 DUP5 DUP3 PUSH1 0x0 ADD SWAP2 DUP3 PUSH2 0x43B SWAP3 SWAP2 SWAP1 PUSH2 0x1405 JUMP JUMPDEST POP DUP3 DUP2 PUSH1 0x1 ADD PUSH1 0x0 PUSH2 0x100 EXP DUP2 SLOAD DUP2 PUSH20 0xFFFFFFFFFFFFFFFFFFFFFFFFFFFFFFFFFFFFFFFF MUL NOT AND SWAP1 DUP4 PUSH20 0xFFFFFFFFFFFFFFFFFFFFFFFFFFFFFFFFFFFFFFFF AND MUL OR SWAP1 SSTORE POP DUP2 DUP2 PUSH1 0x2 ADD DUP2 SWAP1 SSTORE POP PUSH1 0x0 DUP2 PUSH1 0x3 ADD PUSH1 0x0 PUSH2 0x100 EXP DUP2 SLOAD DUP2 PUSH1 0xFF MUL NOT AND SWAP1 DUP4 ISZERO ISZERO MUL OR SWAP1 SSTORE POP PUSH1 0x0 DUP2 PUSH1 0x4 ADD DUP2 SWAP1 SSTORE POP PUSH32 0x5392BD80651676CCAAEDEC1AFBE841D47E369223DF0BA1586110B6426EE87A3A DUP6 DUP6 DUP6 DUP6 PUSH1 0x40 MLOAD PUSH2 0x4E4 SWAP5 SWAP4 SWAP3 SWAP2 SWAP1 PUSH2 0x1566 JUMP JUMPDEST PUSH1 0x40 MLOAD DUP1 SWAP2 SUB SWAP1 LOG1 POP POP POP POP POP JUMP JUMPDEST PUSH1 0x0 PUSH1 0x20 MSTORE DUP1 PUSH1 0x0 MSTORE PUSH1 0x40 PUSH1 0x0 KECCAK256 PUSH1 0x0 SWAP2 POP SWAP1 POP SLOAD DUP2 JUMP JUMPDEST PUSH1 0x4 SLOAD DUP2 JUMP JUMPDEST PUSH1 0x5 SLOAD DUP2 JUMP JUMPDEST PUSH1 0x0 DUP1 PUSH1 0x0 CALLER PUSH20 0xFFFFFFFFFFFFFFFFFFFFFFFFFFFFFFFFFFFFFFFF AND PUSH20 0xFFFFFFFFFFFFFFFFFFFFFFFFFFFFFFFFFFFFFFFF AND DUP2 MSTORE PUSH1 0x20 ADD SWAP1 DUP2 MSTORE PUSH1 0x20 ADD PUSH1 0x0 KECCAK256 SLOAD GT PUSH2 0x598 JUMPI PUSH1 0x40 MLOAD PUSH32 0x8C379A000000000000000000000000000000000000000000000000000000000 DUP2 MSTORE PUSH1 0x4 ADD PUSH2 0x58F SWAP1 PUSH2 0x1618 JUMP JUMPDEST PUSH1 0x40 MLOAD DUP1 SWAP2 SUB SWAP1 REVERT JUMPDEST PUSH1 0x0 PUSH1 0x7 PUSH1 0x0 DUP4 DUP2 MSTORE PUSH1 0x20 ADD SWAP1 DUP2 MSTORE PUSH1 0x20 ADD PUSH1 0x0 KECCAK256 SWAP1 POP PUSH1 0x0 ISZERO ISZERO DUP2 PUSH1 0x5 ADD PUSH1 0x0 CALLER PUSH20 0xFFFFFFFFFFFFFFFFFFFFFFFFFFFFFFFFFFFFFFFF AND PUSH20 0xFFFFFFFFFFFFFFFFFFFFFFFFFFFFFFFFFFFFFFFF AND DUP2 MSTORE PUSH1 0x20 ADD SWAP1 DUP2 MSTORE PUSH1 0x20 ADD PUSH1 0x0 KECCAK256 PUSH1 0x0 SWAP1 SLOAD SWAP1 PUSH2 0x100 EXP SWAP1 DIV PUSH1 0xFF AND ISZERO ISZERO EQ PUSH2 0x644 JUMPI PUSH1 0x40 MLOAD PUSH32 0x8C379A000000000000000000000000000000000000000000000000000000000 DUP2 MSTORE PUSH1 0x4 ADD PUSH2 0x63B SWAP1 PUSH2 0x1684 JUMP JUMPDEST PUSH1 0x40 MLOAD DUP1 SWAP2 SUB SWAP1 REVERT JUMPDEST PUSH1 0x1 DUP2 PUSH1 0x5 ADD PUSH1 0x0 CALLER PUSH20 0xFFFFFFFFFFFFFFFFFFFFFFFFFFFFFFFFFFFFFFFF AND PUSH20 0xFFFFFFFFFFFFFFFFFFFFFFFFFFFFFFFFFFFFFFFF AND DUP2 MSTORE PUSH1 0x20 ADD SWAP1 DUP2 MSTORE PUSH1 0x20 ADD PUSH1 0x0 KECCAK256 PUSH1 0x0 PUSH2 0x100 EXP DUP2 SLOAD DUP2 PUSH1 0xFF MUL NOT AND SWAP1 DUP4 ISZERO ISZERO MUL OR SWAP1 SSTORE POP DUP1 PUSH1 0x4 ADD PUSH1 0x0 DUP2 SLOAD DUP1 SWAP3 SWAP2 SWAP1 PUSH2 0x6B3 SWAP1 PUSH2 0x1177 JUMP JUMPDEST SWAP2 SWAP1 POP SSTORE POP POP POP JUMP JUMPDEST PUSH1 0x2 SLOAD DUP2 JUMP JUMPDEST PUSH1 0x1 PUSH1 0x0 SWAP1 SLOAD SWAP1 PUSH2 0x100 EXP SWAP1 DIV PUSH20 0xFFFFFFFFFFFFFFFFFFFFFFFFFFFFFFFFFFFFFFFF AND PUSH20 0xFFFFFFFFFFFFFFFFFFFFFFFFFFFFFFFFFFFFFFFF AND CALLER PUSH20 0xFFFFFFFFFFFFFFFFFFFFFFFFFFFFFFFFFFFFFFFF AND EQ PUSH2 0x752 JUMPI PUSH1 0x40 MLOAD PUSH32 0x8C379A000000000000000000000000000000000000000000000000000000000 DUP2 MSTORE PUSH1 0x4 ADD PUSH2 0x749 SWAP1 PUSH2 0x1128 JUMP JUMPDEST PUSH1 0x40 MLOAD DUP1 SWAP2 SUB SWAP1 REVERT JUMPDEST PUSH1 0x0 PUSH1 0x7 PUSH1 0x0 DUP4 DUP2 MSTORE PUSH1 0x20 ADD SWAP1 DUP2 MSTORE PUSH1 0x20 ADD PUSH1 0x0 KECCAK256 SWAP1 POP PUSH1 0x0 ISZERO ISZERO DUP2 PUSH1 0x3 ADD PUSH1 0x0 SWAP1 SLOAD SWAP1 PUSH2 0x100 EXP SWAP1 DIV PUSH1 0xFF AND ISZERO ISZERO EQ PUSH2 0x7C1 JUMPI PUSH1 0x40 MLOAD PUSH32 0x8C379A000000000000000000000000000000000000000000000000000000000 DUP2 MSTORE PUSH1 0x4 ADD PUSH2 0x7B8 SWAP1 PUSH2 0x1716 JUMP JUMPDEST PUSH1 0x40 MLOAD DUP1 SWAP2 SUB SWAP1 REVERT JUMPDEST PUSH1 0x2 DUP1 SLOAD PUSH2 0x7CF SWAP2 SWAP1 PUSH2 0x1765 JUMP JUMPDEST DUP2 PUSH1 0x4 ADD SLOAD GT PUSH2 0x814 JUMPI PUSH1 0x40 MLOAD PUSH32 0x8C379A000000000000000000000000000000000000000000000000000000000 DUP2 MSTORE PUSH1 0x4 ADD PUSH2 0x80B SWAP1 PUSH2 0x1808 JUMP JUMPDEST PUSH1 0x40 MLOAD DUP1 SWAP2 SUB SWAP1 REVERT JUMPDEST PUSH1 0x1 DUP2 PUSH1 0x3 ADD PUSH1 0x0 PUSH2 0x100 EXP DUP2 SLOAD DUP2 PUSH1 0xFF MUL NOT AND SWAP1 DUP4 ISZERO ISZERO MUL OR SWAP1 SSTORE POP DUP1 PUSH1 0x1 ADD PUSH1 0x0 SWAP1 SLOAD SWAP1 PUSH2 0x100 EXP SWAP1 DIV PUSH20 0xFFFFFFFFFFFFFFFFFFFFFFFFFFFFFFFFFFFFFFFF AND PUSH20 0xFFFFFFFFFFFFFFFFFFFFFFFFFFFFFFFFFFFFFFFF AND PUSH2 0x8FC DUP3 PUSH1 0x2 ADD SLOAD SWAP1 DUP2 ISZERO MUL SWAP1 PUSH1 0x40 MLOAD PUSH1 0x0 PUSH1 0x40 MLOAD DUP1 DUP4 SUB DUP2 DUP6 DUP9 DUP9 CALL SWAP4 POP POP POP POP ISZERO DUP1 ISZERO PUSH2 0x89F JUMPI RETURNDATASIZE PUSH1 0x0 DUP1 RETURNDATACOPY RETURNDATASIZE PUSH1 0x0 REVERT JUMPDEST POP PUSH32 0x516E1673E5E85C44620165259173329ADDA2AD25E7BB15020C732BE060B5B790 DUP2 PUSH1 0x1 ADD PUSH1 0x0 SWAP1 SLOAD SWAP1 PUSH2 0x100 EXP SWAP1 DIV PUSH20 0xFFFFFFFFFFFFFFFFFFFFFFFFFFFFFFFFFFFFFFFF AND DUP3 PUSH1 0x2 ADD SLOAD PUSH1 0x40 MLOAD PUSH2 0x8F9 SWAP3 SWAP2 SWAP1 PUSH2 0x1828 JUMP JUMPDEST PUSH1 0x40 MLOAD DUP1 SWAP2 SUB SWAP1 LOG1 POP POP JUMP JUMPDEST PUSH1 0x7 PUSH1 0x20 MSTORE DUP1 PUSH1 0x0 MSTORE PUSH1 0x40 PUSH1 0x0 KECCAK256 PUSH1 0x0 SWAP2 POP SWAP1 POP DUP1 PUSH1 0x0 ADD DUP1 SLOAD PUSH2 0x928 SWAP1 PUSH2 0x1228 JUMP JUMPDEST DUP1 PUSH1 0x1F ADD PUSH1 0x20 DUP1 SWAP2 DIV MUL PUSH1 0x20 ADD PUSH1 0x40 MLOAD SWAP1 DUP2 ADD PUSH1 0x40 MSTORE DUP1 SWAP3 SWAP2 SWAP1 DUP2 DUP2 MSTORE PUSH1 0x20 ADD DUP3 DUP1 SLOAD PUSH2 0x954 SWAP1 PUSH2 0x1228 JUMP JUMPDEST DUP1 ISZERO PUSH2 0x9A1 JUMPI DUP1 PUSH1 0x1F LT PUSH2 0x976 JUMPI PUSH2 0x100 DUP1 DUP4 SLOAD DIV MUL DUP4 MSTORE SWAP2 PUSH1 0x20 ADD SWAP2 PUSH2 0x9A1 JUMP JUMPDEST DUP3 ADD SWAP2 SWAP1 PUSH1 0x0 MSTORE PUSH1 0x20 PUSH1 0x0 KECCAK256 SWAP1 JUMPDEST DUP2 SLOAD DUP2 MSTORE SWAP1 PUSH1 0x1 ADD SWAP1 PUSH1 0x20 ADD DUP1 DUP4 GT PUSH2 0x984 JUMPI DUP3 SWAP1 SUB PUSH1 0x1F AND DUP3 ADD SWAP2 JUMPDEST POP POP POP POP POP SWAP1 DUP1 PUSH1 0x1 ADD PUSH1 0x0 SWAP1 SLOAD SWAP1 PUSH2 0x100 EXP SWAP1 DIV PUSH20 0xFFFFFFFFFFFFFFFFFFFFFFFFFFFFFFFFFFFFFFFF AND SWAP1 DUP1 PUSH1 0x2 ADD SLOAD SWAP1 DUP1 PUSH1 0x3 ADD PUSH1 0x0 SWAP1 SLOAD SWAP1 PUSH2 0x100 EXP SWAP1 DIV PUSH1 0xFF AND SWAP1 DUP1 PUSH1 0x4 ADD SLOAD SWAP1 POP DUP6 JUMP JUMPDEST PUSH1 0x3 SLOAD DUP2 JUMP JUMPDEST PUSH1 0x8 SLOAD DUP2 JUMP JUMPDEST PUSH1 0x4 SLOAD TIMESTAMP GT PUSH2 0xA40 JUMPI PUSH1 0x40 MLOAD PUSH32 0x8C379A000000000000000000000000000000000000000000000000000000000 DUP2 MSTORE PUSH1 0x4 ADD PUSH2 0xA37 SWAP1 PUSH2 0x189D JUMP JUMPDEST PUSH1 0x40 MLOAD DUP1 SWAP2 SUB SWAP1 REVERT JUMPDEST PUSH1 0x5 SLOAD PUSH1 0x6 SLOAD LT PUSH2 0xA86 JUMPI PUSH1 0x40 MLOAD PUSH32 0x8C379A000000000000000000000000000000000000000000000000000000000 DUP2 MSTORE PUSH1 0x4 ADD PUSH2 0xA7D SWAP1 PUSH2 0x1909 JUMP JUMPDEST PUSH1 0x40 MLOAD DUP1 SWAP2 SUB SWAP1 REVERT JUMPDEST PUSH1 0x0 DUP1 PUSH1 0x0 CALLER PUSH20 0xFFFFFFFFFFFFFFFFFFFFFFFFFFFFFFFFFFFFFFFF AND PUSH20 0xFFFFFFFFFFFFFFFFFFFFFFFFFFFFFFFFFFFFFFFF AND DUP2 MSTORE PUSH1 0x20 ADD SWAP1 DUP2 MSTORE PUSH1 0x20 ADD PUSH1 0x0 KECCAK256 SLOAD GT PUSH2 0xAD1 JUMPI PUSH1 0x0 DUP1 REVERT JUMPDEST PUSH1 0x0 CALLER SWAP1 POP PUSH1 0x0 DUP1 PUSH1 0x0 CALLER PUSH20 0xFFFFFFFFFFFFFFFFFFFFFFFFFFFFFFFFFFFFFFFF AND PUSH20 0xFFFFFFFFFFFFFFFFFFFFFFFFFFFFFFFFFFFFFFFF AND DUP2 MSTORE PUSH1 0x20 ADD SWAP1 DUP2 MSTORE PUSH1 0x20 ADD PUSH1 0x0 KECCAK256 SLOAD SWAP1 POP PUSH1 0x0 DUP1 PUSH1 0x0 CALLER PUSH20 0xFFFFFFFFFFFFFFFFFFFFFFFFFFFFFFFFFFFFFFFF AND PUSH20 0xFFFFFFFFFFFFFFFFFFFFFFFFFFFFFFFFFFFFFFFF AND DUP2 MSTORE PUSH1 0x20 ADD SWAP1 DUP2 MSTORE PUSH1 0x20 ADD PUSH1 0x0 KECCAK256 DUP2 SWAP1 SSTORE POP DUP2 PUSH20 0xFFFFFFFFFFFFFFFFFFFFFFFFFFFFFFFFFFFFFFFF AND PUSH2 0x8FC DUP3 SWAP1 DUP2 ISZERO MUL SWAP1 PUSH1 0x40 MLOAD PUSH1 0x0 PUSH1 0x40 MLOAD DUP1 DUP4 SUB DUP2 DUP6 DUP9 DUP9 CALL SWAP4 POP POP POP POP ISZERO DUP1 ISZERO PUSH2 0xBA3 JUMPI RETURNDATASIZE PUSH1 0x0 DUP1 RETURNDATACOPY RETURNDATASIZE PUSH1 0x0 REVERT JUMPDEST POP POP POP JUMP JUMPDEST PUSH1 0x6 SLOAD DUP2 JUMP JUMPDEST PUSH1 0x4 SLOAD TIMESTAMP LT PUSH2 0xBF2 JUMPI PUSH1 0x40 MLOAD PUSH32 0x8C379A000000000000000000000000000000000000000000000000000000000 DUP2 MSTORE PUSH1 0x4 ADD PUSH2 0xBE9 SWAP1 PUSH2 0x1975 JUMP JUMPDEST PUSH1 0x40 MLOAD DUP1 SWAP2 SUB SWAP1 REVERT JUMPDEST PUSH1 0x3 SLOAD CALLVALUE LT ISZERO PUSH2 0xC37 JUMPI PUSH1 0x40 MLOAD PUSH32 0x8C379A000000000000000000000000000000000000000000000000000000000 DUP2 MSTORE PUSH1 0x4 ADD PUSH2 0xC2E SWAP1 PUSH2 0x1A07 JUMP JUMPDEST PUSH1 0x40 MLOAD DUP1 SWAP2 SUB SWAP1 REVERT JUMPDEST PUSH1 0x0 DUP1 PUSH1 0x0 CALLER PUSH20 0xFFFFFFFFFFFFFFFFFFFFFFFFFFFFFFFFFFFFFFFF AND PUSH20 0xFFFFFFFFFFFFFFFFFFFFFFFFFFFFFFFFFFFFFFFF AND DUP2 MSTORE PUSH1 0x20 ADD SWAP1 DUP2 MSTORE PUSH1 0x20 ADD PUSH1 0x0 KECCAK256 SLOAD SUB PUSH2 0xC96 JUMPI PUSH1 0x2 PUSH1 0x0 DUP2 SLOAD DUP1 SWAP3 SWAP2 SWAP1 PUSH2 0xC90 SWAP1 PUSH2 0x1177 JUMP JUMPDEST SWAP2 SWAP1 POP SSTORE POP JUMPDEST CALLVALUE PUSH1 0x0 DUP1 CALLER PUSH20 0xFFFFFFFFFFFFFFFFFFFFFFFFFFFFFFFFFFFFFFFF AND PUSH20 0xFFFFFFFFFFFFFFFFFFFFFFFFFFFFFFFFFFFFFFFF AND DUP2 MSTORE PUSH1 0x20 ADD SWAP1 DUP2 MSTORE PUSH1 0x20 ADD PUSH1 0x0 KECCAK256 PUSH1 0x0 DUP3 DUP3 SLOAD PUSH2 0xCE4 SWAP2 SWAP1 PUSH2 0x1A27 JUMP JUMPDEST SWAP3 POP POP DUP2 SWAP1 SSTORE POP CALLVALUE PUSH1 0x6 PUSH1 0x0 DUP3 DUP3 SLOAD PUSH2 0xCFD SWAP2 SWAP1 PUSH2 0x1A27 JUMP JUMPDEST SWAP3 POP POP DUP2 SWAP1 SSTORE POP PUSH32 0x2DAF61DEC57A2C194E9E87958B1A40A5C236B5E8C6041655D664DDBD16C29320 CALLER CALLVALUE PUSH1 0x40 MLOAD PUSH2 0xD35 SWAP3 SWAP2 SWAP1 PUSH2 0x1A5B JUMP JUMPDEST PUSH1 0x40 MLOAD DUP1 SWAP2 SUB SWAP1 LOG1 JUMP JUMPDEST PUSH1 0x1 PUSH1 0x0 SWAP1 SLOAD SWAP1 PUSH2 0x100 EXP SWAP1 DIV PUSH20 0xFFFFFFFFFFFFFFFFFFFFFFFFFFFFFFFFFFFFFFFF AND DUP2 JUMP JUMPDEST PUSH1 0x0 DUP2 SWAP1 POP SWAP2 SWAP1 POP JUMP JUMPDEST PUSH2 0xD78 DUP2 PUSH2 0xD65 JUMP JUMPDEST DUP3 MSTORE POP POP JUMP JUMPDEST PUSH1 0x0 PUSH1 0x20 DUP3 ADD SWAP1 POP PUSH2 0xD93 PUSH1 0x0 DUP4 ADD DUP5 PUSH2 0xD6F JUMP JUMPDEST SWAP3 SWAP2 POP POP JUMP JUMPDEST PUSH1 0x0 DUP1 REVERT JUMPDEST PUSH1 0x0 DUP1 REVERT JUMPDEST PUSH1 0x0 DUP1 REVERT JUMPDEST PUSH1 0x0 DUP1 REVERT JUMPDEST PUSH1 0x0 DUP1 REVERT JUMPDEST PUSH1 0x0 DUP1 DUP4 PUSH1 0x1F DUP5 ADD SLT PUSH2 0xDC8 JUMPI PUSH2 0xDC7 PUSH2 0xDA3 JUMP JUMPDEST JUMPDEST DUP3 CALLDATALOAD SWAP1 POP PUSH8 0xFFFFFFFFFFFFFFFF DUP2 GT ISZERO PUSH2 0xDE5 JUMPI PUSH2 0xDE4 PUSH2 0xDA8 JUMP JUMPDEST JUMPDEST PUSH1 0x20 DUP4 ADD SWAP2 POP DUP4 PUSH1 0x1 DUP3 MUL DUP4 ADD GT ISZERO PUSH2 0xE01 JUMPI PUSH2 0xE00 PUSH2 0xDAD JUMP JUMPDEST JUMPDEST SWAP3 POP SWAP3 SWAP1 POP JUMP JUMPDEST PUSH1 0x0 PUSH20 0xFFFFFFFFFFFFFFFFFFFFFFFFFFFFFFFFFFFFFFFF DUP3 AND SWAP1 POP SWAP2 SWAP1 POP JUMP JUMPDEST PUSH1 0x0 PUSH2 0xE33 DUP3 PUSH2 0xE08 JUMP JUMPDEST SWAP1 POP SWAP2 SWAP1 POP JUMP JUMPDEST PUSH2 0xE43 DUP2 PUSH2 0xE28 JUMP JUMPDEST DUP2 EQ PUSH2 0xE4E JUMPI PUSH1 0x0 DUP1 REVERT JUMPDEST POP JUMP JUMPDEST PUSH1 0x0 DUP2 CALLDATALOAD SWAP1 POP PUSH2 0xE60 DUP2 PUSH2 0xE3A JUMP JUMPDEST SWAP3 SWAP2 POP POP JUMP JUMPDEST PUSH2 0xE6F DUP2 PUSH2 0xD65 JUMP JUMPDEST DUP2 EQ PUSH2 0xE7A JUMPI PUSH1 0x0 DUP1 REVERT JUMPDEST POP JUMP JUMPDEST PUSH1 0x0 DUP2 CALLDATALOAD SWAP1 POP PUSH2 0xE8C DUP2 PUSH2 0xE66 JUMP JUMPDEST SWAP3 SWAP2 POP POP JUMP JUMPDEST PUSH1 0x0 DUP1 PUSH1 0x0 DUP1 PUSH1 0x60 DUP6 DUP8 SUB SLT ISZERO PUSH2 0xEAC JUMPI PUSH2 0xEAB PUSH2 0xD99 JUMP JUMPDEST JUMPDEST PUSH1 0x0 DUP6 ADD CALLDATALOAD PUSH8 0xFFFFFFFFFFFFFFFF DUP2 GT ISZERO PUSH2 0xECA JUMPI PUSH2 0xEC9 PUSH2 0xD9E JUMP JUMPDEST JUMPDEST PUSH2 0xED6 DUP8 DUP3 DUP9 ADD PUSH2 0xDB2 JUMP JUMPDEST SWAP5 POP SWAP5 POP POP PUSH1 0x20 PUSH2 0xEE9 DUP8 DUP3 DUP9 ADD PUSH2 0xE51 JUMP JUMPDEST SWAP3 POP POP PUSH1 0x40 PUSH2 0xEFA DUP8 DUP3 DUP9 ADD PUSH2 0xE7D JUMP JUMPDEST SWAP2 POP POP SWAP3 SWAP6 SWAP2 SWAP5 POP SWAP3 POP JUMP JUMPDEST PUSH1 0x0 PUSH2 0xF11 DUP3 PUSH2 0xE08 JUMP JUMPDEST SWAP1 POP SWAP2 SWAP1 POP JUMP JUMPDEST PUSH2 0xF21 DUP2 PUSH2 0xF06 JUMP JUMPDEST DUP2 EQ PUSH2 0xF2C JUMPI PUSH1 0x0 DUP1 REVERT JUMPDEST POP JUMP JUMPDEST PUSH1 0x0 DUP2 CALLDATALOAD SWAP1 POP PUSH2 0xF3E DUP2 PUSH2 0xF18 JUMP JUMPDEST SWAP3 SWAP2 POP POP JUMP JUMPDEST PUSH1 0x0 PUSH1 0x20 DUP3 DUP5 SUB SLT ISZERO PUSH2 0xF5A JUMPI PUSH2 0xF59 PUSH2 0xD99 JUMP JUMPDEST JUMPDEST PUSH1 0x0 PUSH2 0xF68 DUP5 DUP3 DUP6 ADD PUSH2 0xF2F JUMP JUMPDEST SWAP2 POP POP SWAP3 SWAP2 POP POP JUMP JUMPDEST PUSH1 0x0 PUSH1 0x20 DUP3 DUP5 SUB SLT ISZERO PUSH2 0xF87 JUMPI PUSH2 0xF86 PUSH2 0xD99 JUMP JUMPDEST JUMPDEST PUSH1 0x0 PUSH2 0xF95 DUP5 DUP3 DUP6 ADD PUSH2 0xE7D JUMP JUMPDEST SWAP2 POP POP SWAP3 SWAP2 POP POP JUMP JUMPDEST PUSH1 0x0 DUP2 MLOAD SWAP1 POP SWAP2 SWAP1 POP JUMP JUMPDEST PUSH1 0x0 DUP3 DUP3 MSTORE PUSH1 0x20 DUP3 ADD SWAP1 POP SWAP3 SWAP2 POP POP JUMP JUMPDEST PUSH1 0x0 JUMPDEST DUP4 DUP2 LT ISZERO PUSH2 0xFD8 JUMPI DUP1 DUP3 ADD MLOAD DUP2 DUP5 ADD MSTORE PUSH1 0x20 DUP2 ADD SWAP1 POP PUSH2 0xFBD JUMP JUMPDEST PUSH1 0x0 DUP5 DUP5 ADD MSTORE POP POP POP POP JUMP JUMPDEST PUSH1 0x0 PUSH1 0x1F NOT PUSH1 0x1F DUP4 ADD AND SWAP1 POP SWAP2 SWAP1 POP JUMP JUMPDEST PUSH1 0x0 PUSH2 0x1000 DUP3 PUSH2 0xF9E JUMP JUMPDEST PUSH2 0x100A DUP2 DUP6 PUSH2 0xFA9 JUMP JUMPDEST SWAP4 POP PUSH2 0x101A DUP2 DUP6 PUSH1 0x20 DUP7 ADD PUSH2 0xFBA JUMP JUMPDEST PUSH2 0x1023 DUP2 PUSH2 0xFE4 JUMP JUMPDEST DUP5 ADD SWAP2 POP POP SWAP3 SWAP2 POP POP JUMP JUMPDEST PUSH2 0x1037 DUP2 PUSH2 0xE28 JUMP JUMPDEST DUP3 MSTORE POP POP JUMP JUMPDEST PUSH1 0x0 DUP2 ISZERO ISZERO SWAP1 POP SWAP2 SWAP1 POP JUMP JUMPDEST PUSH2 0x1052 DUP2 PUSH2 0x103D JUMP JUMPDEST DUP3 MSTORE POP POP JUMP JUMPDEST PUSH1 0x0 PUSH1 0xA0 DUP3 ADD SWAP1 POP DUP2 DUP2 SUB PUSH1 0x0 DUP4 ADD MSTORE PUSH2 0x1072 DUP2 DUP9 PUSH2 0xFF5 JUMP JUMPDEST SWAP1 POP PUSH2 0x1081 PUSH1 0x20 DUP4 ADD DUP8 PUSH2 0x102E JUMP JUMPDEST PUSH2 0x108E PUSH1 0x40 DUP4 ADD DUP7 PUSH2 0xD6F JUMP JUMPDEST PUSH2 0x109B PUSH1 0x60 DUP4 ADD DUP6 PUSH2 0x1049 JUMP JUMPDEST PUSH2 0x10A8 PUSH1 0x80 DUP4 ADD DUP5 PUSH2 0xD6F JUMP JUMPDEST SWAP7 SWAP6 POP POP POP POP POP POP JUMP JUMPDEST PUSH2 0x10BB DUP2 PUSH2 0xF06 JUMP JUMPDEST DUP3 MSTORE POP POP JUMP JUMPDEST PUSH1 0x0 PUSH1 0x20 DUP3 ADD SWAP1 POP PUSH2 0x10D6 PUSH1 0x0 DUP4 ADD DUP5 PUSH2 0x10B2 JUMP JUMPDEST SWAP3 SWAP2 POP POP JUMP JUMPDEST PUSH32 0x4F6E6C792061646D696E2063616E206578656375746520746869730000000000 PUSH1 0x0 DUP3 ADD MSTORE POP JUMP JUMPDEST PUSH1 0x0 PUSH2 0x1112 PUSH1 0x1B DUP4 PUSH2 0xFA9 JUMP JUMPDEST SWAP2 POP PUSH2 0x111D DUP3 PUSH2 0x10DC JUMP JUMPDEST PUSH1 0x20 DUP3 ADD SWAP1 POP SWAP2 SWAP1 POP JUMP JUMPDEST PUSH1 0x0 PUSH1 0x20 DUP3 ADD SWAP1 POP DUP2 DUP2 SUB PUSH1 0x0 DUP4 ADD MSTORE PUSH2 0x1141 DUP2 PUSH2 0x1105 JUMP JUMPDEST SWAP1 POP SWAP2 SWAP1 POP JUMP JUMPDEST PUSH32 0x4E487B7100000000000000000000000000000000000000000000000000000000 PUSH1 0x0 MSTORE PUSH1 0x11 PUSH1 0x4 MSTORE PUSH1 0x24 PUSH1 0x0 REVERT JUMPDEST PUSH1 0x0 PUSH2 0x1182 DUP3 PUSH2 0xD65 JUMP JUMPDEST SWAP2 POP PUSH32 0xFFFFFFFFFFFFFFFFFFFFFFFFFFFFFFFFFFFFFFFFFFFFFFFFFFFFFFFFFFFFFFFF DUP3 SUB PUSH2 0x11B4 JUMPI PUSH2 0x11B3 PUSH2 0x1148 JUMP JUMPDEST JUMPDEST PUSH1 0x1 DUP3 ADD SWAP1 POP SWAP2 SWAP1 POP JUMP JUMPDEST PUSH1 0x0 DUP3 SWAP1 POP SWAP3 SWAP2 POP POP JUMP JUMPDEST PUSH32 0x4E487B7100000000000000000000000000000000000000000000000000000000 PUSH1 0x0 MSTORE PUSH1 0x41 PUSH1 0x4 MSTORE PUSH1 0x24 PUSH1 0x0 REVERT JUMPDEST PUSH32 0x4E487B7100000000000000000000000000000000000000000000000000000000 PUSH1 0x0 MSTORE PUSH1 0x22 PUSH1 0x4 MSTORE PUSH1 0x24 PUSH1 0x0 REVERT JUMPDEST PUSH1 0x0 PUSH1 0x2 DUP3 DIV SWAP1 POP PUSH1 0x1 DUP3 AND DUP1 PUSH2 0x1240 JUMPI PUSH1 0x7F DUP3 AND SWAP2 POP JUMPDEST PUSH1 0x20 DUP3 LT DUP2 SUB PUSH2 0x1253 JUMPI PUSH2 0x1252 PUSH2 0x11F9 JUMP JUMPDEST JUMPDEST POP SWAP2 SWAP1 POP JUMP JUMPDEST PUSH1 0x0 DUP2 SWAP1 POP DUP2 PUSH1 0x0 MSTORE PUSH1 0x20 PUSH1 0x0 KECCAK256 SWAP1 POP SWAP2 SWAP1 POP JUMP JUMPDEST PUSH1 0x0 PUSH1 0x20 PUSH1 0x1F DUP4 ADD DIV SWAP1 POP SWAP2 SWAP1 POP JUMP JUMPDEST PUSH1 0x0 DUP3 DUP3 SHL SWAP1 POP SWAP3 SWAP2 POP POP JUMP JUMPDEST PUSH1 0x0 PUSH1 0x8 DUP4 MUL PUSH2 0x12BB PUSH32 0xFFFFFFFFFFFFFFFFFFFFFFFFFFFFFFFFFFFFFFFFFFFFFFFFFFFFFFFFFFFFFFFF DUP3 PUSH2 0x127E JUMP JUMPDEST PUSH2 0x12C5 DUP7 DUP4 PUSH2 0x127E JUMP JUMPDEST SWAP6 POP DUP1 NOT DUP5 AND SWAP4 POP DUP1 DUP7 AND DUP5 OR SWAP3 POP POP POP SWAP4 SWAP3 POP POP POP JUMP JUMPDEST PUSH1 0x0 DUP2 SWAP1 POP SWAP2 SWAP1 POP JUMP JUMPDEST PUSH1 0x0 PUSH2 0x1302 PUSH2 0x12FD PUSH2 0x12F8 DUP5 PUSH2 0xD65 JUMP JUMPDEST PUSH2 0x12DD JUMP JUMPDEST PUSH2 0xD65 JUMP JUMPDEST SWAP1 POP SWAP2 SWAP1 POP JUMP JUMPDEST PUSH1 0x0 DUP2 SWAP1 POP SWAP2 SWAP1 POP JUMP JUMPDEST PUSH2 0x131C DUP4 PUSH2 0x12E7 JUMP JUMPDEST PUSH2 0x1330 PUSH2 0x1328 DUP3 PUSH2 0x1309 JUMP JUMPDEST DUP5 DUP5 SLOAD PUSH2 0x128B JUMP JUMPDEST DUP3 SSTORE POP POP POP POP JUMP JUMPDEST PUSH1 0x0 SWAP1 JUMP JUMPDEST PUSH2 0x1345 PUSH2 0x1338 JUMP JUMPDEST PUSH2 0x1350 DUP2 DUP5 DUP5 PUSH2 0x1313 JUMP JUMPDEST POP POP POP JUMP JUMPDEST JUMPDEST DUP2 DUP2 LT ISZERO PUSH2 0x1374 JUMPI PUSH2 0x1369 PUSH1 0x0 DUP3 PUSH2 0x133D JUMP JUMPDEST PUSH1 0x1 DUP2 ADD SWAP1 POP PUSH2 0x1356 JUMP JUMPDEST POP POP JUMP JUMPDEST PUSH1 0x1F DUP3 GT ISZERO PUSH2 0x13B9 JUMPI PUSH2 0x138A DUP2 PUSH2 0x1259 JUMP JUMPDEST PUSH2 0x1393 DUP5 PUSH2 0x126E JUMP JUMPDEST DUP2 ADD PUSH1 0x20 DUP6 LT ISZERO PUSH2 0x13A2 JUMPI DUP2 SWAP1 POP JUMPDEST PUSH2 0x13B6 PUSH2 0x13AE DUP6 PUSH2 0x126E JUMP JUMPDEST DUP4 ADD DUP3 PUSH2 0x1355 JUMP JUMPDEST POP POP JUMPDEST POP POP POP JUMP JUMPDEST PUSH1 0x0 DUP3 DUP3 SHR SWAP1 POP SWAP3 SWAP2 POP POP JUMP JUMPDEST PUSH1 0x0 PUSH2 0x13DC PUSH1 0x0 NOT DUP5 PUSH1 0x8 MUL PUSH2 0x13BE JUMP JUMPDEST NOT DUP1 DUP4 AND SWAP2 POP POP SWAP3 SWAP2 POP POP JUMP JUMPDEST PUSH1 0x0 PUSH2 0x13F5 DUP4 DUP4 PUSH2 0x13CB JUMP JUMPDEST SWAP2 POP DUP3 PUSH1 0x2 MUL DUP3 OR SWAP1 POP SWAP3 SWAP2 POP POP JUMP JUMPDEST PUSH2 0x140F DUP4 DUP4 PUSH2 0x11BF JUMP JUMPDEST PUSH8 0xFFFFFFFFFFFFFFFF DUP2 GT ISZERO PUSH2 0x1428 JUMPI PUSH2 0x1427 PUSH2 0x11CA JUMP JUMPDEST JUMPDEST PUSH2 0x1432 DUP3 SLOAD PUSH2 0x1228 JUMP JUMPDEST PUSH2 0x143D DUP3 DUP3 DUP6 PUSH2 0x1378 JUMP JUMPDEST PUSH1 0x0 PUSH1 0x1F DUP4 GT PUSH1 0x1 DUP2 EQ PUSH2 0x146C JUMPI PUSH1 0x0 DUP5 ISZERO PUSH2 0x145A JUMPI DUP3 DUP8 ADD CALLDATALOAD SWAP1 POP JUMPDEST PUSH2 0x1464 DUP6 DUP3 PUSH2 0x13E9 JUMP JUMPDEST DUP7 SSTORE POP PUSH2 0x14CC JUMP JUMPDEST PUSH1 0x1F NOT DUP5 AND PUSH2 0x147A DUP7 PUSH2 0x1259 JUMP JUMPDEST PUSH1 0x0 JUMPDEST DUP3 DUP2 LT ISZERO PUSH2 0x14A2 JUMPI DUP5 DUP10 ADD CALLDATALOAD DUP3 SSTORE PUSH1 0x1 DUP3 ADD SWAP2 POP PUSH1 0x20 DUP6 ADD SWAP5 POP PUSH1 0x20 DUP2 ADD SWAP1 POP PUSH2 0x147D JUMP JUMPDEST DUP7 DUP4 LT ISZERO PUSH2 0x14BF JUMPI DUP5 DUP10 ADD CALLDATALOAD PUSH2 0x14BB PUSH1 0x1F DUP10 AND DUP3 PUSH2 0x13CB JUMP JUMPDEST DUP4 SSTORE POP JUMPDEST PUSH1 0x1 PUSH1 0x2 DUP9 MUL ADD DUP9 SSTORE POP POP POP JUMPDEST POP POP POP POP POP POP POP JUMP JUMPDEST DUP3 DUP2 DUP4 CALLDATACOPY PUSH1 0x0 DUP4 DUP4 ADD MSTORE POP POP POP JUMP JUMPDEST PUSH1 0x0 PUSH2 0x14F0 DUP4 DUP6 PUSH2 0xFA9 JUMP JUMPDEST SWAP4 POP PUSH2 0x14FD DUP4 DUP6 DUP5 PUSH2 0x14D5 JUMP JUMPDEST PUSH2 0x1506 DUP4 PUSH2 0xFE4 JUMP JUMPDEST DUP5 ADD SWAP1 POP SWAP4 SWAP3 POP POP POP JUMP JUMPDEST PUSH1 0x0 PUSH2 0x152C PUSH2 0x1527 PUSH2 0x1522 DUP5 PUSH2 0xE08 JUMP JUMPDEST PUSH2 0x12DD JUMP JUMPDEST PUSH2 0xE08 JUMP JUMPDEST SWAP1 POP SWAP2 SWAP1 POP JUMP JUMPDEST PUSH1 0x0 PUSH2 0x153E DUP3 PUSH2 0x1511 JUMP JUMPDEST SWAP1 POP SWAP2 SWAP1 POP JUMP JUMPDEST PUSH1 0x0 PUSH2 0x1550 DUP3 PUSH2 0x1533 JUMP JUMPDEST SWAP1 POP SWAP2 SWAP1 POP JUMP JUMPDEST PUSH2 0x1560 DUP2 PUSH2 0x1545 JUMP JUMPDEST DUP3 MSTORE POP POP JUMP JUMPDEST PUSH1 0x0 PUSH1 0x60 DUP3 ADD SWAP1 POP DUP2 DUP2 SUB PUSH1 0x0 DUP4 ADD MSTORE PUSH2 0x1581 DUP2 DUP7 DUP9 PUSH2 0x14E4 JUMP JUMPDEST SWAP1 POP PUSH2 0x1590 PUSH1 0x20 DUP4 ADD DUP6 PUSH2 0x1557 JUMP JUMPDEST PUSH2 0x159D PUSH1 0x40 DUP4 ADD DUP5 PUSH2 0xD6F JUMP JUMPDEST SWAP6 SWAP5 POP POP POP POP POP JUMP JUMPDEST PUSH32 0x596F75206D757374206265206120636F6E7472696275746F7220746F20766F74 PUSH1 0x0 DUP3 ADD MSTORE PUSH32 0x6521000000000000000000000000000000000000000000000000000000000000 PUSH1 0x20 DUP3 ADD MSTORE POP JUMP JUMPDEST PUSH1 0x0 PUSH2 0x1602 PUSH1 0x22 DUP4 PUSH2 0xFA9 JUMP JUMPDEST SWAP2 POP PUSH2 0x160D DUP3 PUSH2 0x15A6 JUMP JUMPDEST PUSH1 0x40 DUP3 ADD SWAP1 POP SWAP2 SWAP1 POP JUMP JUMPDEST PUSH1 0x0 PUSH1 0x20 DUP3 ADD SWAP1 POP DUP2 DUP2 SUB PUSH1 0x0 DUP4 ADD MSTORE PUSH2 0x1631 DUP2 PUSH2 0x15F5 JUMP JUMPDEST SWAP1 POP SWAP2 SWAP1 POP JUMP JUMPDEST PUSH32 0x596F75206861766520616C726561647920766F74656421000000000000000000 PUSH1 0x0 DUP3 ADD MSTORE POP JUMP JUMPDEST PUSH1 0x0 PUSH2 0x166E PUSH1 0x17 DUP4 PUSH2 0xFA9 JUMP JUMPDEST SWAP2 POP PUSH2 0x1679 DUP3 PUSH2 0x1638 JUMP JUMPDEST PUSH1 0x20 DUP3 ADD SWAP1 POP SWAP2 SWAP1 POP JUMP JUMPDEST PUSH1 0x0 PUSH1 0x20 DUP3 ADD SWAP1 POP DUP2 DUP2 SUB PUSH1 0x0 DUP4 ADD MSTORE PUSH2 0x169D DUP2 PUSH2 0x1661 JUMP JUMPDEST SWAP1 POP SWAP2 SWAP1 POP JUMP JUMPDEST PUSH32 0x546865207265717565737420686173206265656E20616C726561647920636F6D PUSH1 0x0 DUP3 ADD MSTORE PUSH32 0x706C657465642100000000000000000000000000000000000000000000000000 PUSH1 0x20 DUP3 ADD MSTORE POP JUMP JUMPDEST PUSH1 0x0 PUSH2 0x1700 PUSH1 0x27 DUP4 PUSH2 0xFA9 JUMP JUMPDEST SWAP2 POP PUSH2 0x170B DUP3 PUSH2 0x16A4 JUMP JUMPDEST PUSH1 0x40 DUP3 ADD SWAP1 POP SWAP2 SWAP1 POP JUMP JUMPDEST PUSH1 0x0 PUSH1 0x20 DUP3 ADD SWAP1 POP DUP2 DUP2 SUB PUSH1 0x0 DUP4 ADD MSTORE PUSH2 0x172F DUP2 PUSH2 0x16F3 JUMP JUMPDEST SWAP1 POP SWAP2 SWAP1 POP JUMP JUMPDEST PUSH32 0x4E487B7100000000000000000000000000000000000000000000000000000000 PUSH1 0x0 MSTORE PUSH1 0x12 PUSH1 0x4 MSTORE PUSH1 0x24 PUSH1 0x0 REVERT JUMPDEST PUSH1 0x0 PUSH2 0x1770 DUP3 PUSH2 0xD65 JUMP JUMPDEST SWAP2 POP PUSH2 0x177B DUP4 PUSH2 0xD65 JUMP JUMPDEST SWAP3 POP DUP3 PUSH2 0x178B JUMPI PUSH2 0x178A PUSH2 0x1736 JUMP JUMPDEST JUMPDEST DUP3 DUP3 DIV SWAP1 POP SWAP3 SWAP2 POP POP JUMP JUMPDEST PUSH32 0x5468652072657175657374206E65656473206D6F7265207468616E2035302520 PUSH1 0x0 DUP3 ADD MSTORE PUSH32 0x6F662074686520636F6E7472696275746F72732E000000000000000000000000 PUSH1 0x20 DUP3 ADD MSTORE POP JUMP JUMPDEST PUSH1 0x0 PUSH2 0x17F2 PUSH1 0x34 DUP4 PUSH2 0xFA9 JUMP JUMPDEST SWAP2 POP PUSH2 0x17FD DUP3 PUSH2 0x1796 JUMP JUMPDEST PUSH1 0x40 DUP3 ADD SWAP1 POP SWAP2 SWAP1 POP JUMP JUMPDEST PUSH1 0x0 PUSH1 0x20 DUP3 ADD SWAP1 POP DUP2 DUP2 SUB PUSH1 0x0 DUP4 ADD MSTORE PUSH2 0x1821 DUP2 PUSH2 0x17E5 JUMP JUMPDEST SWAP1 POP SWAP2 SWAP1 POP JUMP JUMPDEST PUSH1 0x0 PUSH1 0x40 DUP3 ADD SWAP1 POP PUSH2 0x183D PUSH1 0x0 DUP4 ADD DUP6 PUSH2 0x1557 JUMP JUMPDEST PUSH2 0x184A PUSH1 0x20 DUP4 ADD DUP5 PUSH2 0xD6F JUMP JUMPDEST SWAP4 SWAP3 POP POP POP JUMP JUMPDEST PUSH32 0x446561646C696E6520686173206E6F74207061737365642E0000000000000000 PUSH1 0x0 DUP3 ADD MSTORE POP JUMP JUMPDEST PUSH1 0x0 PUSH2 0x1887 PUSH1 0x18 DUP4 PUSH2 0xFA9 JUMP JUMPDEST SWAP2 POP PUSH2 0x1892 DUP3 PUSH2 0x1851 JUMP JUMPDEST PUSH1 0x20 DUP3 ADD SWAP1 POP SWAP2 SWAP1 POP JUMP JUMPDEST PUSH1 0x0 PUSH1 0x20 DUP3 ADD SWAP1 POP DUP2 DUP2 SUB PUSH1 0x0 DUP4 ADD MSTORE PUSH2 0x18B6 DUP2 PUSH2 0x187A JUMP JUMPDEST SWAP1 POP SWAP2 SWAP1 POP JUMP JUMPDEST PUSH32 0x54686520676F616C20776173206D657400000000000000000000000000000000 PUSH1 0x0 DUP3 ADD MSTORE POP JUMP JUMPDEST PUSH1 0x0 PUSH2 0x18F3 PUSH1 0x10 DUP4 PUSH2 0xFA9 JUMP JUMPDEST SWAP2 POP PUSH2 0x18FE DUP3 PUSH2 0x18BD JUMP JUMPDEST PUSH1 0x20 DUP3 ADD SWAP1 POP SWAP2 SWAP1 POP JUMP JUMPDEST PUSH1 0x0 PUSH1 0x20 DUP3 ADD SWAP1 POP DUP2 DUP2 SUB PUSH1 0x0 DUP4 ADD MSTORE PUSH2 0x1922 DUP2 PUSH2 0x18E6 JUMP JUMPDEST SWAP1 POP SWAP2 SWAP1 POP JUMP JUMPDEST PUSH32 0x54686520446561646C696E652068617320706173736564210000000000000000 PUSH1 0x0 DUP3 ADD MSTORE POP JUMP JUMPDEST PUSH1 0x0 PUSH2 0x195F PUSH1 0x18 DUP4 PUSH2 0xFA9 JUMP JUMPDEST SWAP2 POP PUSH2 0x196A DUP3 PUSH2 0x1929 JUMP JUMPDEST PUSH1 0x20 DUP3 ADD SWAP1 POP SWAP2 SWAP1 POP JUMP JUMPDEST PUSH1 0x0 PUSH1 0x20 DUP3 ADD SWAP1 POP DUP2 DUP2 SUB PUSH1 0x0 DUP4 ADD MSTORE PUSH2 0x198E DUP2 PUSH2 0x1952 JUMP JUMPDEST SWAP1 POP SWAP2 SWAP1 POP JUMP JUMPDEST PUSH32 0x546865204D696E696D756D20436F6E747269627574696F6E206E6F74206D6574 PUSH1 0x0 DUP3 ADD MSTORE PUSH32 0x2100000000000000000000000000000000000000000000000000000000000000 PUSH1 0x20 DUP3 ADD MSTORE POP JUMP JUMPDEST PUSH1 0x0 PUSH2 0x19F1 PUSH1 0x21 DUP4 PUSH2 0xFA9 JUMP JUMPDEST SWAP2 POP PUSH2 0x19FC DUP3 PUSH2 0x1995 JUMP JUMPDEST PUSH1 0x40 DUP3 ADD SWAP1 POP SWAP2 SWAP1 POP JUMP JUMPDEST PUSH1 0x0 PUSH1 0x20 DUP3 ADD SWAP1 POP DUP2 DUP2 SUB PUSH1 0x0 DUP4 ADD MSTORE PUSH2 0x1A20 DUP2 PUSH2 0x19E4 JUMP JUMPDEST SWAP1 POP SWAP2 SWAP1 POP JUMP JUMPDEST PUSH1 0x0 PUSH2 0x1A32 DUP3 PUSH2 0xD65 JUMP JUMPDEST SWAP2 POP PUSH2 0x1A3D DUP4 PUSH2 0xD65 JUMP JUMPDEST SWAP3 POP DUP3 DUP3 ADD SWAP1 POP DUP1 DUP3 GT ISZERO PUSH2 0x1A55 JUMPI PUSH2 0x1A54 PUSH2 0x1148 JUMP JUMPDEST JUMPDEST SWAP3 SWAP2 POP POP JUMP JUMPDEST PUSH1 0x0 PUSH1 0x40 DUP3 ADD SWAP1 POP PUSH2 0x1A70 PUSH1 0x0 DUP4 ADD DUP6 PUSH2 0x10B2 JUMP JUMPDEST PUSH2 0x1A7D PUSH1 0x20 DUP4 ADD DUP5 PUSH2 0xD6F JUMP JUMPDEST SWAP4 SWAP3 POP POP POP JUMP INVALID LOG2 PUSH5 0x6970667358 0x22 SLT KECCAK256 0xC 0xA5 0xD2 0xE9 PUSH2 0x8951 DUP13 CODECOPY PUSH22 0x6CA5535B0C895B067541FE7FC76901DEFD07F864D3A2 PUSH5 0x736F6C6343 STOP ADDMOD SLT STOP CALLER "
				},
				"gasEstimates": {
					"creation": {
						"codeDepositCost": "1368400",
						"executionCost": "infinite",
						"totalCost": "infinite"
					},
					"external": {
						"admin()": "2602",
						"contribute()": "infinite",
						"contributors(address)": "2882",
						"createRequest(string,address,uint256)": "infinite",
						"deadline()": "2452",
						"getBalance()": "363",
						"getRefund()": "infinite",
						"goal()": "2474",
						"makePayment(uint256)": "infinite",
						"minimumContribution()": "2496",
						"noOfContributors()": "2518",
						"numRequests()": "2518",
						"raisedAmount()": "2473",
						"requests(uint256)": "infinite",
						"voteRequest(uint256)": "infinite"
					}
				},
				"methodIdentifiers": {
					"admin()": "f851a440",
					"contribute()": "d7bb99ba",
					"contributors(address)": "1f6d4942",
					"createRequest(string,address,uint256)": "1b16bb5c",
					"deadline()": "29dcb0cf",
					"getBalance()": "12065fe0",
					"getRefund()": "b2d5ae44",
					"goal()": "40193883",
					"makePayment(uint256)": "5114cb52",
					"minimumContribution()": "937e09b1",
					"noOfContributors()": "4e260f6f",
					"numRequests()": "9fb42b1f",
					"raisedAmount()": "c59ee1dc",
					"requests(uint256)": "81d12c58",
					"voteRequest(uint256)": "4cb6f4a5"
				}
			},
			"storageLayout": {
				"storage": [
					{
						"astId": 5,
						"contract": "contracts/Crowdfund.sol:CrowdFunding",
						"label": "contributors",
						"offset": 0,
						"slot": "0",
						"type": "t_mapping(t_address,t_uint256)"
					},
					{
						"astId": 7,
						"contract": "contracts/Crowdfund.sol:CrowdFunding",
						"label": "admin",
						"offset": 0,
						"slot": "1",
						"type": "t_address"
					},
					{
						"astId": 9,
						"contract": "contracts/Crowdfund.sol:CrowdFunding",
						"label": "noOfContributors",
						"offset": 0,
						"slot": "2",
						"type": "t_uint256"
					},
					{
						"astId": 11,
						"contract": "contracts/Crowdfund.sol:CrowdFunding",
						"label": "minimumContribution",
						"offset": 0,
						"slot": "3",
						"type": "t_uint256"
					},
					{
						"astId": 13,
						"contract": "contracts/Crowdfund.sol:CrowdFunding",
						"label": "deadline",
						"offset": 0,
						"slot": "4",
						"type": "t_uint256"
					},
					{
						"astId": 15,
						"contract": "contracts/Crowdfund.sol:CrowdFunding",
						"label": "goal",
						"offset": 0,
						"slot": "5",
						"type": "t_uint256"
					},
					{
						"astId": 17,
						"contract": "contracts/Crowdfund.sol:CrowdFunding",
						"label": "raisedAmount",
						"offset": 0,
						"slot": "6",
						"type": "t_uint256"
					},
					{
						"astId": 37,
						"contract": "contracts/Crowdfund.sol:CrowdFunding",
						"label": "requests",
						"offset": 0,
						"slot": "7",
						"type": "t_mapping(t_uint256,t_struct(Request)32_storage)"
					},
					{
						"astId": 39,
						"contract": "contracts/Crowdfund.sol:CrowdFunding",
						"label": "numRequests",
						"offset": 0,
						"slot": "8",
						"type": "t_uint256"
					}
				],
				"types": {
					"t_address": {
						"encoding": "inplace",
						"label": "address",
						"numberOfBytes": "20"
					},
					"t_address_payable": {
						"encoding": "inplace",
						"label": "address payable",
						"numberOfBytes": "20"
					},
					"t_bool": {
						"encoding": "inplace",
						"label": "bool",
						"numberOfBytes": "1"
					},
					"t_mapping(t_address,t_bool)": {
						"encoding": "mapping",
						"key": "t_address",
						"label": "mapping(address => bool)",
						"numberOfBytes": "32",
						"value": "t_bool"
					},
					"t_mapping(t_address,t_uint256)": {
						"encoding": "mapping",
						"key": "t_address",
						"label": "mapping(address => uint256)",
						"numberOfBytes": "32",
						"value": "t_uint256"
					},
					"t_mapping(t_uint256,t_struct(Request)32_storage)": {
						"encoding": "mapping",
						"key": "t_uint256",
						"label": "mapping(uint256 => struct CrowdFunding.Request)",
						"numberOfBytes": "32",
						"value": "t_struct(Request)32_storage"
					},
					"t_string_storage": {
						"encoding": "bytes",
						"label": "string",
						"numberOfBytes": "32"
					},
					"t_struct(Request)32_storage": {
						"encoding": "inplace",
						"label": "struct CrowdFunding.Request",
						"members": [
							{
								"astId": 19,
								"contract": "contracts/Crowdfund.sol:CrowdFunding",
								"label": "description",
								"offset": 0,
								"slot": "0",
								"type": "t_string_storage"
							},
							{
								"astId": 21,
								"contract": "contracts/Crowdfund.sol:CrowdFunding",
								"label": "recipient",
								"offset": 0,
								"slot": "1",
								"type": "t_address_payable"
							},
							{
								"astId": 23,
								"contract": "contracts/Crowdfund.sol:CrowdFunding",
								"label": "value",
								"offset": 0,
								"slot": "2",
								"type": "t_uint256"
							},
							{
								"astId": 25,
								"contract": "contracts/Crowdfund.sol:CrowdFunding",
								"label": "completed",
								"offset": 0,
								"slot": "3",
								"type": "t_bool"
							},
							{
								"astId": 27,
								"contract": "contracts/Crowdfund.sol:CrowdFunding",
								"label": "noOfVoters",
								"offset": 0,
								"slot": "4",
								"type": "t_uint256"
							},
							{
								"astId": 31,
								"contract": "contracts/Crowdfund.sol:CrowdFunding",
								"label": "voters",
								"offset": 0,
								"slot": "5",
								"type": "t_mapping(t_address,t_bool)"
							}
						],
						"numberOfBytes": "192"
					},
					"t_uint256": {
						"encoding": "inplace",
						"label": "uint256",
						"numberOfBytes": "32"
					}
				}
			},
			"userdoc": {
				"kind": "user",
				"methods": {},
				"version": 1
			}
		}
	}
}